{
	"src/level29.sol": {
		"Switch": {
			"abi": [
				{
					"inputs": [
						{
							"internalType": "bytes",
							"name": "_data",
							"type": "bytes"
						}
					],
					"name": "flipSwitch",
					"outputs": [],
					"stateMutability": "nonpayable",
					"type": "function"
				},
				{
					"inputs": [],
					"name": "offSelector",
					"outputs": [
						{
							"internalType": "bytes4",
							"name": "",
							"type": "bytes4"
						}
					],
					"stateMutability": "view",
					"type": "function"
				},
				{
					"inputs": [],
					"name": "switchOn",
					"outputs": [
						{
							"internalType": "bool",
							"name": "",
							"type": "bool"
						}
					],
					"stateMutability": "view",
					"type": "function"
				},
				{
					"inputs": [],
					"name": "turnSwitchOff",
					"outputs": [],
					"stateMutability": "nonpayable",
					"type": "function"
				},
				{
					"inputs": [],
					"name": "turnSwitchOn",
					"outputs": [],
					"stateMutability": "nonpayable",
					"type": "function"
				}
			],
			"devdoc": {
				"kind": "dev",
				"methods": {},
				"version": 1
			},
			"evm": {
				"assembly": "    /* \"src/level29.sol\":188:1172  contract Switch {... */\n  mstore(0x40, 0x80)\n    /* \"src/level29.sol\":288:316  keccak256(\"turnSwitchOff()\") */\n  0x20606e15b70f0894e0e83ae9593ae406a94abb5adcfcf0d169c6784f02198dc3\n    /* \"src/level29.sol\":253:317  bytes4 public offSelector = bytes4(keccak256(\"turnSwitchOff()\")) */\n  0x00\n  exp(0x0100, 0x01)\n  dup2\n  sload\n  dup2\n  0xffffffff\n  mul\n  not\n  and\n  swap1\n  dup4\n  0xe0\n  shr\n  mul\n  or\n  swap1\n  sstore\n  pop\n    /* \"src/level29.sol\":188:1172  contract Switch {... */\n  callvalue\n  dup1\n  iszero\n  tag_1\n  jumpi\n  0x00\n  dup1\n  revert\ntag_1:\n  pop\n  dataSize(sub_0)\n  dup1\n  dataOffset(sub_0)\n  0x00\n  codecopy\n  0x00\n  return\nstop\n\nsub_0: assembly {\n        /* \"src/level29.sol\":188:1172  contract Switch {... */\n      mstore(0x40, 0x80)\n      callvalue\n      dup1\n      iszero\n      tag_1\n      jumpi\n      0x00\n      dup1\n      revert\n    tag_1:\n      pop\n      jumpi(tag_2, lt(calldatasize, 0x04))\n      shr(0xe0, calldataload(0x00))\n      dup1\n      0x20606e15\n      eq\n      tag_3\n      jumpi\n      dup1\n      0x30c13ade\n      eq\n      tag_4\n      jumpi\n      dup1\n      0x5a2cfa66\n      eq\n      tag_5\n      jumpi\n      dup1\n      0x76227e12\n      eq\n      tag_6\n      jumpi\n      dup1\n      0xf9f8f895\n      eq\n      tag_7\n      jumpi\n    tag_2:\n      0x00\n      dup1\n      revert\n        /* \"src/level29.sol\":1096:1170  function turnSwitchOff() public onlyThis {... */\n    tag_3:\n      tag_8\n      tag_9\n      jump\t// in\n    tag_8:\n      stop\n        /* \"src/level29.sol\":853:1012  function flipSwitch(bytes memory _data) public onlyOff {... */\n    tag_4:\n      tag_10\n      0x04\n      dup1\n      calldatasize\n      sub\n      dup2\n      add\n      swap1\n      tag_11\n      swap2\n      swap1\n      tag_12\n      jump\t// in\n    tag_11:\n      tag_13\n      jump\t// in\n    tag_10:\n      stop\n        /* \"src/level29.sol\":253:317  bytes4 public offSelector = bytes4(keccak256(\"turnSwitchOff()\")) */\n    tag_5:\n      tag_14\n      tag_15\n      jump\t// in\n    tag_14:\n      mload(0x40)\n      tag_16\n      swap2\n      swap1\n      tag_17\n      jump\t// in\n    tag_16:\n      mload(0x40)\n      dup1\n      swap2\n      sub\n      swap1\n      return\n        /* \"src/level29.sol\":1018:1090  function turnSwitchOn() public onlyThis {... */\n    tag_6:\n      tag_18\n      tag_19\n      jump\t// in\n    tag_18:\n      stop\n        /* \"src/level29.sol\":210:230  bool public switchOn */\n    tag_7:\n      tag_20\n      tag_21\n      jump\t// in\n    tag_20:\n      mload(0x40)\n      tag_22\n      swap2\n      swap1\n      tag_23\n      jump\t// in\n    tag_22:\n      mload(0x40)\n      dup1\n      swap2\n      sub\n      swap1\n      return\n        /* \"src/level29.sol\":1096:1170  function turnSwitchOff() public onlyThis {... */\n    tag_9:\n        /* \"src/level29.sol\":384:388  this */\n      address\n        /* \"src/level29.sol\":362:389  msg.sender == address(this) */\n      0xffffffffffffffffffffffffffffffffffffffff\n      and\n        /* \"src/level29.sol\":362:372  msg.sender */\n      caller\n        /* \"src/level29.sol\":362:389  msg.sender == address(this) */\n      0xffffffffffffffffffffffffffffffffffffffff\n      and\n      eq\n        /* \"src/level29.sol\":354:425  require(msg.sender == address(this), \"Only the contract can call this\") */\n      tag_25\n      jumpi\n      mload(0x40)\n      0x08c379a000000000000000000000000000000000000000000000000000000000\n      dup2\n      mstore\n      0x04\n      add\n      tag_26\n      swap1\n      tag_27\n      jump\t// in\n    tag_26:\n      mload(0x40)\n      dup1\n      swap2\n      sub\n      swap1\n      revert\n    tag_25:\n        /* \"src/level29.sol\":1158:1163  false */\n      0x00\n        /* \"src/level29.sol\":1147:1155  switchOn */\n      dup1\n      0x00\n        /* \"src/level29.sol\":1147:1163  switchOn = false */\n      0x0100\n      exp\n      dup2\n      sload\n      dup2\n      0xff\n      mul\n      not\n      and\n      swap1\n      dup4\n      iszero\n      iszero\n      mul\n      or\n      swap1\n      sstore\n      pop\n        /* \"src/level29.sol\":1096:1170  function turnSwitchOff() public onlyThis {... */\n      jump\t// out\n        /* \"src/level29.sol\":853:1012  function flipSwitch(bytes memory _data) public onlyOff {... */\n    tag_13:\n        /* \"src/level29.sol\":533:559  bytes32[1] memory selector */\n      tag_30\n      tag_31\n      jump\t// in\n    tag_30:\n        /* \"src/level29.sol\":689:690  4 */\n      0x04\n        /* \"src/level29.sol\":685:687  68 */\n      0x44\n        /* \"src/level29.sol\":675:683  selector */\n      dup3\n        /* \"src/level29.sol\":662:691  calldatacopy(selector, 68, 4) */\n      calldatacopy\n        /* \"src/level29.sol\":773:784  offSelector */\n      0x00\n      0x01\n      swap1\n      sload\n      swap1\n      0x0100\n      exp\n      swap1\n      div\n      0xe0\n      shl\n        /* \"src/level29.sol\":758:784  selector[0] == offSelector */\n      not(0xffffffffffffffffffffffffffffffffffffffffffffffffffffffff)\n      and\n        /* \"src/level29.sol\":758:766  selector */\n      dup2\n        /* \"src/level29.sol\":767:768  0 */\n      0x00\n        /* \"src/level29.sol\":758:769  selector[0] */\n      0x01\n      dup2\n      lt\n      tag_32\n      jumpi\n      tag_33\n      tag_34\n      jump\t// in\n    tag_33:\n    tag_32:\n      0x20\n      mul\n      add\n      mload\n        /* \"src/level29.sol\":758:784  selector[0] == offSelector */\n      eq\n        /* \"src/level29.sol\":750:829  require(selector[0] == offSelector, \"Can only call the turnOffSwitch function\") */\n      tag_35\n      jumpi\n      mload(0x40)\n      0x08c379a000000000000000000000000000000000000000000000000000000000\n      dup2\n      mstore\n      0x04\n      add\n      tag_36\n      swap1\n      tag_37\n      jump\t// in\n    tag_36:\n      mload(0x40)\n      dup1\n      swap2\n      sub\n      swap1\n      revert\n    tag_35:\n        /* \"src/level29.sol\":919:931  bool success */\n      0x00\n        /* \"src/level29.sol\":944:948  this */\n      address\n        /* \"src/level29.sol\":936:954  address(this).call */\n      0xffffffffffffffffffffffffffffffffffffffff\n      and\n        /* \"src/level29.sol\":955:960  _data */\n      dup4\n        /* \"src/level29.sol\":936:961  address(this).call(_data) */\n      mload(0x40)\n      tag_39\n      swap2\n      swap1\n      tag_40\n      jump\t// in\n    tag_39:\n      0x00\n      mload(0x40)\n      dup1\n      dup4\n      sub\n      dup2\n      0x00\n      dup7\n      gas\n      call\n      swap2\n      pop\n      pop\n      returndatasize\n      dup1\n      0x00\n      dup2\n      eq\n      tag_43\n      jumpi\n      mload(0x40)\n      swap2\n      pop\n      and(add(returndatasize, 0x3f), not(0x1f))\n      dup3\n      add\n      0x40\n      mstore\n      returndatasize\n      dup3\n      mstore\n      returndatasize\n      0x00\n      0x20\n      dup5\n      add\n      returndatacopy\n      jump(tag_42)\n    tag_43:\n      0x60\n      swap2\n      pop\n    tag_42:\n      pop\n        /* \"src/level29.sol\":918:961  (bool success,) = address(this).call(_data) */\n      pop\n      swap1\n      pop\n        /* \"src/level29.sol\":979:986  success */\n      dup1\n        /* \"src/level29.sol\":971:1005  require(success, \"call failed :(\") */\n      tag_44\n      jumpi\n      mload(0x40)\n      0x08c379a000000000000000000000000000000000000000000000000000000000\n      dup2\n      mstore\n      0x04\n      add\n      tag_45\n      swap1\n      tag_46\n      jump\t// in\n    tag_45:\n      mload(0x40)\n      dup1\n      swap2\n      sub\n      swap1\n      revert\n    tag_44:\n        /* \"src/level29.sol\":908:1012  {... */\n      pop\n        /* \"src/level29.sol\":468:847  {... */\n      pop\n        /* \"src/level29.sol\":853:1012  function flipSwitch(bytes memory _data) public onlyOff {... */\n      pop\n      jump\t// out\n        /* \"src/level29.sol\":253:317  bytes4 public offSelector = bytes4(keccak256(\"turnSwitchOff()\")) */\n    tag_15:\n      0x00\n      0x01\n      swap1\n      sload\n      swap1\n      0x0100\n      exp\n      swap1\n      div\n      0xe0\n      shl\n      dup2\n      jump\t// out\n        /* \"src/level29.sol\":1018:1090  function turnSwitchOn() public onlyThis {... */\n    tag_19:\n        /* \"src/level29.sol\":384:388  this */\n      address\n        /* \"src/level29.sol\":362:389  msg.sender == address(this) */\n      0xffffffffffffffffffffffffffffffffffffffff\n      and\n        /* \"src/level29.sol\":362:372  msg.sender */\n      caller\n        /* \"src/level29.sol\":362:389  msg.sender == address(this) */\n      0xffffffffffffffffffffffffffffffffffffffff\n      and\n      eq\n        /* \"src/level29.sol\":354:425  require(msg.sender == address(this), \"Only the contract can call this\") */\n      tag_48\n      jumpi\n      mload(0x40)\n      0x08c379a000000000000000000000000000000000000000000000000000000000\n      dup2\n      mstore\n      0x04\n      add\n      tag_49\n      swap1\n      tag_27\n      jump\t// in\n    tag_49:\n      mload(0x40)\n      dup1\n      swap2\n      sub\n      swap1\n      revert\n    tag_48:\n        /* \"src/level29.sol\":1079:1083  true */\n      0x01\n        /* \"src/level29.sol\":1068:1076  switchOn */\n      0x00\n      dup1\n        /* \"src/level29.sol\":1068:1083  switchOn = true */\n      0x0100\n      exp\n      dup2\n      sload\n      dup2\n      0xff\n      mul\n      not\n      and\n      swap1\n      dup4\n      iszero\n      iszero\n      mul\n      or\n      swap1\n      sstore\n      pop\n        /* \"src/level29.sol\":1018:1090  function turnSwitchOn() public onlyThis {... */\n      jump\t// out\n        /* \"src/level29.sol\":210:230  bool public switchOn */\n    tag_21:\n      0x00\n      dup1\n      sload\n      swap1\n      0x0100\n      exp\n      swap1\n      div\n      0xff\n      and\n      dup2\n      jump\t// out\n    tag_31:\n      mload(0x40)\n      dup1\n      0x20\n      add\n      0x40\n      mstore\n      dup1\n      0x01\n      swap1\n      0x20\n      dup3\n      mul\n      dup1\n      calldatasize\n      dup4\n      calldatacopy\n      dup1\n      dup3\n      add\n      swap2\n      pop\n      pop\n      swap1\n      pop\n      pop\n      swap1\n      jump\t// out\n        /* \"#utility.yul\":7:82   */\n    tag_51:\n        /* \"#utility.yul\":40:46   */\n      0x00\n        /* \"#utility.yul\":73:75   */\n      0x40\n        /* \"#utility.yul\":67:76   */\n      mload\n        /* \"#utility.yul\":57:76   */\n      swap1\n      pop\n        /* \"#utility.yul\":7:82   */\n      swap1\n      jump\t// out\n        /* \"#utility.yul\":88:205   */\n    tag_52:\n        /* \"#utility.yul\":197:198   */\n      0x00\n        /* \"#utility.yul\":194:195   */\n      dup1\n        /* \"#utility.yul\":187:199   */\n      revert\n        /* \"#utility.yul\":211:328   */\n    tag_53:\n        /* \"#utility.yul\":320:321   */\n      0x00\n        /* \"#utility.yul\":317:318   */\n      dup1\n        /* \"#utility.yul\":310:322   */\n      revert\n        /* \"#utility.yul\":334:451   */\n    tag_54:\n        /* \"#utility.yul\":443:444   */\n      0x00\n        /* \"#utility.yul\":440:441   */\n      dup1\n        /* \"#utility.yul\":433:445   */\n      revert\n        /* \"#utility.yul\":457:574   */\n    tag_55:\n        /* \"#utility.yul\":566:567   */\n      0x00\n        /* \"#utility.yul\":563:564   */\n      dup1\n        /* \"#utility.yul\":556:568   */\n      revert\n        /* \"#utility.yul\":580:682   */\n    tag_56:\n        /* \"#utility.yul\":621:627   */\n      0x00\n        /* \"#utility.yul\":672:674   */\n      0x1f\n        /* \"#utility.yul\":668:675   */\n      not\n        /* \"#utility.yul\":663:665   */\n      0x1f\n        /* \"#utility.yul\":656:661   */\n      dup4\n        /* \"#utility.yul\":652:666   */\n      add\n        /* \"#utility.yul\":648:676   */\n      and\n        /* \"#utility.yul\":638:676   */\n      swap1\n      pop\n        /* \"#utility.yul\":580:682   */\n      swap2\n      swap1\n      pop\n      jump\t// out\n        /* \"#utility.yul\":688:868   */\n    tag_57:\n        /* \"#utility.yul\":736:813   */\n      0x4e487b7100000000000000000000000000000000000000000000000000000000\n        /* \"#utility.yul\":733:734   */\n      0x00\n        /* \"#utility.yul\":726:814   */\n      mstore\n        /* \"#utility.yul\":833:837   */\n      0x41\n        /* \"#utility.yul\":830:831   */\n      0x04\n        /* \"#utility.yul\":823:838   */\n      mstore\n        /* \"#utility.yul\":857:861   */\n      0x24\n        /* \"#utility.yul\":854:855   */\n      0x00\n        /* \"#utility.yul\":847:862   */\n      revert\n        /* \"#utility.yul\":874:1155   */\n    tag_58:\n        /* \"#utility.yul\":957:984   */\n      tag_88\n        /* \"#utility.yul\":979:983   */\n      dup3\n        /* \"#utility.yul\":957:984   */\n      tag_56\n      jump\t// in\n    tag_88:\n        /* \"#utility.yul\":949:955   */\n      dup2\n        /* \"#utility.yul\":945:985   */\n      add\n        /* \"#utility.yul\":1087:1093   */\n      dup2\n        /* \"#utility.yul\":1075:1085   */\n      dup2\n        /* \"#utility.yul\":1072:1094   */\n      lt\n        /* \"#utility.yul\":1051:1069   */\n      0xffffffffffffffff\n        /* \"#utility.yul\":1039:1049   */\n      dup3\n        /* \"#utility.yul\":1036:1070   */\n      gt\n        /* \"#utility.yul\":1033:1095   */\n      or\n        /* \"#utility.yul\":1030:1118   */\n      iszero\n      tag_89\n      jumpi\n        /* \"#utility.yul\":1098:1116   */\n      tag_90\n      tag_57\n      jump\t// in\n    tag_90:\n        /* \"#utility.yul\":1030:1118   */\n    tag_89:\n        /* \"#utility.yul\":1138:1148   */\n      dup1\n        /* \"#utility.yul\":1134:1136   */\n      0x40\n        /* \"#utility.yul\":1127:1149   */\n      mstore\n        /* \"#utility.yul\":917:1155   */\n      pop\n        /* \"#utility.yul\":874:1155   */\n      pop\n      pop\n      jump\t// out\n        /* \"#utility.yul\":1161:1290   */\n    tag_59:\n        /* \"#utility.yul\":1195:1201   */\n      0x00\n        /* \"#utility.yul\":1222:1242   */\n      tag_92\n      tag_51\n      jump\t// in\n    tag_92:\n        /* \"#utility.yul\":1212:1242   */\n      swap1\n      pop\n        /* \"#utility.yul\":1251:1284   */\n      tag_93\n        /* \"#utility.yul\":1279:1283   */\n      dup3\n        /* \"#utility.yul\":1271:1277   */\n      dup3\n        /* \"#utility.yul\":1251:1284   */\n      tag_58\n      jump\t// in\n    tag_93:\n        /* \"#utility.yul\":1161:1290   */\n      swap2\n      swap1\n      pop\n      jump\t// out\n        /* \"#utility.yul\":1296:1603   */\n    tag_60:\n        /* \"#utility.yul\":1357:1361   */\n      0x00\n        /* \"#utility.yul\":1447:1465   */\n      0xffffffffffffffff\n        /* \"#utility.yul\":1439:1445   */\n      dup3\n        /* \"#utility.yul\":1436:1466   */\n      gt\n        /* \"#utility.yul\":1433:1489   */\n      iszero\n      tag_95\n      jumpi\n        /* \"#utility.yul\":1469:1487   */\n      tag_96\n      tag_57\n      jump\t// in\n    tag_96:\n        /* \"#utility.yul\":1433:1489   */\n    tag_95:\n        /* \"#utility.yul\":1507:1536   */\n      tag_97\n        /* \"#utility.yul\":1529:1535   */\n      dup3\n        /* \"#utility.yul\":1507:1536   */\n      tag_56\n      jump\t// in\n    tag_97:\n        /* \"#utility.yul\":1499:1536   */\n      swap1\n      pop\n        /* \"#utility.yul\":1591:1595   */\n      0x20\n        /* \"#utility.yul\":1585:1589   */\n      dup2\n        /* \"#utility.yul\":1581:1596   */\n      add\n        /* \"#utility.yul\":1573:1596   */\n      swap1\n      pop\n        /* \"#utility.yul\":1296:1603   */\n      swap2\n      swap1\n      pop\n      jump\t// out\n        /* \"#utility.yul\":1609:1757   */\n    tag_61:\n        /* \"#utility.yul\":1707:1713   */\n      dup3\n        /* \"#utility.yul\":1702:1705   */\n      dup2\n        /* \"#utility.yul\":1697:1700   */\n      dup4\n        /* \"#utility.yul\":1684:1714   */\n      calldatacopy\n        /* \"#utility.yul\":1748:1749   */\n      0x00\n        /* \"#utility.yul\":1739:1745   */\n      dup4\n        /* \"#utility.yul\":1734:1737   */\n      dup4\n        /* \"#utility.yul\":1730:1746   */\n      add\n        /* \"#utility.yul\":1723:1750   */\n      mstore\n        /* \"#utility.yul\":1609:1757   */\n      pop\n      pop\n      pop\n      jump\t// out\n        /* \"#utility.yul\":1763:2186   */\n    tag_62:\n        /* \"#utility.yul\":1840:1845   */\n      0x00\n        /* \"#utility.yul\":1865:1930   */\n      tag_100\n        /* \"#utility.yul\":1881:1929   */\n      tag_101\n        /* \"#utility.yul\":1922:1928   */\n      dup5\n        /* \"#utility.yul\":1881:1929   */\n      tag_60\n      jump\t// in\n    tag_101:\n        /* \"#utility.yul\":1865:1930   */\n      tag_59\n      jump\t// in\n    tag_100:\n        /* \"#utility.yul\":1856:1930   */\n      swap1\n      pop\n        /* \"#utility.yul\":1953:1959   */\n      dup3\n        /* \"#utility.yul\":1946:1951   */\n      dup2\n        /* \"#utility.yul\":1939:1960   */\n      mstore\n        /* \"#utility.yul\":1991:1995   */\n      0x20\n        /* \"#utility.yul\":1984:1989   */\n      dup2\n        /* \"#utility.yul\":1980:1996   */\n      add\n        /* \"#utility.yul\":2029:2032   */\n      dup5\n        /* \"#utility.yul\":2020:2026   */\n      dup5\n        /* \"#utility.yul\":2015:2018   */\n      dup5\n        /* \"#utility.yul\":2011:2027   */\n      add\n        /* \"#utility.yul\":2008:2033   */\n      gt\n        /* \"#utility.yul\":2005:2117   */\n      iszero\n      tag_102\n      jumpi\n        /* \"#utility.yul\":2036:2115   */\n      tag_103\n      tag_55\n      jump\t// in\n    tag_103:\n        /* \"#utility.yul\":2005:2117   */\n    tag_102:\n        /* \"#utility.yul\":2126:2180   */\n      tag_104\n        /* \"#utility.yul\":2173:2179   */\n      dup5\n        /* \"#utility.yul\":2168:2171   */\n      dup3\n        /* \"#utility.yul\":2163:2166   */\n      dup6\n        /* \"#utility.yul\":2126:2180   */\n      tag_61\n      jump\t// in\n    tag_104:\n        /* \"#utility.yul\":1846:2186   */\n      pop\n        /* \"#utility.yul\":1763:2186   */\n      swap4\n      swap3\n      pop\n      pop\n      pop\n      jump\t// out\n        /* \"#utility.yul\":2205:2543   */\n    tag_63:\n        /* \"#utility.yul\":2260:2265   */\n      0x00\n        /* \"#utility.yul\":2309:2312   */\n      dup3\n        /* \"#utility.yul\":2302:2306   */\n      0x1f\n        /* \"#utility.yul\":2294:2300   */\n      dup4\n        /* \"#utility.yul\":2290:2307   */\n      add\n        /* \"#utility.yul\":2286:2313   */\n      slt\n        /* \"#utility.yul\":2276:2398   */\n      tag_106\n      jumpi\n        /* \"#utility.yul\":2317:2396   */\n      tag_107\n      tag_54\n      jump\t// in\n    tag_107:\n        /* \"#utility.yul\":2276:2398   */\n    tag_106:\n        /* \"#utility.yul\":2434:2440   */\n      dup2\n        /* \"#utility.yul\":2421:2441   */\n      calldataload\n        /* \"#utility.yul\":2459:2537   */\n      tag_108\n        /* \"#utility.yul\":2533:2536   */\n      dup5\n        /* \"#utility.yul\":2525:2531   */\n      dup3\n        /* \"#utility.yul\":2518:2522   */\n      0x20\n        /* \"#utility.yul\":2510:2516   */\n      dup7\n        /* \"#utility.yul\":2506:2523   */\n      add\n        /* \"#utility.yul\":2459:2537   */\n      tag_62\n      jump\t// in\n    tag_108:\n        /* \"#utility.yul\":2450:2537   */\n      swap2\n      pop\n        /* \"#utility.yul\":2266:2543   */\n      pop\n        /* \"#utility.yul\":2205:2543   */\n      swap3\n      swap2\n      pop\n      pop\n      jump\t// out\n        /* \"#utility.yul\":2549:3056   */\n    tag_12:\n        /* \"#utility.yul\":2617:2623   */\n      0x00\n        /* \"#utility.yul\":2666:2668   */\n      0x20\n        /* \"#utility.yul\":2654:2663   */\n      dup3\n        /* \"#utility.yul\":2645:2652   */\n      dup5\n        /* \"#utility.yul\":2641:2664   */\n      sub\n        /* \"#utility.yul\":2637:2669   */\n      slt\n        /* \"#utility.yul\":2634:2753   */\n      iszero\n      tag_110\n      jumpi\n        /* \"#utility.yul\":2672:2751   */\n      tag_111\n      tag_52\n      jump\t// in\n    tag_111:\n        /* \"#utility.yul\":2634:2753   */\n    tag_110:\n        /* \"#utility.yul\":2820:2821   */\n      0x00\n        /* \"#utility.yul\":2809:2818   */\n      dup3\n        /* \"#utility.yul\":2805:2822   */\n      add\n        /* \"#utility.yul\":2792:2823   */\n      calldataload\n        /* \"#utility.yul\":2850:2868   */\n      0xffffffffffffffff\n        /* \"#utility.yul\":2842:2848   */\n      dup2\n        /* \"#utility.yul\":2839:2869   */\n      gt\n        /* \"#utility.yul\":2836:2953   */\n      iszero\n      tag_112\n      jumpi\n        /* \"#utility.yul\":2872:2951   */\n      tag_113\n      tag_53\n      jump\t// in\n    tag_113:\n        /* \"#utility.yul\":2836:2953   */\n    tag_112:\n        /* \"#utility.yul\":2977:3039   */\n      tag_114\n        /* \"#utility.yul\":3031:3038   */\n      dup5\n        /* \"#utility.yul\":3022:3028   */\n      dup3\n        /* \"#utility.yul\":3011:3020   */\n      dup6\n        /* \"#utility.yul\":3007:3029   */\n      add\n        /* \"#utility.yul\":2977:3039   */\n      tag_63\n      jump\t// in\n    tag_114:\n        /* \"#utility.yul\":2967:3039   */\n      swap2\n      pop\n        /* \"#utility.yul\":2763:3049   */\n      pop\n        /* \"#utility.yul\":2549:3056   */\n      swap3\n      swap2\n      pop\n      pop\n      jump\t// out\n        /* \"#utility.yul\":3062:3211   */\n    tag_64:\n        /* \"#utility.yul\":3098:3105   */\n      0x00\n        /* \"#utility.yul\":3138:3204   */\n      0xffffffff00000000000000000000000000000000000000000000000000000000\n        /* \"#utility.yul\":3131:3136   */\n      dup3\n        /* \"#utility.yul\":3127:3205   */\n      and\n        /* \"#utility.yul\":3116:3205   */\n      swap1\n      pop\n        /* \"#utility.yul\":3062:3211   */\n      swap2\n      swap1\n      pop\n      jump\t// out\n        /* \"#utility.yul\":3217:3332   */\n    tag_65:\n        /* \"#utility.yul\":3302:3325   */\n      tag_117\n        /* \"#utility.yul\":3319:3324   */\n      dup2\n        /* \"#utility.yul\":3302:3325   */\n      tag_64\n      jump\t// in\n    tag_117:\n        /* \"#utility.yul\":3297:3300   */\n      dup3\n        /* \"#utility.yul\":3290:3326   */\n      mstore\n        /* \"#utility.yul\":3217:3332   */\n      pop\n      pop\n      jump\t// out\n        /* \"#utility.yul\":3338:3556   */\n    tag_17:\n        /* \"#utility.yul\":3429:3433   */\n      0x00\n        /* \"#utility.yul\":3467:3469   */\n      0x20\n        /* \"#utility.yul\":3456:3465   */\n      dup3\n        /* \"#utility.yul\":3452:3470   */\n      add\n        /* \"#utility.yul\":3444:3470   */\n      swap1\n      pop\n        /* \"#utility.yul\":3480:3549   */\n      tag_119\n        /* \"#utility.yul\":3546:3547   */\n      0x00\n        /* \"#utility.yul\":3535:3544   */\n      dup4\n        /* \"#utility.yul\":3531:3548   */\n      add\n        /* \"#utility.yul\":3522:3528   */\n      dup5\n        /* \"#utility.yul\":3480:3549   */\n      tag_65\n      jump\t// in\n    tag_119:\n        /* \"#utility.yul\":3338:3556   */\n      swap3\n      swap2\n      pop\n      pop\n      jump\t// out\n        /* \"#utility.yul\":3562:3652   */\n    tag_66:\n        /* \"#utility.yul\":3596:3603   */\n      0x00\n        /* \"#utility.yul\":3639:3644   */\n      dup2\n        /* \"#utility.yul\":3632:3645   */\n      iszero\n        /* \"#utility.yul\":3625:3646   */\n      iszero\n        /* \"#utility.yul\":3614:3646   */\n      swap1\n      pop\n        /* \"#utility.yul\":3562:3652   */\n      swap2\n      swap1\n      pop\n      jump\t// out\n        /* \"#utility.yul\":3658:3767   */\n    tag_67:\n        /* \"#utility.yul\":3739:3760   */\n      tag_122\n        /* \"#utility.yul\":3754:3759   */\n      dup2\n        /* \"#utility.yul\":3739:3760   */\n      tag_66\n      jump\t// in\n    tag_122:\n        /* \"#utility.yul\":3734:3737   */\n      dup3\n        /* \"#utility.yul\":3727:3761   */\n      mstore\n        /* \"#utility.yul\":3658:3767   */\n      pop\n      pop\n      jump\t// out\n        /* \"#utility.yul\":3773:3983   */\n    tag_23:\n        /* \"#utility.yul\":3860:3864   */\n      0x00\n        /* \"#utility.yul\":3898:3900   */\n      0x20\n        /* \"#utility.yul\":3887:3896   */\n      dup3\n        /* \"#utility.yul\":3883:3901   */\n      add\n        /* \"#utility.yul\":3875:3901   */\n      swap1\n      pop\n        /* \"#utility.yul\":3911:3976   */\n      tag_124\n        /* \"#utility.yul\":3973:3974   */\n      0x00\n        /* \"#utility.yul\":3962:3971   */\n      dup4\n        /* \"#utility.yul\":3958:3975   */\n      add\n        /* \"#utility.yul\":3949:3955   */\n      dup5\n        /* \"#utility.yul\":3911:3976   */\n      tag_67\n      jump\t// in\n    tag_124:\n        /* \"#utility.yul\":3773:3983   */\n      swap3\n      swap2\n      pop\n      pop\n      jump\t// out\n        /* \"#utility.yul\":3989:4158   */\n    tag_68:\n        /* \"#utility.yul\":4073:4084   */\n      0x00\n        /* \"#utility.yul\":4107:4113   */\n      dup3\n        /* \"#utility.yul\":4102:4105   */\n      dup3\n        /* \"#utility.yul\":4095:4114   */\n      mstore\n        /* \"#utility.yul\":4147:4151   */\n      0x20\n        /* \"#utility.yul\":4142:4145   */\n      dup3\n        /* \"#utility.yul\":4138:4152   */\n      add\n        /* \"#utility.yul\":4123:4152   */\n      swap1\n      pop\n        /* \"#utility.yul\":3989:4158   */\n      swap3\n      swap2\n      pop\n      pop\n      jump\t// out\n        /* \"#utility.yul\":4164:4345   */\n    tag_69:\n        /* \"#utility.yul\":4304:4337   */\n      0x4f6e6c792074686520636f6e74726163742063616e2063616c6c207468697300\n        /* \"#utility.yul\":4300:4301   */\n      0x00\n        /* \"#utility.yul\":4292:4298   */\n      dup3\n        /* \"#utility.yul\":4288:4302   */\n      add\n        /* \"#utility.yul\":4281:4338   */\n      mstore\n        /* \"#utility.yul\":4164:4345   */\n      pop\n      jump\t// out\n        /* \"#utility.yul\":4351:4717   */\n    tag_70:\n        /* \"#utility.yul\":4493:4496   */\n      0x00\n        /* \"#utility.yul\":4514:4581   */\n      tag_128\n        /* \"#utility.yul\":4578:4580   */\n      0x1f\n        /* \"#utility.yul\":4573:4576   */\n      dup4\n        /* \"#utility.yul\":4514:4581   */\n      tag_68\n      jump\t// in\n    tag_128:\n        /* \"#utility.yul\":4507:4581   */\n      swap2\n      pop\n        /* \"#utility.yul\":4590:4683   */\n      tag_129\n        /* \"#utility.yul\":4679:4682   */\n      dup3\n        /* \"#utility.yul\":4590:4683   */\n      tag_69\n      jump\t// in\n    tag_129:\n        /* \"#utility.yul\":4708:4710   */\n      0x20\n        /* \"#utility.yul\":4703:4706   */\n      dup3\n        /* \"#utility.yul\":4699:4711   */\n      add\n        /* \"#utility.yul\":4692:4711   */\n      swap1\n      pop\n        /* \"#utility.yul\":4351:4717   */\n      swap2\n      swap1\n      pop\n      jump\t// out\n        /* \"#utility.yul\":4723:5142   */\n    tag_27:\n        /* \"#utility.yul\":4889:4893   */\n      0x00\n        /* \"#utility.yul\":4927:4929   */\n      0x20\n        /* \"#utility.yul\":4916:4925   */\n      dup3\n        /* \"#utility.yul\":4912:4930   */\n      add\n        /* \"#utility.yul\":4904:4930   */\n      swap1\n      pop\n        /* \"#utility.yul\":4976:4985   */\n      dup2\n        /* \"#utility.yul\":4970:4974   */\n      dup2\n        /* \"#utility.yul\":4966:4986   */\n      sub\n        /* \"#utility.yul\":4962:4963   */\n      0x00\n        /* \"#utility.yul\":4951:4960   */\n      dup4\n        /* \"#utility.yul\":4947:4964   */\n      add\n        /* \"#utility.yul\":4940:4987   */\n      mstore\n        /* \"#utility.yul\":5004:5135   */\n      tag_131\n        /* \"#utility.yul\":5130:5134   */\n      dup2\n        /* \"#utility.yul\":5004:5135   */\n      tag_70\n      jump\t// in\n    tag_131:\n        /* \"#utility.yul\":4996:5135   */\n      swap1\n      pop\n        /* \"#utility.yul\":4723:5142   */\n      swap2\n      swap1\n      pop\n      jump\t// out\n        /* \"#utility.yul\":5148:5328   */\n    tag_34:\n        /* \"#utility.yul\":5196:5273   */\n      0x4e487b7100000000000000000000000000000000000000000000000000000000\n        /* \"#utility.yul\":5193:5194   */\n      0x00\n        /* \"#utility.yul\":5186:5274   */\n      mstore\n        /* \"#utility.yul\":5293:5297   */\n      0x32\n        /* \"#utility.yul\":5290:5291   */\n      0x04\n        /* \"#utility.yul\":5283:5298   */\n      mstore\n        /* \"#utility.yul\":5317:5321   */\n      0x24\n        /* \"#utility.yul\":5314:5315   */\n      0x00\n        /* \"#utility.yul\":5307:5322   */\n      revert\n        /* \"#utility.yul\":5334:5561   */\n    tag_71:\n        /* \"#utility.yul\":5474:5508   */\n      0x43616e206f6e6c792063616c6c20746865207475726e4f666653776974636820\n        /* \"#utility.yul\":5470:5471   */\n      0x00\n        /* \"#utility.yul\":5462:5468   */\n      dup3\n        /* \"#utility.yul\":5458:5472   */\n      add\n        /* \"#utility.yul\":5451:5509   */\n      mstore\n        /* \"#utility.yul\":5543:5553   */\n      0x66756e6374696f6e000000000000000000000000000000000000000000000000\n        /* \"#utility.yul\":5538:5540   */\n      0x20\n        /* \"#utility.yul\":5530:5536   */\n      dup3\n        /* \"#utility.yul\":5526:5541   */\n      add\n        /* \"#utility.yul\":5519:5554   */\n      mstore\n        /* \"#utility.yul\":5334:5561   */\n      pop\n      jump\t// out\n        /* \"#utility.yul\":5567:5933   */\n    tag_72:\n        /* \"#utility.yul\":5709:5712   */\n      0x00\n        /* \"#utility.yul\":5730:5797   */\n      tag_135\n        /* \"#utility.yul\":5794:5796   */\n      0x28\n        /* \"#utility.yul\":5789:5792   */\n      dup4\n        /* \"#utility.yul\":5730:5797   */\n      tag_68\n      jump\t// in\n    tag_135:\n        /* \"#utility.yul\":5723:5797   */\n      swap2\n      pop\n        /* \"#utility.yul\":5806:5899   */\n      tag_136\n        /* \"#utility.yul\":5895:5898   */\n      dup3\n        /* \"#utility.yul\":5806:5899   */\n      tag_71\n      jump\t// in\n    tag_136:\n        /* \"#utility.yul\":5924:5926   */\n      0x40\n        /* \"#utility.yul\":5919:5922   */\n      dup3\n        /* \"#utility.yul\":5915:5927   */\n      add\n        /* \"#utility.yul\":5908:5927   */\n      swap1\n      pop\n        /* \"#utility.yul\":5567:5933   */\n      swap2\n      swap1\n      pop\n      jump\t// out\n        /* \"#utility.yul\":5939:6358   */\n    tag_37:\n        /* \"#utility.yul\":6105:6109   */\n      0x00\n        /* \"#utility.yul\":6143:6145   */\n      0x20\n        /* \"#utility.yul\":6132:6141   */\n      dup3\n        /* \"#utility.yul\":6128:6146   */\n      add\n        /* \"#utility.yul\":6120:6146   */\n      swap1\n      pop\n        /* \"#utility.yul\":6192:6201   */\n      dup2\n        /* \"#utility.yul\":6186:6190   */\n      dup2\n        /* \"#utility.yul\":6182:6202   */\n      sub\n        /* \"#utility.yul\":6178:6179   */\n      0x00\n        /* \"#utility.yul\":6167:6176   */\n      dup4\n        /* \"#utility.yul\":6163:6180   */\n      add\n        /* \"#utility.yul\":6156:6203   */\n      mstore\n        /* \"#utility.yul\":6220:6351   */\n      tag_138\n        /* \"#utility.yul\":6346:6350   */\n      dup2\n        /* \"#utility.yul\":6220:6351   */\n      tag_72\n      jump\t// in\n    tag_138:\n        /* \"#utility.yul\":6212:6351   */\n      swap1\n      pop\n        /* \"#utility.yul\":5939:6358   */\n      swap2\n      swap1\n      pop\n      jump\t// out\n        /* \"#utility.yul\":6364:6462   */\n    tag_73:\n        /* \"#utility.yul\":6415:6421   */\n      0x00\n        /* \"#utility.yul\":6449:6454   */\n      dup2\n        /* \"#utility.yul\":6443:6455   */\n      mload\n        /* \"#utility.yul\":6433:6455   */\n      swap1\n      pop\n        /* \"#utility.yul\":6364:6462   */\n      swap2\n      swap1\n      pop\n      jump\t// out\n        /* \"#utility.yul\":6468:6615   */\n    tag_74:\n        /* \"#utility.yul\":6569:6580   */\n      0x00\n        /* \"#utility.yul\":6606:6609   */\n      dup2\n        /* \"#utility.yul\":6591:6609   */\n      swap1\n      pop\n        /* \"#utility.yul\":6468:6615   */\n      swap3\n      swap2\n      pop\n      pop\n      jump\t// out\n        /* \"#utility.yul\":6621:6760   */\n    tag_75:\n        /* \"#utility.yul\":6710:6716   */\n      dup3\n        /* \"#utility.yul\":6705:6708   */\n      dup2\n        /* \"#utility.yul\":6700:6703   */\n      dup4\n        /* \"#utility.yul\":6694:6717   */\n      mcopy\n        /* \"#utility.yul\":6751:6752   */\n      0x00\n        /* \"#utility.yul\":6742:6748   */\n      dup4\n        /* \"#utility.yul\":6737:6740   */\n      dup4\n        /* \"#utility.yul\":6733:6749   */\n      add\n        /* \"#utility.yul\":6726:6753   */\n      mstore\n        /* \"#utility.yul\":6621:6760   */\n      pop\n      pop\n      pop\n      jump\t// out\n        /* \"#utility.yul\":6766:7152   */\n    tag_76:\n        /* \"#utility.yul\":6870:6873   */\n      0x00\n        /* \"#utility.yul\":6898:6936   */\n      tag_143\n        /* \"#utility.yul\":6930:6935   */\n      dup3\n        /* \"#utility.yul\":6898:6936   */\n      tag_73\n      jump\t// in\n    tag_143:\n        /* \"#utility.yul\":6952:7040   */\n      tag_144\n        /* \"#utility.yul\":7033:7039   */\n      dup2\n        /* \"#utility.yul\":7028:7031   */\n      dup6\n        /* \"#utility.yul\":6952:7040   */\n      tag_74\n      jump\t// in\n    tag_144:\n        /* \"#utility.yul\":6945:7040   */\n      swap4\n      pop\n        /* \"#utility.yul\":7049:7114   */\n      tag_145\n        /* \"#utility.yul\":7107:7113   */\n      dup2\n        /* \"#utility.yul\":7102:7105   */\n      dup6\n        /* \"#utility.yul\":7095:7099   */\n      0x20\n        /* \"#utility.yul\":7088:7093   */\n      dup7\n        /* \"#utility.yul\":7084:7100   */\n      add\n        /* \"#utility.yul\":7049:7114   */\n      tag_75\n      jump\t// in\n    tag_145:\n        /* \"#utility.yul\":7139:7145   */\n      dup1\n        /* \"#utility.yul\":7134:7137   */\n      dup5\n        /* \"#utility.yul\":7130:7146   */\n      add\n        /* \"#utility.yul\":7123:7146   */\n      swap2\n      pop\n        /* \"#utility.yul\":6874:7152   */\n      pop\n        /* \"#utility.yul\":6766:7152   */\n      swap3\n      swap2\n      pop\n      pop\n      jump\t// out\n        /* \"#utility.yul\":7158:7429   */\n    tag_40:\n        /* \"#utility.yul\":7288:7291   */\n      0x00\n        /* \"#utility.yul\":7310:7403   */\n      tag_147\n        /* \"#utility.yul\":7399:7402   */\n      dup3\n        /* \"#utility.yul\":7390:7396   */\n      dup5\n        /* \"#utility.yul\":7310:7403   */\n      tag_76\n      jump\t// in\n    tag_147:\n        /* \"#utility.yul\":7303:7403   */\n      swap2\n      pop\n        /* \"#utility.yul\":7420:7423   */\n      dup2\n        /* \"#utility.yul\":7413:7423   */\n      swap1\n      pop\n        /* \"#utility.yul\":7158:7429   */\n      swap3\n      swap2\n      pop\n      pop\n      jump\t// out\n        /* \"#utility.yul\":7435:7603   */\n    tag_77:\n        /* \"#utility.yul\":7575:7591   */\n      0x63616c6c206661696c6564203a28000000000000000000000000000000000000\n        /* \"#utility.yul\":7571:7572   */\n      0x00\n        /* \"#utility.yul\":7563:7569   */\n      dup3\n        /* \"#utility.yul\":7559:7573   */\n      add\n        /* \"#utility.yul\":7552:7592   */\n      mstore\n        /* \"#utility.yul\":7435:7603   */\n      pop\n      jump\t// out\n        /* \"#utility.yul\":7613:7995   */\n    tag_78:\n        /* \"#utility.yul\":7755:7758   */\n      0x00\n        /* \"#utility.yul\":7780:7847   */\n      tag_150\n        /* \"#utility.yul\":7844:7846   */\n      0x0e\n        /* \"#utility.yul\":7839:7842   */\n      dup4\n        /* \"#utility.yul\":7780:7847   */\n      tag_68\n      jump\t// in\n    tag_150:\n        /* \"#utility.yul\":7773:7847   */\n      swap2\n      pop\n        /* \"#utility.yul\":7860:7953   */\n      tag_151\n        /* \"#utility.yul\":7949:7952   */\n      dup3\n        /* \"#utility.yul\":7860:7953   */\n      tag_77\n      jump\t// in\n    tag_151:\n        /* \"#utility.yul\":7982:7984   */\n      0x20\n        /* \"#utility.yul\":7977:7980   */\n      dup3\n        /* \"#utility.yul\":7973:7985   */\n      add\n        /* \"#utility.yul\":7966:7985   */\n      swap1\n      pop\n        /* \"#utility.yul\":7613:7995   */\n      swap2\n      swap1\n      pop\n      jump\t// out\n        /* \"#utility.yul\":8005:8440   */\n    tag_46:\n        /* \"#utility.yul\":8171:8175   */\n      0x00\n        /* \"#utility.yul\":8213:8215   */\n      0x20\n        /* \"#utility.yul\":8202:8211   */\n      dup3\n        /* \"#utility.yul\":8198:8216   */\n      add\n        /* \"#utility.yul\":8190:8216   */\n      swap1\n      pop\n        /* \"#utility.yul\":8266:8275   */\n      dup2\n        /* \"#utility.yul\":8260:8264   */\n      dup2\n        /* \"#utility.yul\":8256:8276   */\n      sub\n        /* \"#utility.yul\":8252:8253   */\n      0x00\n        /* \"#utility.yul\":8241:8250   */\n      dup4\n        /* \"#utility.yul\":8237:8254   */\n      add\n        /* \"#utility.yul\":8230:8277   */\n      mstore\n        /* \"#utility.yul\":8298:8429   */\n      tag_153\n        /* \"#utility.yul\":8424:8428   */\n      dup2\n        /* \"#utility.yul\":8298:8429   */\n      tag_78\n      jump\t// in\n    tag_153:\n        /* \"#utility.yul\":8290:8429   */\n      swap1\n      pop\n        /* \"#utility.yul\":8005:8440   */\n      swap2\n      swap1\n      pop\n      jump\t// out\n\n    auxdata: 0xa2646970667358221220b459e65c0568016bd5c04e5740a61de9864e6463cc79a1b839b8b7a3664aa09164736f6c634300081a0033\n}\n",
				"bytecode": {
					"linkReferences": {},
					"object": "60806040527f20606e15b70f0894e0e83ae9593ae406a94abb5adcfcf0d169c6784f02198dc35f60016101000a81548163ffffffff021916908360e01c0217905550348015604b575f80fd5b506107ae806100595f395ff3fe608060405234801561000f575f80fd5b5060043610610055575f3560e01c806320606e151461005957806330c13ade146100635780635a2cfa661461007f57806376227e121461009d578063f9f8f895146100a7575b5f80fd5b6100616100c5565b005b61007d600480360381019061007891906104a8565b61014d565b005b61008761028e565b6040516100949190610529565b60405180910390f35b6100a56102a0565b005b6100af610329565b6040516100bc919061055c565b60405180910390f35b3073ffffffffffffffffffffffffffffffffffffffff163373ffffffffffffffffffffffffffffffffffffffff1614610133576040517f08c379a000000000000000000000000000000000000000000000000000000000815260040161012a906105cf565b60405180910390fd5b5f805f6101000a81548160ff021916908315150217905550565b610155610339565b6004604482375f60019054906101000a900460e01b7bffffffffffffffffffffffffffffffffffffffffffffffffffffffff1916815f6001811061019c5761019b6105ed565b5b6020020151146101e1576040517f08c379a00000000000000000000000000000000000000000000000000000000081526004016101d89061068a565b60405180910390fd5b5f3073ffffffffffffffffffffffffffffffffffffffff168360405161020791906106fa565b5f604051808303815f865af19150503d805f8114610240576040519150601f19603f3d011682016040523d82523d5f602084013e610245565b606091505b5050905080610289576040517f08c379a00000000000000000000000000000000000000000000000000000000081526004016102809061075a565b60405180910390fd5b505050565b5f60019054906101000a900460e01b81565b3073ffffffffffffffffffffffffffffffffffffffff163373ffffffffffffffffffffffffffffffffffffffff161461030e576040517f08c379a0000000000000000000000000000000000000000000000000000000008152600401610305906105cf565b60405180910390fd5b60015f806101000a81548160ff021916908315150217905550565b5f8054906101000a900460ff1681565b6040518060200160405280600190602082028036833780820191505090505090565b5f604051905090565b5f80fd5b5f80fd5b5f80fd5b5f80fd5b5f601f19601f8301169050919050565b7f4e487b71000000000000000000000000000000000000000000000000000000005f52604160045260245ffd5b6103ba82610374565b810181811067ffffffffffffffff821117156103d9576103d8610384565b5b80604052505050565b5f6103eb61035b565b90506103f782826103b1565b919050565b5f67ffffffffffffffff82111561041657610415610384565b5b61041f82610374565b9050602081019050919050565b828183375f83830152505050565b5f61044c610447846103fc565b6103e2565b90508281526020810184848401111561046857610467610370565b5b61047384828561042c565b509392505050565b5f82601f83011261048f5761048e61036c565b5b813561049f84826020860161043a565b91505092915050565b5f602082840312156104bd576104bc610364565b5b5f82013567ffffffffffffffff8111156104da576104d9610368565b5b6104e68482850161047b565b91505092915050565b5f7fffffffff0000000000000000000000000000000000000000000000000000000082169050919050565b610523816104ef565b82525050565b5f60208201905061053c5f83018461051a565b92915050565b5f8115159050919050565b61055681610542565b82525050565b5f60208201905061056f5f83018461054d565b92915050565b5f82825260208201905092915050565b7f4f6e6c792074686520636f6e74726163742063616e2063616c6c2074686973005f82015250565b5f6105b9601f83610575565b91506105c482610585565b602082019050919050565b5f6020820190508181035f8301526105e6816105ad565b9050919050565b7f4e487b71000000000000000000000000000000000000000000000000000000005f52603260045260245ffd5b7f43616e206f6e6c792063616c6c20746865207475726e4f6666537769746368205f8201527f66756e6374696f6e000000000000000000000000000000000000000000000000602082015250565b5f610674602883610575565b915061067f8261061a565b604082019050919050565b5f6020820190508181035f8301526106a181610668565b9050919050565b5f81519050919050565b5f81905092915050565b8281835e5f83830152505050565b5f6106d4826106a8565b6106de81856106b2565b93506106ee8185602086016106bc565b80840191505092915050565b5f61070582846106ca565b915081905092915050565b7f63616c6c206661696c6564203a280000000000000000000000000000000000005f82015250565b5f610744600e83610575565b915061074f82610710565b602082019050919050565b5f6020820190508181035f83015261077181610738565b905091905056fea2646970667358221220b459e65c0568016bd5c04e5740a61de9864e6463cc79a1b839b8b7a3664aa09164736f6c634300081a0033",
					"opcodes": "PUSH1 0x80 PUSH1 0x40 MSTORE PUSH32 0x20606E15B70F0894E0E83AE9593AE406A94ABB5ADCFCF0D169C6784F02198DC3 PUSH0 PUSH1 0x1 PUSH2 0x100 EXP DUP2 SLOAD DUP2 PUSH4 0xFFFFFFFF MUL NOT AND SWAP1 DUP4 PUSH1 0xE0 SHR MUL OR SWAP1 SSTORE POP CALLVALUE DUP1 ISZERO PUSH1 0x4B JUMPI PUSH0 DUP1 REVERT JUMPDEST POP PUSH2 0x7AE DUP1 PUSH2 0x59 PUSH0 CODECOPY PUSH0 RETURN INVALID PUSH1 0x80 PUSH1 0x40 MSTORE CALLVALUE DUP1 ISZERO PUSH2 0xF JUMPI PUSH0 DUP1 REVERT JUMPDEST POP PUSH1 0x4 CALLDATASIZE LT PUSH2 0x55 JUMPI PUSH0 CALLDATALOAD PUSH1 0xE0 SHR DUP1 PUSH4 0x20606E15 EQ PUSH2 0x59 JUMPI DUP1 PUSH4 0x30C13ADE EQ PUSH2 0x63 JUMPI DUP1 PUSH4 0x5A2CFA66 EQ PUSH2 0x7F JUMPI DUP1 PUSH4 0x76227E12 EQ PUSH2 0x9D JUMPI DUP1 PUSH4 0xF9F8F895 EQ PUSH2 0xA7 JUMPI JUMPDEST PUSH0 DUP1 REVERT JUMPDEST PUSH2 0x61 PUSH2 0xC5 JUMP JUMPDEST STOP JUMPDEST PUSH2 0x7D PUSH1 0x4 DUP1 CALLDATASIZE SUB DUP2 ADD SWAP1 PUSH2 0x78 SWAP2 SWAP1 PUSH2 0x4A8 JUMP JUMPDEST PUSH2 0x14D JUMP JUMPDEST STOP JUMPDEST PUSH2 0x87 PUSH2 0x28E JUMP JUMPDEST PUSH1 0x40 MLOAD PUSH2 0x94 SWAP2 SWAP1 PUSH2 0x529 JUMP JUMPDEST PUSH1 0x40 MLOAD DUP1 SWAP2 SUB SWAP1 RETURN JUMPDEST PUSH2 0xA5 PUSH2 0x2A0 JUMP JUMPDEST STOP JUMPDEST PUSH2 0xAF PUSH2 0x329 JUMP JUMPDEST PUSH1 0x40 MLOAD PUSH2 0xBC SWAP2 SWAP1 PUSH2 0x55C JUMP JUMPDEST PUSH1 0x40 MLOAD DUP1 SWAP2 SUB SWAP1 RETURN JUMPDEST ADDRESS PUSH20 0xFFFFFFFFFFFFFFFFFFFFFFFFFFFFFFFFFFFFFFFF AND CALLER PUSH20 0xFFFFFFFFFFFFFFFFFFFFFFFFFFFFFFFFFFFFFFFF AND EQ PUSH2 0x133 JUMPI PUSH1 0x40 MLOAD PUSH32 0x8C379A000000000000000000000000000000000000000000000000000000000 DUP2 MSTORE PUSH1 0x4 ADD PUSH2 0x12A SWAP1 PUSH2 0x5CF JUMP JUMPDEST PUSH1 0x40 MLOAD DUP1 SWAP2 SUB SWAP1 REVERT JUMPDEST PUSH0 DUP1 PUSH0 PUSH2 0x100 EXP DUP2 SLOAD DUP2 PUSH1 0xFF MUL NOT AND SWAP1 DUP4 ISZERO ISZERO MUL OR SWAP1 SSTORE POP JUMP JUMPDEST PUSH2 0x155 PUSH2 0x339 JUMP JUMPDEST PUSH1 0x4 PUSH1 0x44 DUP3 CALLDATACOPY PUSH0 PUSH1 0x1 SWAP1 SLOAD SWAP1 PUSH2 0x100 EXP SWAP1 DIV PUSH1 0xE0 SHL PUSH28 0xFFFFFFFFFFFFFFFFFFFFFFFFFFFFFFFFFFFFFFFFFFFFFFFFFFFFFFFF NOT AND DUP2 PUSH0 PUSH1 0x1 DUP2 LT PUSH2 0x19C JUMPI PUSH2 0x19B PUSH2 0x5ED JUMP JUMPDEST JUMPDEST PUSH1 0x20 MUL ADD MLOAD EQ PUSH2 0x1E1 JUMPI PUSH1 0x40 MLOAD PUSH32 0x8C379A000000000000000000000000000000000000000000000000000000000 DUP2 MSTORE PUSH1 0x4 ADD PUSH2 0x1D8 SWAP1 PUSH2 0x68A JUMP JUMPDEST PUSH1 0x40 MLOAD DUP1 SWAP2 SUB SWAP1 REVERT JUMPDEST PUSH0 ADDRESS PUSH20 0xFFFFFFFFFFFFFFFFFFFFFFFFFFFFFFFFFFFFFFFF AND DUP4 PUSH1 0x40 MLOAD PUSH2 0x207 SWAP2 SWAP1 PUSH2 0x6FA JUMP JUMPDEST PUSH0 PUSH1 0x40 MLOAD DUP1 DUP4 SUB DUP2 PUSH0 DUP7 GAS CALL SWAP2 POP POP RETURNDATASIZE DUP1 PUSH0 DUP2 EQ PUSH2 0x240 JUMPI PUSH1 0x40 MLOAD SWAP2 POP PUSH1 0x1F NOT PUSH1 0x3F RETURNDATASIZE ADD AND DUP3 ADD PUSH1 0x40 MSTORE RETURNDATASIZE DUP3 MSTORE RETURNDATASIZE PUSH0 PUSH1 0x20 DUP5 ADD RETURNDATACOPY PUSH2 0x245 JUMP JUMPDEST PUSH1 0x60 SWAP2 POP JUMPDEST POP POP SWAP1 POP DUP1 PUSH2 0x289 JUMPI PUSH1 0x40 MLOAD PUSH32 0x8C379A000000000000000000000000000000000000000000000000000000000 DUP2 MSTORE PUSH1 0x4 ADD PUSH2 0x280 SWAP1 PUSH2 0x75A JUMP JUMPDEST PUSH1 0x40 MLOAD DUP1 SWAP2 SUB SWAP1 REVERT JUMPDEST POP POP POP JUMP JUMPDEST PUSH0 PUSH1 0x1 SWAP1 SLOAD SWAP1 PUSH2 0x100 EXP SWAP1 DIV PUSH1 0xE0 SHL DUP2 JUMP JUMPDEST ADDRESS PUSH20 0xFFFFFFFFFFFFFFFFFFFFFFFFFFFFFFFFFFFFFFFF AND CALLER PUSH20 0xFFFFFFFFFFFFFFFFFFFFFFFFFFFFFFFFFFFFFFFF AND EQ PUSH2 0x30E JUMPI PUSH1 0x40 MLOAD PUSH32 0x8C379A000000000000000000000000000000000000000000000000000000000 DUP2 MSTORE PUSH1 0x4 ADD PUSH2 0x305 SWAP1 PUSH2 0x5CF JUMP JUMPDEST PUSH1 0x40 MLOAD DUP1 SWAP2 SUB SWAP1 REVERT JUMPDEST PUSH1 0x1 PUSH0 DUP1 PUSH2 0x100 EXP DUP2 SLOAD DUP2 PUSH1 0xFF MUL NOT AND SWAP1 DUP4 ISZERO ISZERO MUL OR SWAP1 SSTORE POP JUMP JUMPDEST PUSH0 DUP1 SLOAD SWAP1 PUSH2 0x100 EXP SWAP1 DIV PUSH1 0xFF AND DUP2 JUMP JUMPDEST PUSH1 0x40 MLOAD DUP1 PUSH1 0x20 ADD PUSH1 0x40 MSTORE DUP1 PUSH1 0x1 SWAP1 PUSH1 0x20 DUP3 MUL DUP1 CALLDATASIZE DUP4 CALLDATACOPY DUP1 DUP3 ADD SWAP2 POP POP SWAP1 POP POP SWAP1 JUMP JUMPDEST PUSH0 PUSH1 0x40 MLOAD SWAP1 POP SWAP1 JUMP JUMPDEST PUSH0 DUP1 REVERT JUMPDEST PUSH0 DUP1 REVERT JUMPDEST PUSH0 DUP1 REVERT JUMPDEST PUSH0 DUP1 REVERT JUMPDEST PUSH0 PUSH1 0x1F NOT PUSH1 0x1F DUP4 ADD AND SWAP1 POP SWAP2 SWAP1 POP JUMP JUMPDEST PUSH32 0x4E487B7100000000000000000000000000000000000000000000000000000000 PUSH0 MSTORE PUSH1 0x41 PUSH1 0x4 MSTORE PUSH1 0x24 PUSH0 REVERT JUMPDEST PUSH2 0x3BA DUP3 PUSH2 0x374 JUMP JUMPDEST DUP2 ADD DUP2 DUP2 LT PUSH8 0xFFFFFFFFFFFFFFFF DUP3 GT OR ISZERO PUSH2 0x3D9 JUMPI PUSH2 0x3D8 PUSH2 0x384 JUMP JUMPDEST JUMPDEST DUP1 PUSH1 0x40 MSTORE POP POP POP JUMP JUMPDEST PUSH0 PUSH2 0x3EB PUSH2 0x35B JUMP JUMPDEST SWAP1 POP PUSH2 0x3F7 DUP3 DUP3 PUSH2 0x3B1 JUMP JUMPDEST SWAP2 SWAP1 POP JUMP JUMPDEST PUSH0 PUSH8 0xFFFFFFFFFFFFFFFF DUP3 GT ISZERO PUSH2 0x416 JUMPI PUSH2 0x415 PUSH2 0x384 JUMP JUMPDEST JUMPDEST PUSH2 0x41F DUP3 PUSH2 0x374 JUMP JUMPDEST SWAP1 POP PUSH1 0x20 DUP2 ADD SWAP1 POP SWAP2 SWAP1 POP JUMP JUMPDEST DUP3 DUP2 DUP4 CALLDATACOPY PUSH0 DUP4 DUP4 ADD MSTORE POP POP POP JUMP JUMPDEST PUSH0 PUSH2 0x44C PUSH2 0x447 DUP5 PUSH2 0x3FC JUMP JUMPDEST PUSH2 0x3E2 JUMP JUMPDEST SWAP1 POP DUP3 DUP2 MSTORE PUSH1 0x20 DUP2 ADD DUP5 DUP5 DUP5 ADD GT ISZERO PUSH2 0x468 JUMPI PUSH2 0x467 PUSH2 0x370 JUMP JUMPDEST JUMPDEST PUSH2 0x473 DUP5 DUP3 DUP6 PUSH2 0x42C JUMP JUMPDEST POP SWAP4 SWAP3 POP POP POP JUMP JUMPDEST PUSH0 DUP3 PUSH1 0x1F DUP4 ADD SLT PUSH2 0x48F JUMPI PUSH2 0x48E PUSH2 0x36C JUMP JUMPDEST JUMPDEST DUP2 CALLDATALOAD PUSH2 0x49F DUP5 DUP3 PUSH1 0x20 DUP7 ADD PUSH2 0x43A JUMP JUMPDEST SWAP2 POP POP SWAP3 SWAP2 POP POP JUMP JUMPDEST PUSH0 PUSH1 0x20 DUP3 DUP5 SUB SLT ISZERO PUSH2 0x4BD JUMPI PUSH2 0x4BC PUSH2 0x364 JUMP JUMPDEST JUMPDEST PUSH0 DUP3 ADD CALLDATALOAD PUSH8 0xFFFFFFFFFFFFFFFF DUP2 GT ISZERO PUSH2 0x4DA JUMPI PUSH2 0x4D9 PUSH2 0x368 JUMP JUMPDEST JUMPDEST PUSH2 0x4E6 DUP5 DUP3 DUP6 ADD PUSH2 0x47B JUMP JUMPDEST SWAP2 POP POP SWAP3 SWAP2 POP POP JUMP JUMPDEST PUSH0 PUSH32 0xFFFFFFFF00000000000000000000000000000000000000000000000000000000 DUP3 AND SWAP1 POP SWAP2 SWAP1 POP JUMP JUMPDEST PUSH2 0x523 DUP2 PUSH2 0x4EF JUMP JUMPDEST DUP3 MSTORE POP POP JUMP JUMPDEST PUSH0 PUSH1 0x20 DUP3 ADD SWAP1 POP PUSH2 0x53C PUSH0 DUP4 ADD DUP5 PUSH2 0x51A JUMP JUMPDEST SWAP3 SWAP2 POP POP JUMP JUMPDEST PUSH0 DUP2 ISZERO ISZERO SWAP1 POP SWAP2 SWAP1 POP JUMP JUMPDEST PUSH2 0x556 DUP2 PUSH2 0x542 JUMP JUMPDEST DUP3 MSTORE POP POP JUMP JUMPDEST PUSH0 PUSH1 0x20 DUP3 ADD SWAP1 POP PUSH2 0x56F PUSH0 DUP4 ADD DUP5 PUSH2 0x54D JUMP JUMPDEST SWAP3 SWAP2 POP POP JUMP JUMPDEST PUSH0 DUP3 DUP3 MSTORE PUSH1 0x20 DUP3 ADD SWAP1 POP SWAP3 SWAP2 POP POP JUMP JUMPDEST PUSH32 0x4F6E6C792074686520636F6E74726163742063616E2063616C6C207468697300 PUSH0 DUP3 ADD MSTORE POP JUMP JUMPDEST PUSH0 PUSH2 0x5B9 PUSH1 0x1F DUP4 PUSH2 0x575 JUMP JUMPDEST SWAP2 POP PUSH2 0x5C4 DUP3 PUSH2 0x585 JUMP JUMPDEST PUSH1 0x20 DUP3 ADD SWAP1 POP SWAP2 SWAP1 POP JUMP JUMPDEST PUSH0 PUSH1 0x20 DUP3 ADD SWAP1 POP DUP2 DUP2 SUB PUSH0 DUP4 ADD MSTORE PUSH2 0x5E6 DUP2 PUSH2 0x5AD JUMP JUMPDEST SWAP1 POP SWAP2 SWAP1 POP JUMP JUMPDEST PUSH32 0x4E487B7100000000000000000000000000000000000000000000000000000000 PUSH0 MSTORE PUSH1 0x32 PUSH1 0x4 MSTORE PUSH1 0x24 PUSH0 REVERT JUMPDEST PUSH32 0x43616E206F6E6C792063616C6C20746865207475726E4F666653776974636820 PUSH0 DUP3 ADD MSTORE PUSH32 0x66756E6374696F6E000000000000000000000000000000000000000000000000 PUSH1 0x20 DUP3 ADD MSTORE POP JUMP JUMPDEST PUSH0 PUSH2 0x674 PUSH1 0x28 DUP4 PUSH2 0x575 JUMP JUMPDEST SWAP2 POP PUSH2 0x67F DUP3 PUSH2 0x61A JUMP JUMPDEST PUSH1 0x40 DUP3 ADD SWAP1 POP SWAP2 SWAP1 POP JUMP JUMPDEST PUSH0 PUSH1 0x20 DUP3 ADD SWAP1 POP DUP2 DUP2 SUB PUSH0 DUP4 ADD MSTORE PUSH2 0x6A1 DUP2 PUSH2 0x668 JUMP JUMPDEST SWAP1 POP SWAP2 SWAP1 POP JUMP JUMPDEST PUSH0 DUP2 MLOAD SWAP1 POP SWAP2 SWAP1 POP JUMP JUMPDEST PUSH0 DUP2 SWAP1 POP SWAP3 SWAP2 POP POP JUMP JUMPDEST DUP3 DUP2 DUP4 MCOPY PUSH0 DUP4 DUP4 ADD MSTORE POP POP POP JUMP JUMPDEST PUSH0 PUSH2 0x6D4 DUP3 PUSH2 0x6A8 JUMP JUMPDEST PUSH2 0x6DE DUP2 DUP6 PUSH2 0x6B2 JUMP JUMPDEST SWAP4 POP PUSH2 0x6EE DUP2 DUP6 PUSH1 0x20 DUP7 ADD PUSH2 0x6BC JUMP JUMPDEST DUP1 DUP5 ADD SWAP2 POP POP SWAP3 SWAP2 POP POP JUMP JUMPDEST PUSH0 PUSH2 0x705 DUP3 DUP5 PUSH2 0x6CA JUMP JUMPDEST SWAP2 POP DUP2 SWAP1 POP SWAP3 SWAP2 POP POP JUMP JUMPDEST PUSH32 0x63616C6C206661696C6564203A28000000000000000000000000000000000000 PUSH0 DUP3 ADD MSTORE POP JUMP JUMPDEST PUSH0 PUSH2 0x744 PUSH1 0xE DUP4 PUSH2 0x575 JUMP JUMPDEST SWAP2 POP PUSH2 0x74F DUP3 PUSH2 0x710 JUMP JUMPDEST PUSH1 0x20 DUP3 ADD SWAP1 POP SWAP2 SWAP1 POP JUMP JUMPDEST PUSH0 PUSH1 0x20 DUP3 ADD SWAP1 POP DUP2 DUP2 SUB PUSH0 DUP4 ADD MSTORE PUSH2 0x771 DUP2 PUSH2 0x738 JUMP JUMPDEST SWAP1 POP SWAP2 SWAP1 POP JUMP INVALID LOG2 PUSH5 0x6970667358 0x22 SLT KECCAK256 0xB4 MSIZE 0xE6 TLOAD SDIV PUSH9 0x16BD5C04E5740A61D 0xE9 DUP7 0x4E PUSH5 0x63CC79A1B8 CODECOPY 0xB8 0xB7 LOG3 PUSH7 0x4AA09164736F6C PUSH4 0x4300081A STOP CALLER "
				},
				"gasEstimates": {
					"creation": {
						"codeDepositCost": "393200",
						"executionCost": "24744",
						"totalCost": "417944"
					},
					"external": {
						"flipSwitch(bytes)": "infinite",
						"offSelector()": "2538",
						"switchOn()": "2529",
						"turnSwitchOff()": "24419",
						"turnSwitchOn()": "24486"
					}
				},
				"methodIdentifiers": {
					"flipSwitch(bytes)": "30c13ade",
					"offSelector()": "5a2cfa66",
					"switchOn()": "f9f8f895",
					"turnSwitchOff()": "20606e15",
					"turnSwitchOn()": "76227e12"
				}
			},
			"storageLayout": {
				"storage": [
					{
						"astId": 3,
						"contract": "src/level29.sol:Switch",
						"label": "switchOn",
						"offset": 0,
						"slot": "0",
						"type": "t_bool"
					},
					{
						"astId": 11,
						"contract": "src/level29.sol:Switch",
						"label": "offSelector",
						"offset": 1,
						"slot": "0",
						"type": "t_bytes4"
					}
				],
				"types": {
					"t_bool": {
						"encoding": "inplace",
						"label": "bool",
						"numberOfBytes": "1"
					},
					"t_bytes4": {
						"encoding": "inplace",
						"label": "bytes4",
						"numberOfBytes": "4"
					}
				}
			},
			"userdoc": {
				"kind": "user",
				"methods": {},
				"version": 1
			}
		}
	}
}