{
	"src/level16.sol": {
		"LibraryContract": {
			"abi": [
				{
					"inputs": [
						{
							"internalType": "uint256",
							"name": "_time",
							"type": "uint256"
						}
					],
					"name": "setTime",
					"outputs": [],
					"stateMutability": "nonpayable",
					"type": "function"
				}
			],
			"devdoc": {
				"kind": "dev",
				"methods": {},
				"version": 1
			},
			"evm": {
				"assembly": "    /* \"src/level16.sol\":1729:1887  contract LibraryContract {... */\n  mstore(0x40, 0x80)\n  callvalue\n  dup1\n  iszero\n  tag_1\n  jumpi\n  0x00\n  dup1\n  revert\ntag_1:\n  pop\n  dataSize(sub_0)\n  dup1\n  dataOffset(sub_0)\n  0x00\n  codecopy\n  0x00\n  return\nstop\n\nsub_0: assembly {\n        /* \"src/level16.sol\":1729:1887  contract LibraryContract {... */\n      mstore(0x40, 0x80)\n      callvalue\n      dup1\n      iszero\n      tag_1\n      jumpi\n      0x00\n      dup1\n      revert\n    tag_1:\n      pop\n      jumpi(tag_2, lt(calldatasize, 0x04))\n      shr(0xe0, calldataload(0x00))\n      dup1\n      0x3beb26c4\n      eq\n      tag_3\n      jumpi\n    tag_2:\n      0x00\n      dup1\n      revert\n        /* \"src/level16.sol\":1811:1885  function setTime(uint256 _time) public {... */\n    tag_3:\n      tag_4\n      0x04\n      dup1\n      calldatasize\n      sub\n      dup2\n      add\n      swap1\n      tag_5\n      swap2\n      swap1\n      tag_6\n      jump\t// in\n    tag_5:\n      tag_7\n      jump\t// in\n    tag_4:\n      stop\n    tag_7:\n        /* \"src/level16.sol\":1873:1878  _time */\n      dup1\n        /* \"src/level16.sol\":1860:1870  storedTime */\n      0x00\n        /* \"src/level16.sol\":1860:1878  storedTime = _time */\n      dup2\n      swap1\n      sstore\n      pop\n        /* \"src/level16.sol\":1811:1885  function setTime(uint256 _time) public {... */\n      pop\n      jump\t// out\n        /* \"#utility.yul\":88:205   */\n    tag_10:\n        /* \"#utility.yul\":197:198   */\n      0x00\n        /* \"#utility.yul\":194:195   */\n      dup1\n        /* \"#utility.yul\":187:199   */\n      revert\n        /* \"#utility.yul\":334:411   */\n    tag_12:\n        /* \"#utility.yul\":371:378   */\n      0x00\n        /* \"#utility.yul\":400:405   */\n      dup2\n        /* \"#utility.yul\":389:405   */\n      swap1\n      pop\n        /* \"#utility.yul\":334:411   */\n      swap2\n      swap1\n      pop\n      jump\t// out\n        /* \"#utility.yul\":417:539   */\n    tag_13:\n        /* \"#utility.yul\":490:514   */\n      tag_21\n        /* \"#utility.yul\":508:513   */\n      dup2\n        /* \"#utility.yul\":490:514   */\n      tag_12\n      jump\t// in\n    tag_21:\n        /* \"#utility.yul\":483:488   */\n      dup2\n        /* \"#utility.yul\":480:515   */\n      eq\n        /* \"#utility.yul\":470:533   */\n      tag_22\n      jumpi\n        /* \"#utility.yul\":529:530   */\n      0x00\n        /* \"#utility.yul\":526:527   */\n      dup1\n        /* \"#utility.yul\":519:531   */\n      revert\n        /* \"#utility.yul\":470:533   */\n    tag_22:\n        /* \"#utility.yul\":417:539   */\n      pop\n      jump\t// out\n        /* \"#utility.yul\":545:684   */\n    tag_14:\n        /* \"#utility.yul\":591:596   */\n      0x00\n        /* \"#utility.yul\":629:635   */\n      dup2\n        /* \"#utility.yul\":616:636   */\n      calldataload\n        /* \"#utility.yul\":607:636   */\n      swap1\n      pop\n        /* \"#utility.yul\":645:678   */\n      tag_24\n        /* \"#utility.yul\":672:677   */\n      dup2\n        /* \"#utility.yul\":645:678   */\n      tag_13\n      jump\t// in\n    tag_24:\n        /* \"#utility.yul\":545:684   */\n      swap3\n      swap2\n      pop\n      pop\n      jump\t// out\n        /* \"#utility.yul\":690:1019   */\n    tag_6:\n        /* \"#utility.yul\":749:755   */\n      0x00\n        /* \"#utility.yul\":798:800   */\n      0x20\n        /* \"#utility.yul\":786:795   */\n      dup3\n        /* \"#utility.yul\":777:784   */\n      dup5\n        /* \"#utility.yul\":773:796   */\n      sub\n        /* \"#utility.yul\":769:801   */\n      slt\n        /* \"#utility.yul\":766:885   */\n      iszero\n      tag_26\n      jumpi\n        /* \"#utility.yul\":804:883   */\n      tag_27\n      tag_10\n      jump\t// in\n    tag_27:\n        /* \"#utility.yul\":766:885   */\n    tag_26:\n        /* \"#utility.yul\":924:925   */\n      0x00\n        /* \"#utility.yul\":949:1002   */\n      tag_28\n        /* \"#utility.yul\":994:1001   */\n      dup5\n        /* \"#utility.yul\":985:991   */\n      dup3\n        /* \"#utility.yul\":974:983   */\n      dup6\n        /* \"#utility.yul\":970:992   */\n      add\n        /* \"#utility.yul\":949:1002   */\n      tag_14\n      jump\t// in\n    tag_28:\n        /* \"#utility.yul\":939:1002   */\n      swap2\n      pop\n        /* \"#utility.yul\":895:1012   */\n      pop\n        /* \"#utility.yul\":690:1019   */\n      swap3\n      swap2\n      pop\n      pop\n      jump\t// out\n\n    auxdata: 0xa26469706673582212208ead2469d51fd0f1b2ed802559c607d3e248baad6cb57fba16a3cce8116b535b64736f6c634300081a0033\n}\n",
				"bytecode": {
					"linkReferences": {},
					"object": "6080604052348015600e575f80fd5b5060d980601a5f395ff3fe6080604052348015600e575f80fd5b50600436106026575f3560e01c80633beb26c414602a575b5f80fd5b60406004803603810190603c9190607d565b6042565b005b805f8190555050565b5f80fd5b5f819050919050565b605f81604f565b81146068575f80fd5b50565b5f813590506077816058565b92915050565b5f60208284031215608f57608e604b565b5b5f609a84828501606b565b9150509291505056fea26469706673582212208ead2469d51fd0f1b2ed802559c607d3e248baad6cb57fba16a3cce8116b535b64736f6c634300081a0033",
					"opcodes": "PUSH1 0x80 PUSH1 0x40 MSTORE CALLVALUE DUP1 ISZERO PUSH1 0xE JUMPI PUSH0 DUP1 REVERT JUMPDEST POP PUSH1 0xD9 DUP1 PUSH1 0x1A PUSH0 CODECOPY PUSH0 RETURN INVALID PUSH1 0x80 PUSH1 0x40 MSTORE CALLVALUE DUP1 ISZERO PUSH1 0xE JUMPI PUSH0 DUP1 REVERT JUMPDEST POP PUSH1 0x4 CALLDATASIZE LT PUSH1 0x26 JUMPI PUSH0 CALLDATALOAD PUSH1 0xE0 SHR DUP1 PUSH4 0x3BEB26C4 EQ PUSH1 0x2A JUMPI JUMPDEST PUSH0 DUP1 REVERT JUMPDEST PUSH1 0x40 PUSH1 0x4 DUP1 CALLDATASIZE SUB DUP2 ADD SWAP1 PUSH1 0x3C SWAP2 SWAP1 PUSH1 0x7D JUMP JUMPDEST PUSH1 0x42 JUMP JUMPDEST STOP JUMPDEST DUP1 PUSH0 DUP2 SWAP1 SSTORE POP POP JUMP JUMPDEST PUSH0 DUP1 REVERT JUMPDEST PUSH0 DUP2 SWAP1 POP SWAP2 SWAP1 POP JUMP JUMPDEST PUSH1 0x5F DUP2 PUSH1 0x4F JUMP JUMPDEST DUP2 EQ PUSH1 0x68 JUMPI PUSH0 DUP1 REVERT JUMPDEST POP JUMP JUMPDEST PUSH0 DUP2 CALLDATALOAD SWAP1 POP PUSH1 0x77 DUP2 PUSH1 0x58 JUMP JUMPDEST SWAP3 SWAP2 POP POP JUMP JUMPDEST PUSH0 PUSH1 0x20 DUP3 DUP5 SUB SLT ISZERO PUSH1 0x8F JUMPI PUSH1 0x8E PUSH1 0x4B JUMP JUMPDEST JUMPDEST PUSH0 PUSH1 0x9A DUP5 DUP3 DUP6 ADD PUSH1 0x6B JUMP JUMPDEST SWAP2 POP POP SWAP3 SWAP2 POP POP JUMP INVALID LOG2 PUSH5 0x6970667358 0x22 SLT KECCAK256 DUP15 0xAD 0x24 PUSH10 0xD51FD0F1B2ED802559C6 SMOD 0xD3 0xE2 BASEFEE 0xBA 0xAD PUSH13 0xB57FBA16A3CCE8116B535B6473 PUSH16 0x6C634300081A00330000000000000000 "
				},
				"gasEstimates": {
					"creation": {
						"codeDepositCost": "43400",
						"executionCost": "91",
						"totalCost": "43491"
					},
					"external": {
						"setTime(uint256)": "22492"
					}
				},
				"methodIdentifiers": {
					"setTime(uint256)": "3beb26c4"
				}
			},
			"storageLayout": {
				"storage": [
					{
						"astId": 73,
						"contract": "src/level16.sol:LibraryContract",
						"label": "storedTime",
						"offset": 0,
						"slot": "0",
						"type": "t_uint256"
					}
				],
				"types": {
					"t_uint256": {
						"encoding": "inplace",
						"label": "uint256",
						"numberOfBytes": "32"
					}
				}
			},
			"userdoc": {
				"kind": "user",
				"methods": {},
				"version": 1
			}
		}
	}
}