{
	"src/level12.sol": {
		"Privacy": {
			"abi": [
				{
					"inputs": [
						{
							"internalType": "bytes32[3]",
							"name": "_data",
							"type": "bytes32[3]"
						}
					],
					"stateMutability": "nonpayable",
					"type": "constructor"
				},
				{
					"inputs": [],
					"name": "ID",
					"outputs": [
						{
							"internalType": "uint256",
							"name": "",
							"type": "uint256"
						}
					],
					"stateMutability": "view",
					"type": "function"
				},
				{
					"inputs": [],
					"name": "locked",
					"outputs": [
						{
							"internalType": "bool",
							"name": "",
							"type": "bool"
						}
					],
					"stateMutability": "view",
					"type": "function"
				},
				{
					"inputs": [
						{
							"internalType": "bytes16",
							"name": "_key",
							"type": "bytes16"
						}
					],
					"name": "unlock",
					"outputs": [],
					"stateMutability": "nonpayable",
					"type": "function"
				}
			],
			"devdoc": {
				"kind": "dev",
				"methods": {},
				"version": 1
			},
			"evm": {
				"assembly": "    /* \"src/level12.sol\":57:879  contract Privacy {... */\n  mstore(0x40, 0x80)\n    /* \"src/level12.sol\":101:105  true */\n  0x01\n    /* \"src/level12.sol\":80:105  bool public locked = true */\n  0x00\n  dup1\n  0x0100\n  exp\n  dup2\n  sload\n  dup2\n  0xff\n  mul\n  not\n  and\n  swap1\n  dup4\n  iszero\n  iszero\n  mul\n  or\n  swap1\n  sstore\n  pop\n    /* \"src/level12.sol\":131:146  block.timestamp */\n  timestamp\n    /* \"src/level12.sol\":111:146  uint256 public ID = block.timestamp */\n  0x01\n  sstore\n    /* \"src/level12.sol\":179:181  10 */\n  0x0a\n    /* \"src/level12.sol\":152:181  uint8 private flattening = 10 */\n  0x02\n  exp(0x0100, 0x00)\n  dup2\n  sload\n  dup2\n  0xff\n  mul\n  not\n  and\n  swap1\n  dup4\n  0xff\n  and\n  mul\n  or\n  swap1\n  sstore\n  pop\n    /* \"src/level12.sol\":216:219  255 */\n  0xff\n    /* \"src/level12.sol\":187:219  uint8 private denomination = 255 */\n  0x02\n  exp(0x0100, 0x01)\n  dup2\n  sload\n  dup2\n  0xff\n  mul\n  not\n  and\n  swap1\n  dup4\n  0xff\n  and\n  mul\n  or\n  swap1\n  sstore\n  pop\n    /* \"src/level12.sol\":261:276  block.timestamp */\n  timestamp\n    /* \"src/level12.sol\":225:277  uint16 private awkwardness = uint16(block.timestamp) */\n  0x02\n  dup1\n  0x0100\n  exp\n  dup2\n  sload\n  dup2\n  0xffff\n  mul\n  not\n  and\n  swap1\n  dup4\n  0xffff\n  and\n  mul\n  or\n  swap1\n  sstore\n  pop\n    /* \"src/level12.sol\":313:379  constructor(bytes32[3] memory _data) {... */\n  callvalue\n  dup1\n  iszero\n  tag_1\n  jumpi\n  0x00\n  dup1\n  revert\ntag_1:\n  pop\n  mload(0x40)\n  sub(codesize, bytecodeSize)\n  dup1\n  bytecodeSize\n  dup4\n  codecopy\n  dup2\n  dup2\n  add\n  0x40\n  mstore\n  dup2\n  add\n  swap1\n  tag_2\n  swap2\n  swap1\n  tag_3\n  jump\t// in\ntag_2:\n    /* \"src/level12.sol\":367:372  _data */\n  dup1\n    /* \"src/level12.sol\":360:364  data */\n  0x03\n    /* \"src/level12.sol\":360:372  data = _data */\n  swap1\n  0x03\n  tag_6\n  swap3\n  swap2\n  swap1\n  tag_7\n  jump\t// in\ntag_6:\n  pop\n    /* \"src/level12.sol\":313:379  constructor(bytes32[3] memory _data) {... */\n  pop\n    /* \"src/level12.sol\":57:879  contract Privacy {... */\n  jump(tag_8)\ntag_7:\n  dup3\n  0x03\n  dup2\n  add\n  swap3\n  dup3\n  iszero\n  tag_9\n  jumpi\n  swap2\n  0x20\n  mul\n  dup3\n  add\ntag_10:\n  dup3\n  dup2\n  gt\n  iszero\n  tag_11\n  jumpi\n  dup3\n  mload\n  dup3\n  sstore\n  swap2\n  0x20\n  add\n  swap2\n  swap1\n  0x01\n  add\n  swap1\n  jump(tag_10)\ntag_11:\ntag_9:\n  pop\n  swap1\n  pop\n  tag_12\n  swap2\n  swap1\n  tag_13\n  jump\t// in\ntag_12:\n  pop\n  swap1\n  jump\t// out\ntag_13:\ntag_14:\n  dup1\n  dup3\n  gt\n  iszero\n  tag_15\n  jumpi\n  0x00\n  dup2\n  0x00\n  swap1\n  sstore\n  pop\n  0x01\n  add\n  jump(tag_14)\ntag_15:\n  pop\n  swap1\n  jump\t// out\n    /* \"#utility.yul\":7:82   */\ntag_16:\n    /* \"#utility.yul\":40:46   */\n  0x00\n    /* \"#utility.yul\":73:75   */\n  0x40\n    /* \"#utility.yul\":67:76   */\n  mload\n    /* \"#utility.yul\":57:76   */\n  swap1\n  pop\n    /* \"#utility.yul\":7:82   */\n  swap1\n  jump\t// out\n    /* \"#utility.yul\":88:205   */\ntag_17:\n    /* \"#utility.yul\":197:198   */\n  0x00\n    /* \"#utility.yul\":194:195   */\n  dup1\n    /* \"#utility.yul\":187:199   */\n  revert\n    /* \"#utility.yul\":334:451   */\ntag_19:\n    /* \"#utility.yul\":443:444   */\n  0x00\n    /* \"#utility.yul\":440:441   */\n  dup1\n    /* \"#utility.yul\":433:445   */\n  revert\n    /* \"#utility.yul\":457:559   */\ntag_20:\n    /* \"#utility.yul\":498:504   */\n  0x00\n    /* \"#utility.yul\":549:551   */\n  0x1f\n    /* \"#utility.yul\":545:552   */\n  not\n    /* \"#utility.yul\":540:542   */\n  0x1f\n    /* \"#utility.yul\":533:538   */\n  dup4\n    /* \"#utility.yul\":529:543   */\n  add\n    /* \"#utility.yul\":525:553   */\n  and\n    /* \"#utility.yul\":515:553   */\n  swap1\n  pop\n    /* \"#utility.yul\":457:559   */\n  swap2\n  swap1\n  pop\n  jump\t// out\n    /* \"#utility.yul\":565:745   */\ntag_21:\n    /* \"#utility.yul\":613:690   */\n  0x4e487b7100000000000000000000000000000000000000000000000000000000\n    /* \"#utility.yul\":610:611   */\n  0x00\n    /* \"#utility.yul\":603:691   */\n  mstore\n    /* \"#utility.yul\":710:714   */\n  0x41\n    /* \"#utility.yul\":707:708   */\n  0x04\n    /* \"#utility.yul\":700:715   */\n  mstore\n    /* \"#utility.yul\":734:738   */\n  0x24\n    /* \"#utility.yul\":731:732   */\n  0x00\n    /* \"#utility.yul\":724:739   */\n  revert\n    /* \"#utility.yul\":751:1032   */\ntag_22:\n    /* \"#utility.yul\":834:861   */\n  tag_39\n    /* \"#utility.yul\":856:860   */\n  dup3\n    /* \"#utility.yul\":834:861   */\n  tag_20\n  jump\t// in\ntag_39:\n    /* \"#utility.yul\":826:832   */\n  dup2\n    /* \"#utility.yul\":822:862   */\n  add\n    /* \"#utility.yul\":964:970   */\n  dup2\n    /* \"#utility.yul\":952:962   */\n  dup2\n    /* \"#utility.yul\":949:971   */\n  lt\n    /* \"#utility.yul\":928:946   */\n  0xffffffffffffffff\n    /* \"#utility.yul\":916:926   */\n  dup3\n    /* \"#utility.yul\":913:947   */\n  gt\n    /* \"#utility.yul\":910:972   */\n  or\n    /* \"#utility.yul\":907:995   */\n  iszero\n  tag_40\n  jumpi\n    /* \"#utility.yul\":975:993   */\n  tag_41\n  tag_21\n  jump\t// in\ntag_41:\n    /* \"#utility.yul\":907:995   */\ntag_40:\n    /* \"#utility.yul\":1015:1025   */\n  dup1\n    /* \"#utility.yul\":1011:1013   */\n  0x40\n    /* \"#utility.yul\":1004:1026   */\n  mstore\n    /* \"#utility.yul\":794:1032   */\n  pop\n    /* \"#utility.yul\":751:1032   */\n  pop\n  pop\n  jump\t// out\n    /* \"#utility.yul\":1038:1167   */\ntag_23:\n    /* \"#utility.yul\":1072:1078   */\n  0x00\n    /* \"#utility.yul\":1099:1119   */\n  tag_43\n  tag_16\n  jump\t// in\ntag_43:\n    /* \"#utility.yul\":1089:1119   */\n  swap1\n  pop\n    /* \"#utility.yul\":1128:1161   */\n  tag_44\n    /* \"#utility.yul\":1156:1160   */\n  dup3\n    /* \"#utility.yul\":1148:1154   */\n  dup3\n    /* \"#utility.yul\":1128:1161   */\n  tag_22\n  jump\t// in\ntag_44:\n    /* \"#utility.yul\":1038:1167   */\n  swap2\n  swap1\n  pop\n  jump\t// out\n    /* \"#utility.yul\":1173:1422   */\ntag_24:\n    /* \"#utility.yul\":1248:1252   */\n  0x00\n    /* \"#utility.yul\":1338:1356   */\n  0xffffffffffffffff\n    /* \"#utility.yul\":1330:1336   */\n  dup3\n    /* \"#utility.yul\":1327:1357   */\n  gt\n    /* \"#utility.yul\":1324:1380   */\n  iszero\n  tag_46\n  jumpi\n    /* \"#utility.yul\":1360:1378   */\n  tag_47\n  tag_21\n  jump\t// in\ntag_47:\n    /* \"#utility.yul\":1324:1380   */\ntag_46:\n    /* \"#utility.yul\":1410:1414   */\n  0x20\n    /* \"#utility.yul\":1402:1408   */\n  dup3\n    /* \"#utility.yul\":1398:1415   */\n  mul\n    /* \"#utility.yul\":1390:1415   */\n  swap1\n  pop\n    /* \"#utility.yul\":1173:1422   */\n  swap2\n  swap1\n  pop\n  jump\t// out\n    /* \"#utility.yul\":1428:1545   */\ntag_25:\n    /* \"#utility.yul\":1537:1538   */\n  0x00\n    /* \"#utility.yul\":1534:1535   */\n  dup1\n    /* \"#utility.yul\":1527:1539   */\n  revert\n    /* \"#utility.yul\":1551:1628   */\ntag_26:\n    /* \"#utility.yul\":1588:1595   */\n  0x00\n    /* \"#utility.yul\":1617:1622   */\n  dup2\n    /* \"#utility.yul\":1606:1622   */\n  swap1\n  pop\n    /* \"#utility.yul\":1551:1628   */\n  swap2\n  swap1\n  pop\n  jump\t// out\n    /* \"#utility.yul\":1634:1756   */\ntag_27:\n    /* \"#utility.yul\":1707:1731   */\n  tag_51\n    /* \"#utility.yul\":1725:1730   */\n  dup2\n    /* \"#utility.yul\":1707:1731   */\n  tag_26\n  jump\t// in\ntag_51:\n    /* \"#utility.yul\":1700:1705   */\n  dup2\n    /* \"#utility.yul\":1697:1732   */\n  eq\n    /* \"#utility.yul\":1687:1750   */\n  tag_52\n  jumpi\n    /* \"#utility.yul\":1746:1747   */\n  0x00\n    /* \"#utility.yul\":1743:1744   */\n  dup1\n    /* \"#utility.yul\":1736:1748   */\n  revert\n    /* \"#utility.yul\":1687:1750   */\ntag_52:\n    /* \"#utility.yul\":1634:1756   */\n  pop\n  jump\t// out\n    /* \"#utility.yul\":1762:1905   */\ntag_28:\n    /* \"#utility.yul\":1819:1824   */\n  0x00\n    /* \"#utility.yul\":1850:1856   */\n  dup2\n    /* \"#utility.yul\":1844:1857   */\n  mload\n    /* \"#utility.yul\":1835:1857   */\n  swap1\n  pop\n    /* \"#utility.yul\":1866:1899   */\n  tag_54\n    /* \"#utility.yul\":1893:1898   */\n  dup2\n    /* \"#utility.yul\":1866:1899   */\n  tag_27\n  jump\t// in\ntag_54:\n    /* \"#utility.yul\":1762:1905   */\n  swap3\n  swap2\n  pop\n  pop\n  jump\t// out\n    /* \"#utility.yul\":1929:2594   */\ntag_29:\n    /* \"#utility.yul\":2034:2039   */\n  0x00\n    /* \"#utility.yul\":2059:2138   */\n  tag_56\n    /* \"#utility.yul\":2075:2137   */\n  tag_57\n    /* \"#utility.yul\":2130:2136   */\n  dup5\n    /* \"#utility.yul\":2075:2137   */\n  tag_24\n  jump\t// in\ntag_57:\n    /* \"#utility.yul\":2059:2138   */\n  tag_23\n  jump\t// in\ntag_56:\n    /* \"#utility.yul\":2050:2138   */\n  swap1\n  pop\n    /* \"#utility.yul\":2158:2163   */\n  dup1\n    /* \"#utility.yul\":2211:2215   */\n  0x20\n    /* \"#utility.yul\":2203:2209   */\n  dup5\n    /* \"#utility.yul\":2199:2216   */\n  mul\n    /* \"#utility.yul\":2191:2197   */\n  dup4\n    /* \"#utility.yul\":2187:2217   */\n  add\n    /* \"#utility.yul\":2240:2243   */\n  dup6\n    /* \"#utility.yul\":2232:2238   */\n  dup2\n    /* \"#utility.yul\":2229:2244   */\n  gt\n    /* \"#utility.yul\":2226:2348   */\n  iszero\n  tag_58\n  jumpi\n    /* \"#utility.yul\":2259:2338   */\n  tag_59\n  tag_25\n  jump\t// in\ntag_59:\n    /* \"#utility.yul\":2226:2348   */\ntag_58:\n    /* \"#utility.yul\":2374:2380   */\n  dup4\n    /* \"#utility.yul\":2357:2588   */\ntag_60:\n    /* \"#utility.yul\":2391:2397   */\n  dup2\n    /* \"#utility.yul\":2386:2389   */\n  dup2\n    /* \"#utility.yul\":2383:2398   */\n  lt\n    /* \"#utility.yul\":2357:2588   */\n  iszero\n  tag_62\n  jumpi\n    /* \"#utility.yul\":2466:2469   */\n  dup1\n    /* \"#utility.yul\":2495:2543   */\n  tag_63\n    /* \"#utility.yul\":2539:2542   */\n  dup9\n    /* \"#utility.yul\":2527:2537   */\n  dup3\n    /* \"#utility.yul\":2495:2543   */\n  tag_28\n  jump\t// in\ntag_63:\n    /* \"#utility.yul\":2490:2493   */\n  dup5\n    /* \"#utility.yul\":2483:2544   */\n  mstore\n    /* \"#utility.yul\":2573:2577   */\n  0x20\n    /* \"#utility.yul\":2568:2571   */\n  dup5\n    /* \"#utility.yul\":2564:2578   */\n  add\n    /* \"#utility.yul\":2557:2578   */\n  swap4\n  pop\n    /* \"#utility.yul\":2433:2588   */\n  pop\n    /* \"#utility.yul\":2417:2421   */\n  0x20\n    /* \"#utility.yul\":2412:2415   */\n  dup2\n    /* \"#utility.yul\":2408:2422   */\n  add\n    /* \"#utility.yul\":2401:2422   */\n  swap1\n  pop\n    /* \"#utility.yul\":2357:2588   */\n  jump(tag_60)\ntag_62:\n    /* \"#utility.yul\":2361:2382   */\n  pop\n    /* \"#utility.yul\":2040:2594   */\n  pop\n  pop\n    /* \"#utility.yul\":1929:2594   */\n  swap4\n  swap3\n  pop\n  pop\n  pop\n  jump\t// out\n    /* \"#utility.yul\":2618:2979   */\ntag_30:\n    /* \"#utility.yul\":2698:2703   */\n  0x00\n    /* \"#utility.yul\":2747:2750   */\n  dup3\n    /* \"#utility.yul\":2740:2744   */\n  0x1f\n    /* \"#utility.yul\":2732:2738   */\n  dup4\n    /* \"#utility.yul\":2728:2745   */\n  add\n    /* \"#utility.yul\":2724:2751   */\n  slt\n    /* \"#utility.yul\":2714:2836   */\n  tag_65\n  jumpi\n    /* \"#utility.yul\":2755:2834   */\n  tag_66\n  tag_19\n  jump\t// in\ntag_66:\n    /* \"#utility.yul\":2714:2836   */\ntag_65:\n    /* \"#utility.yul\":2859:2863   */\n  0x03\n    /* \"#utility.yul\":2881:2973   */\n  tag_67\n    /* \"#utility.yul\":2969:2972   */\n  dup5\n    /* \"#utility.yul\":2961:2967   */\n  dup3\n    /* \"#utility.yul\":2953:2959   */\n  dup6\n    /* \"#utility.yul\":2881:2973   */\n  tag_29\n  jump\t// in\ntag_67:\n    /* \"#utility.yul\":2872:2973   */\n  swap2\n  pop\n    /* \"#utility.yul\":2704:2979   */\n  pop\n    /* \"#utility.yul\":2618:2979   */\n  swap3\n  swap2\n  pop\n  pop\n  jump\t// out\n    /* \"#utility.yul\":2985:3382   */\ntag_3:\n    /* \"#utility.yul\":3078:3084   */\n  0x00\n    /* \"#utility.yul\":3127:3129   */\n  0x60\n    /* \"#utility.yul\":3115:3124   */\n  dup3\n    /* \"#utility.yul\":3106:3113   */\n  dup5\n    /* \"#utility.yul\":3102:3125   */\n  sub\n    /* \"#utility.yul\":3098:3130   */\n  slt\n    /* \"#utility.yul\":3095:3214   */\n  iszero\n  tag_69\n  jumpi\n    /* \"#utility.yul\":3133:3212   */\n  tag_70\n  tag_17\n  jump\t// in\ntag_70:\n    /* \"#utility.yul\":3095:3214   */\ntag_69:\n    /* \"#utility.yul\":3253:3254   */\n  0x00\n    /* \"#utility.yul\":3278:3365   */\n  tag_71\n    /* \"#utility.yul\":3357:3364   */\n  dup5\n    /* \"#utility.yul\":3348:3354   */\n  dup3\n    /* \"#utility.yul\":3337:3346   */\n  dup6\n    /* \"#utility.yul\":3333:3355   */\n  add\n    /* \"#utility.yul\":3278:3365   */\n  tag_30\n  jump\t// in\ntag_71:\n    /* \"#utility.yul\":3268:3365   */\n  swap2\n  pop\n    /* \"#utility.yul\":3224:3375   */\n  pop\n    /* \"#utility.yul\":2985:3382   */\n  swap3\n  swap2\n  pop\n  pop\n  jump\t// out\n    /* \"src/level12.sol\":57:879  contract Privacy {... */\ntag_8:\n  dataSize(sub_0)\n  dup1\n  dataOffset(sub_0)\n  0x00\n  codecopy\n  0x00\n  return\nstop\n\nsub_0: assembly {\n        /* \"src/level12.sol\":57:879  contract Privacy {... */\n      mstore(0x40, 0x80)\n      callvalue\n      dup1\n      iszero\n      tag_1\n      jumpi\n      0x00\n      dup1\n      revert\n    tag_1:\n      pop\n      jumpi(tag_2, lt(calldatasize, 0x04))\n      shr(0xe0, calldataload(0x00))\n      dup1\n      0xb3cea217\n      eq\n      tag_3\n      jumpi\n      dup1\n      0xcf309012\n      eq\n      tag_4\n      jumpi\n      dup1\n      0xe1afb08c\n      eq\n      tag_5\n      jumpi\n    tag_2:\n      0x00\n      dup1\n      revert\n        /* \"src/level12.sol\":111:146  uint256 public ID = block.timestamp */\n    tag_3:\n      tag_6\n      tag_7\n      jump\t// in\n    tag_6:\n      mload(0x40)\n      tag_8\n      swap2\n      swap1\n      tag_9\n      jump\t// in\n    tag_8:\n      mload(0x40)\n      dup1\n      swap2\n      sub\n      swap1\n      return\n        /* \"src/level12.sol\":80:105  bool public locked = true */\n    tag_4:\n      tag_10\n      tag_11\n      jump\t// in\n    tag_10:\n      mload(0x40)\n      tag_12\n      swap2\n      swap1\n      tag_13\n      jump\t// in\n    tag_12:\n      mload(0x40)\n      dup1\n      swap2\n      sub\n      swap1\n      return\n        /* \"src/level12.sol\":385:496  function unlock(bytes16 _key) public {... */\n    tag_5:\n      tag_14\n      0x04\n      dup1\n      calldatasize\n      sub\n      dup2\n      add\n      swap1\n      tag_15\n      swap2\n      swap1\n      tag_16\n      jump\t// in\n    tag_15:\n      tag_17\n      jump\t// in\n    tag_14:\n      stop\n        /* \"src/level12.sol\":111:146  uint256 public ID = block.timestamp */\n    tag_7:\n      sload(0x01)\n      dup2\n      jump\t// out\n        /* \"src/level12.sol\":80:105  bool public locked = true */\n    tag_11:\n      0x00\n      dup1\n      sload\n      swap1\n      0x0100\n      exp\n      swap1\n      div\n      0xff\n      and\n      dup2\n      jump\t// out\n        /* \"src/level12.sol\":385:496  function unlock(bytes16 _key) public {... */\n    tag_17:\n        /* \"src/level12.sol\":456:460  data */\n      0x03\n        /* \"src/level12.sol\":461:462  2 */\n      0x02\n        /* \"src/level12.sol\":456:463  data[2] */\n      0x03\n      dup2\n      lt\n      tag_19\n      jumpi\n      tag_20\n      tag_21\n      jump\t// in\n    tag_20:\n    tag_19:\n      add\n      sload\n        /* \"src/level12.sol\":440:464  _key == bytes16(data[2]) */\n      not(0xffffffffffffffffffffffffffffffff)\n      and\n        /* \"src/level12.sol\":440:444  _key */\n      dup2\n        /* \"src/level12.sol\":440:464  _key == bytes16(data[2]) */\n      not(0xffffffffffffffffffffffffffffffff)\n      and\n      eq\n        /* \"src/level12.sol\":432:465  require(_key == bytes16(data[2])) */\n      tag_23\n      jumpi\n      0x00\n      dup1\n      revert\n    tag_23:\n        /* \"src/level12.sol\":484:489  false */\n      0x00\n        /* \"src/level12.sol\":475:481  locked */\n      dup1\n      0x00\n        /* \"src/level12.sol\":475:489  locked = false */\n      0x0100\n      exp\n      dup2\n      sload\n      dup2\n      0xff\n      mul\n      not\n      and\n      swap1\n      dup4\n      iszero\n      iszero\n      mul\n      or\n      swap1\n      sstore\n      pop\n        /* \"src/level12.sol\":385:496  function unlock(bytes16 _key) public {... */\n      pop\n      jump\t// out\n        /* \"#utility.yul\":7:84   */\n    tag_24:\n        /* \"#utility.yul\":44:51   */\n      0x00\n        /* \"#utility.yul\":73:78   */\n      dup2\n        /* \"#utility.yul\":62:78   */\n      swap1\n      pop\n        /* \"#utility.yul\":7:84   */\n      swap2\n      swap1\n      pop\n      jump\t// out\n        /* \"#utility.yul\":90:208   */\n    tag_25:\n        /* \"#utility.yul\":177:201   */\n      tag_37\n        /* \"#utility.yul\":195:200   */\n      dup2\n        /* \"#utility.yul\":177:201   */\n      tag_24\n      jump\t// in\n    tag_37:\n        /* \"#utility.yul\":172:175   */\n      dup3\n        /* \"#utility.yul\":165:202   */\n      mstore\n        /* \"#utility.yul\":90:208   */\n      pop\n      pop\n      jump\t// out\n        /* \"#utility.yul\":214:436   */\n    tag_9:\n        /* \"#utility.yul\":307:311   */\n      0x00\n        /* \"#utility.yul\":345:347   */\n      0x20\n        /* \"#utility.yul\":334:343   */\n      dup3\n        /* \"#utility.yul\":330:348   */\n      add\n        /* \"#utility.yul\":322:348   */\n      swap1\n      pop\n        /* \"#utility.yul\":358:429   */\n      tag_39\n        /* \"#utility.yul\":426:427   */\n      0x00\n        /* \"#utility.yul\":415:424   */\n      dup4\n        /* \"#utility.yul\":411:428   */\n      add\n        /* \"#utility.yul\":402:408   */\n      dup5\n        /* \"#utility.yul\":358:429   */\n      tag_25\n      jump\t// in\n    tag_39:\n        /* \"#utility.yul\":214:436   */\n      swap3\n      swap2\n      pop\n      pop\n      jump\t// out\n        /* \"#utility.yul\":442:532   */\n    tag_26:\n        /* \"#utility.yul\":476:483   */\n      0x00\n        /* \"#utility.yul\":519:524   */\n      dup2\n        /* \"#utility.yul\":512:525   */\n      iszero\n        /* \"#utility.yul\":505:526   */\n      iszero\n        /* \"#utility.yul\":494:526   */\n      swap1\n      pop\n        /* \"#utility.yul\":442:532   */\n      swap2\n      swap1\n      pop\n      jump\t// out\n        /* \"#utility.yul\":538:647   */\n    tag_27:\n        /* \"#utility.yul\":619:640   */\n      tag_42\n        /* \"#utility.yul\":634:639   */\n      dup2\n        /* \"#utility.yul\":619:640   */\n      tag_26\n      jump\t// in\n    tag_42:\n        /* \"#utility.yul\":614:617   */\n      dup3\n        /* \"#utility.yul\":607:641   */\n      mstore\n        /* \"#utility.yul\":538:647   */\n      pop\n      pop\n      jump\t// out\n        /* \"#utility.yul\":653:863   */\n    tag_13:\n        /* \"#utility.yul\":740:744   */\n      0x00\n        /* \"#utility.yul\":778:780   */\n      0x20\n        /* \"#utility.yul\":767:776   */\n      dup3\n        /* \"#utility.yul\":763:781   */\n      add\n        /* \"#utility.yul\":755:781   */\n      swap1\n      pop\n        /* \"#utility.yul\":791:856   */\n      tag_44\n        /* \"#utility.yul\":853:854   */\n      0x00\n        /* \"#utility.yul\":842:851   */\n      dup4\n        /* \"#utility.yul\":838:855   */\n      add\n        /* \"#utility.yul\":829:835   */\n      dup5\n        /* \"#utility.yul\":791:856   */\n      tag_27\n      jump\t// in\n    tag_44:\n        /* \"#utility.yul\":653:863   */\n      swap3\n      swap2\n      pop\n      pop\n      jump\t// out\n        /* \"#utility.yul\":950:1067   */\n    tag_29:\n        /* \"#utility.yul\":1059:1060   */\n      0x00\n        /* \"#utility.yul\":1056:1057   */\n      dup1\n        /* \"#utility.yul\":1049:1061   */\n      revert\n        /* \"#utility.yul\":1196:1346   */\n    tag_31:\n        /* \"#utility.yul\":1233:1240   */\n      0x00\n        /* \"#utility.yul\":1273:1339   */\n      0xffffffffffffffffffffffffffffffff00000000000000000000000000000000\n        /* \"#utility.yul\":1266:1271   */\n      dup3\n        /* \"#utility.yul\":1262:1340   */\n      and\n        /* \"#utility.yul\":1251:1340   */\n      swap1\n      pop\n        /* \"#utility.yul\":1196:1346   */\n      swap2\n      swap1\n      pop\n      jump\t// out\n        /* \"#utility.yul\":1352:1474   */\n    tag_32:\n        /* \"#utility.yul\":1425:1449   */\n      tag_50\n        /* \"#utility.yul\":1443:1448   */\n      dup2\n        /* \"#utility.yul\":1425:1449   */\n      tag_31\n      jump\t// in\n    tag_50:\n        /* \"#utility.yul\":1418:1423   */\n      dup2\n        /* \"#utility.yul\":1415:1450   */\n      eq\n        /* \"#utility.yul\":1405:1468   */\n      tag_51\n      jumpi\n        /* \"#utility.yul\":1464:1465   */\n      0x00\n        /* \"#utility.yul\":1461:1462   */\n      dup1\n        /* \"#utility.yul\":1454:1466   */\n      revert\n        /* \"#utility.yul\":1405:1468   */\n    tag_51:\n        /* \"#utility.yul\":1352:1474   */\n      pop\n      jump\t// out\n        /* \"#utility.yul\":1480:1619   */\n    tag_33:\n        /* \"#utility.yul\":1526:1531   */\n      0x00\n        /* \"#utility.yul\":1564:1570   */\n      dup2\n        /* \"#utility.yul\":1551:1571   */\n      calldataload\n        /* \"#utility.yul\":1542:1571   */\n      swap1\n      pop\n        /* \"#utility.yul\":1580:1613   */\n      tag_53\n        /* \"#utility.yul\":1607:1612   */\n      dup2\n        /* \"#utility.yul\":1580:1613   */\n      tag_32\n      jump\t// in\n    tag_53:\n        /* \"#utility.yul\":1480:1619   */\n      swap3\n      swap2\n      pop\n      pop\n      jump\t// out\n        /* \"#utility.yul\":1625:1954   */\n    tag_16:\n        /* \"#utility.yul\":1684:1690   */\n      0x00\n        /* \"#utility.yul\":1733:1735   */\n      0x20\n        /* \"#utility.yul\":1721:1730   */\n      dup3\n        /* \"#utility.yul\":1712:1719   */\n      dup5\n        /* \"#utility.yul\":1708:1731   */\n      sub\n        /* \"#utility.yul\":1704:1736   */\n      slt\n        /* \"#utility.yul\":1701:1820   */\n      iszero\n      tag_55\n      jumpi\n        /* \"#utility.yul\":1739:1818   */\n      tag_56\n      tag_29\n      jump\t// in\n    tag_56:\n        /* \"#utility.yul\":1701:1820   */\n    tag_55:\n        /* \"#utility.yul\":1859:1860   */\n      0x00\n        /* \"#utility.yul\":1884:1937   */\n      tag_57\n        /* \"#utility.yul\":1929:1936   */\n      dup5\n        /* \"#utility.yul\":1920:1926   */\n      dup3\n        /* \"#utility.yul\":1909:1918   */\n      dup6\n        /* \"#utility.yul\":1905:1927   */\n      add\n        /* \"#utility.yul\":1884:1937   */\n      tag_33\n      jump\t// in\n    tag_57:\n        /* \"#utility.yul\":1874:1937   */\n      swap2\n      pop\n        /* \"#utility.yul\":1830:1947   */\n      pop\n        /* \"#utility.yul\":1625:1954   */\n      swap3\n      swap2\n      pop\n      pop\n      jump\t// out\n        /* \"#utility.yul\":1960:2140   */\n    tag_21:\n        /* \"#utility.yul\":2008:2085   */\n      0x4e487b7100000000000000000000000000000000000000000000000000000000\n        /* \"#utility.yul\":2005:2006   */\n      0x00\n        /* \"#utility.yul\":1998:2086   */\n      mstore\n        /* \"#utility.yul\":2105:2109   */\n      0x32\n        /* \"#utility.yul\":2102:2103   */\n      0x04\n        /* \"#utility.yul\":2095:2110   */\n      mstore\n        /* \"#utility.yul\":2129:2133   */\n      0x24\n        /* \"#utility.yul\":2126:2127   */\n      0x00\n        /* \"#utility.yul\":2119:2134   */\n      revert\n\n    auxdata: 0xa264697066735822122055c573f29ef656b114a137c7b67e995fbc7a5f975737c2c1cdf4160be261921a64736f6c634300081a0033\n}\n",
				"bytecode": {
					"linkReferences": {},
					"object": "608060405260015f806101000a81548160ff02191690831515021790555042600155600a60025f6101000a81548160ff021916908360ff16021790555060ff600260016101000a81548160ff021916908360ff160217905550426002806101000a81548161ffff021916908361ffff16021790555034801561007f575f80fd5b5060405161052838038061052883398181016040528101906100a19190610292565b8060039060036100b29291906100b9565b50506102bd565b82600381019282156100e8579160200282015b828111156100e75782518255916020019190600101906100cc565b5b5090506100f591906100f9565b5090565b5b80821115610110575f815f9055506001016100fa565b5090565b5f604051905090565b5f80fd5b5f80fd5b5f601f19601f8301169050919050565b7f4e487b71000000000000000000000000000000000000000000000000000000005f52604160045260245ffd5b61016b82610125565b810181811067ffffffffffffffff8211171561018a57610189610135565b5b80604052505050565b5f61019c610114565b90506101a88282610162565b919050565b5f67ffffffffffffffff8211156101c7576101c6610135565b5b602082029050919050565b5f80fd5b5f819050919050565b6101e8816101d6565b81146101f2575f80fd5b50565b5f81519050610203816101df565b92915050565b5f61021b610216846101ad565b610193565b90508060208402830185811115610235576102346101d2565b5b835b8181101561025e578061024a88826101f5565b845260208401935050602081019050610237565b5050509392505050565b5f82601f83011261027c5761027b610121565b5b6003610289848285610209565b91505092915050565b5f606082840312156102a7576102a661011d565b5b5f6102b484828501610268565b91505092915050565b61025e806102ca5f395ff3fe608060405234801561000f575f80fd5b506004361061003f575f3560e01c8063b3cea21714610043578063cf30901214610061578063e1afb08c1461007f575b5f80fd5b61004b61009b565b604051610058919061012b565b60405180910390f35b6100696100a1565b604051610076919061015e565b60405180910390f35b610099600480360381019061009491906101d0565b6100b1565b005b60015481565b5f8054906101000a900460ff1681565b60036002600381106100c6576100c56101fb565b5b01546fffffffffffffffffffffffffffffffff1916816fffffffffffffffffffffffffffffffff1916146100f8575f80fd5b5f805f6101000a81548160ff02191690831515021790555050565b5f819050919050565b61012581610113565b82525050565b5f60208201905061013e5f83018461011c565b92915050565b5f8115159050919050565b61015881610144565b82525050565b5f6020820190506101715f83018461014f565b92915050565b5f80fd5b5f7fffffffffffffffffffffffffffffffff0000000000000000000000000000000082169050919050565b6101af8161017b565b81146101b9575f80fd5b50565b5f813590506101ca816101a6565b92915050565b5f602082840312156101e5576101e4610177565b5b5f6101f2848285016101bc565b91505092915050565b7f4e487b71000000000000000000000000000000000000000000000000000000005f52603260045260245ffdfea264697066735822122055c573f29ef656b114a137c7b67e995fbc7a5f975737c2c1cdf4160be261921a64736f6c634300081a0033",
					"opcodes": "PUSH1 0x80 PUSH1 0x40 MSTORE PUSH1 0x1 PUSH0 DUP1 PUSH2 0x100 EXP DUP2 SLOAD DUP2 PUSH1 0xFF MUL NOT AND SWAP1 DUP4 ISZERO ISZERO MUL OR SWAP1 SSTORE POP TIMESTAMP PUSH1 0x1 SSTORE PUSH1 0xA PUSH1 0x2 PUSH0 PUSH2 0x100 EXP DUP2 SLOAD DUP2 PUSH1 0xFF MUL NOT AND SWAP1 DUP4 PUSH1 0xFF AND MUL OR SWAP1 SSTORE POP PUSH1 0xFF PUSH1 0x2 PUSH1 0x1 PUSH2 0x100 EXP DUP2 SLOAD DUP2 PUSH1 0xFF MUL NOT AND SWAP1 DUP4 PUSH1 0xFF AND MUL OR SWAP1 SSTORE POP TIMESTAMP PUSH1 0x2 DUP1 PUSH2 0x100 EXP DUP2 SLOAD DUP2 PUSH2 0xFFFF MUL NOT AND SWAP1 DUP4 PUSH2 0xFFFF AND MUL OR SWAP1 SSTORE POP CALLVALUE DUP1 ISZERO PUSH2 0x7F JUMPI PUSH0 DUP1 REVERT JUMPDEST POP PUSH1 0x40 MLOAD PUSH2 0x528 CODESIZE SUB DUP1 PUSH2 0x528 DUP4 CODECOPY DUP2 DUP2 ADD PUSH1 0x40 MSTORE DUP2 ADD SWAP1 PUSH2 0xA1 SWAP2 SWAP1 PUSH2 0x292 JUMP JUMPDEST DUP1 PUSH1 0x3 SWAP1 PUSH1 0x3 PUSH2 0xB2 SWAP3 SWAP2 SWAP1 PUSH2 0xB9 JUMP JUMPDEST POP POP PUSH2 0x2BD JUMP JUMPDEST DUP3 PUSH1 0x3 DUP2 ADD SWAP3 DUP3 ISZERO PUSH2 0xE8 JUMPI SWAP2 PUSH1 0x20 MUL DUP3 ADD JUMPDEST DUP3 DUP2 GT ISZERO PUSH2 0xE7 JUMPI DUP3 MLOAD DUP3 SSTORE SWAP2 PUSH1 0x20 ADD SWAP2 SWAP1 PUSH1 0x1 ADD SWAP1 PUSH2 0xCC JUMP JUMPDEST JUMPDEST POP SWAP1 POP PUSH2 0xF5 SWAP2 SWAP1 PUSH2 0xF9 JUMP JUMPDEST POP SWAP1 JUMP JUMPDEST JUMPDEST DUP1 DUP3 GT ISZERO PUSH2 0x110 JUMPI PUSH0 DUP2 PUSH0 SWAP1 SSTORE POP PUSH1 0x1 ADD PUSH2 0xFA JUMP JUMPDEST POP SWAP1 JUMP JUMPDEST PUSH0 PUSH1 0x40 MLOAD SWAP1 POP SWAP1 JUMP JUMPDEST PUSH0 DUP1 REVERT JUMPDEST PUSH0 DUP1 REVERT JUMPDEST PUSH0 PUSH1 0x1F NOT PUSH1 0x1F DUP4 ADD AND SWAP1 POP SWAP2 SWAP1 POP JUMP JUMPDEST PUSH32 0x4E487B7100000000000000000000000000000000000000000000000000000000 PUSH0 MSTORE PUSH1 0x41 PUSH1 0x4 MSTORE PUSH1 0x24 PUSH0 REVERT JUMPDEST PUSH2 0x16B DUP3 PUSH2 0x125 JUMP JUMPDEST DUP2 ADD DUP2 DUP2 LT PUSH8 0xFFFFFFFFFFFFFFFF DUP3 GT OR ISZERO PUSH2 0x18A JUMPI PUSH2 0x189 PUSH2 0x135 JUMP JUMPDEST JUMPDEST DUP1 PUSH1 0x40 MSTORE POP POP POP JUMP JUMPDEST PUSH0 PUSH2 0x19C PUSH2 0x114 JUMP JUMPDEST SWAP1 POP PUSH2 0x1A8 DUP3 DUP3 PUSH2 0x162 JUMP JUMPDEST SWAP2 SWAP1 POP JUMP JUMPDEST PUSH0 PUSH8 0xFFFFFFFFFFFFFFFF DUP3 GT ISZERO PUSH2 0x1C7 JUMPI PUSH2 0x1C6 PUSH2 0x135 JUMP JUMPDEST JUMPDEST PUSH1 0x20 DUP3 MUL SWAP1 POP SWAP2 SWAP1 POP JUMP JUMPDEST PUSH0 DUP1 REVERT JUMPDEST PUSH0 DUP2 SWAP1 POP SWAP2 SWAP1 POP JUMP JUMPDEST PUSH2 0x1E8 DUP2 PUSH2 0x1D6 JUMP JUMPDEST DUP2 EQ PUSH2 0x1F2 JUMPI PUSH0 DUP1 REVERT JUMPDEST POP JUMP JUMPDEST PUSH0 DUP2 MLOAD SWAP1 POP PUSH2 0x203 DUP2 PUSH2 0x1DF JUMP JUMPDEST SWAP3 SWAP2 POP POP JUMP JUMPDEST PUSH0 PUSH2 0x21B PUSH2 0x216 DUP5 PUSH2 0x1AD JUMP JUMPDEST PUSH2 0x193 JUMP JUMPDEST SWAP1 POP DUP1 PUSH1 0x20 DUP5 MUL DUP4 ADD DUP6 DUP2 GT ISZERO PUSH2 0x235 JUMPI PUSH2 0x234 PUSH2 0x1D2 JUMP JUMPDEST JUMPDEST DUP4 JUMPDEST DUP2 DUP2 LT ISZERO PUSH2 0x25E JUMPI DUP1 PUSH2 0x24A DUP9 DUP3 PUSH2 0x1F5 JUMP JUMPDEST DUP5 MSTORE PUSH1 0x20 DUP5 ADD SWAP4 POP POP PUSH1 0x20 DUP2 ADD SWAP1 POP PUSH2 0x237 JUMP JUMPDEST POP POP POP SWAP4 SWAP3 POP POP POP JUMP JUMPDEST PUSH0 DUP3 PUSH1 0x1F DUP4 ADD SLT PUSH2 0x27C JUMPI PUSH2 0x27B PUSH2 0x121 JUMP JUMPDEST JUMPDEST PUSH1 0x3 PUSH2 0x289 DUP5 DUP3 DUP6 PUSH2 0x209 JUMP JUMPDEST SWAP2 POP POP SWAP3 SWAP2 POP POP JUMP JUMPDEST PUSH0 PUSH1 0x60 DUP3 DUP5 SUB SLT ISZERO PUSH2 0x2A7 JUMPI PUSH2 0x2A6 PUSH2 0x11D JUMP JUMPDEST JUMPDEST PUSH0 PUSH2 0x2B4 DUP5 DUP3 DUP6 ADD PUSH2 0x268 JUMP JUMPDEST SWAP2 POP POP SWAP3 SWAP2 POP POP JUMP JUMPDEST PUSH2 0x25E DUP1 PUSH2 0x2CA PUSH0 CODECOPY PUSH0 RETURN INVALID PUSH1 0x80 PUSH1 0x40 MSTORE CALLVALUE DUP1 ISZERO PUSH2 0xF JUMPI PUSH0 DUP1 REVERT JUMPDEST POP PUSH1 0x4 CALLDATASIZE LT PUSH2 0x3F JUMPI PUSH0 CALLDATALOAD PUSH1 0xE0 SHR DUP1 PUSH4 0xB3CEA217 EQ PUSH2 0x43 JUMPI DUP1 PUSH4 0xCF309012 EQ PUSH2 0x61 JUMPI DUP1 PUSH4 0xE1AFB08C EQ PUSH2 0x7F JUMPI JUMPDEST PUSH0 DUP1 REVERT JUMPDEST PUSH2 0x4B PUSH2 0x9B JUMP JUMPDEST PUSH1 0x40 MLOAD PUSH2 0x58 SWAP2 SWAP1 PUSH2 0x12B JUMP JUMPDEST PUSH1 0x40 MLOAD DUP1 SWAP2 SUB SWAP1 RETURN JUMPDEST PUSH2 0x69 PUSH2 0xA1 JUMP JUMPDEST PUSH1 0x40 MLOAD PUSH2 0x76 SWAP2 SWAP1 PUSH2 0x15E JUMP JUMPDEST PUSH1 0x40 MLOAD DUP1 SWAP2 SUB SWAP1 RETURN JUMPDEST PUSH2 0x99 PUSH1 0x4 DUP1 CALLDATASIZE SUB DUP2 ADD SWAP1 PUSH2 0x94 SWAP2 SWAP1 PUSH2 0x1D0 JUMP JUMPDEST PUSH2 0xB1 JUMP JUMPDEST STOP JUMPDEST PUSH1 0x1 SLOAD DUP2 JUMP JUMPDEST PUSH0 DUP1 SLOAD SWAP1 PUSH2 0x100 EXP SWAP1 DIV PUSH1 0xFF AND DUP2 JUMP JUMPDEST PUSH1 0x3 PUSH1 0x2 PUSH1 0x3 DUP2 LT PUSH2 0xC6 JUMPI PUSH2 0xC5 PUSH2 0x1FB JUMP JUMPDEST JUMPDEST ADD SLOAD PUSH16 0xFFFFFFFFFFFFFFFFFFFFFFFFFFFFFFFF NOT AND DUP2 PUSH16 0xFFFFFFFFFFFFFFFFFFFFFFFFFFFFFFFF NOT AND EQ PUSH2 0xF8 JUMPI PUSH0 DUP1 REVERT JUMPDEST PUSH0 DUP1 PUSH0 PUSH2 0x100 EXP DUP2 SLOAD DUP2 PUSH1 0xFF MUL NOT AND SWAP1 DUP4 ISZERO ISZERO MUL OR SWAP1 SSTORE POP POP JUMP JUMPDEST PUSH0 DUP2 SWAP1 POP SWAP2 SWAP1 POP JUMP JUMPDEST PUSH2 0x125 DUP2 PUSH2 0x113 JUMP JUMPDEST DUP3 MSTORE POP POP JUMP JUMPDEST PUSH0 PUSH1 0x20 DUP3 ADD SWAP1 POP PUSH2 0x13E PUSH0 DUP4 ADD DUP5 PUSH2 0x11C JUMP JUMPDEST SWAP3 SWAP2 POP POP JUMP JUMPDEST PUSH0 DUP2 ISZERO ISZERO SWAP1 POP SWAP2 SWAP1 POP JUMP JUMPDEST PUSH2 0x158 DUP2 PUSH2 0x144 JUMP JUMPDEST DUP3 MSTORE POP POP JUMP JUMPDEST PUSH0 PUSH1 0x20 DUP3 ADD SWAP1 POP PUSH2 0x171 PUSH0 DUP4 ADD DUP5 PUSH2 0x14F JUMP JUMPDEST SWAP3 SWAP2 POP POP JUMP JUMPDEST PUSH0 DUP1 REVERT JUMPDEST PUSH0 PUSH32 0xFFFFFFFFFFFFFFFFFFFFFFFFFFFFFFFF00000000000000000000000000000000 DUP3 AND SWAP1 POP SWAP2 SWAP1 POP JUMP JUMPDEST PUSH2 0x1AF DUP2 PUSH2 0x17B JUMP JUMPDEST DUP2 EQ PUSH2 0x1B9 JUMPI PUSH0 DUP1 REVERT JUMPDEST POP JUMP JUMPDEST PUSH0 DUP2 CALLDATALOAD SWAP1 POP PUSH2 0x1CA DUP2 PUSH2 0x1A6 JUMP JUMPDEST SWAP3 SWAP2 POP POP JUMP JUMPDEST PUSH0 PUSH1 0x20 DUP3 DUP5 SUB SLT ISZERO PUSH2 0x1E5 JUMPI PUSH2 0x1E4 PUSH2 0x177 JUMP JUMPDEST JUMPDEST PUSH0 PUSH2 0x1F2 DUP5 DUP3 DUP6 ADD PUSH2 0x1BC JUMP JUMPDEST SWAP2 POP POP SWAP3 SWAP2 POP POP JUMP JUMPDEST PUSH32 0x4E487B7100000000000000000000000000000000000000000000000000000000 PUSH0 MSTORE PUSH1 0x32 PUSH1 0x4 MSTORE PUSH1 0x24 PUSH0 REVERT INVALID LOG2 PUSH5 0x6970667358 0x22 SLT KECCAK256 SSTORE 0xC5 PUSH20 0xF29EF656B114A137C7B67E995FBC7A5F975737C2 0xC1 0xCD DELEGATECALL AND SIGNEXTEND 0xE2 PUSH2 0x921A PUSH5 0x736F6C6343 STOP ADDMOD BYTE STOP CALLER "
				},
				"gasEstimates": {
					"creation": {
						"codeDepositCost": "121200",
						"executionCost": "infinite",
						"totalCost": "infinite"
					},
					"external": {
						"ID()": "2403",
						"locked()": "2463",
						"unlock(bytes16)": "26864"
					}
				},
				"methodIdentifiers": {
					"ID()": "b3cea217",
					"locked()": "cf309012",
					"unlock(bytes16)": "e1afb08c"
				}
			},
			"storageLayout": {
				"storage": [
					{
						"astId": 4,
						"contract": "src/level12.sol:Privacy",
						"label": "locked",
						"offset": 0,
						"slot": "0",
						"type": "t_bool"
					},
					{
						"astId": 8,
						"contract": "src/level12.sol:Privacy",
						"label": "ID",
						"offset": 0,
						"slot": "1",
						"type": "t_uint256"
					},
					{
						"astId": 11,
						"contract": "src/level12.sol:Privacy",
						"label": "flattening",
						"offset": 0,
						"slot": "2",
						"type": "t_uint8"
					},
					{
						"astId": 14,
						"contract": "src/level12.sol:Privacy",
						"label": "denomination",
						"offset": 1,
						"slot": "2",
						"type": "t_uint8"
					},
					{
						"astId": 21,
						"contract": "src/level12.sol:Privacy",
						"label": "awkwardness",
						"offset": 2,
						"slot": "2",
						"type": "t_uint16"
					},
					{
						"astId": 25,
						"contract": "src/level12.sol:Privacy",
						"label": "data",
						"offset": 0,
						"slot": "3",
						"type": "t_array(t_bytes32)3_storage"
					}
				],
				"types": {
					"t_array(t_bytes32)3_storage": {
						"base": "t_bytes32",
						"encoding": "inplace",
						"label": "bytes32[3]",
						"numberOfBytes": "96"
					},
					"t_bool": {
						"encoding": "inplace",
						"label": "bool",
						"numberOfBytes": "1"
					},
					"t_bytes32": {
						"encoding": "inplace",
						"label": "bytes32",
						"numberOfBytes": "32"
					},
					"t_uint16": {
						"encoding": "inplace",
						"label": "uint16",
						"numberOfBytes": "2"
					},
					"t_uint256": {
						"encoding": "inplace",
						"label": "uint256",
						"numberOfBytes": "32"
					},
					"t_uint8": {
						"encoding": "inplace",
						"label": "uint8",
						"numberOfBytes": "1"
					}
				}
			},
			"userdoc": {
				"kind": "user",
				"methods": {},
				"version": 1
			}
		}
	}
}