{
	"src/level17.sol": {
		"SimpleToken": {
			"abi": [
				{
					"inputs": [
						{
							"internalType": "string",
							"name": "_name",
							"type": "string"
						},
						{
							"internalType": "address",
							"name": "_creator",
							"type": "address"
						},
						{
							"internalType": "uint256",
							"name": "_initialSupply",
							"type": "uint256"
						}
					],
					"stateMutability": "nonpayable",
					"type": "constructor"
				},
				{
					"inputs": [
						{
							"internalType": "address",
							"name": "",
							"type": "address"
						}
					],
					"name": "balances",
					"outputs": [
						{
							"internalType": "uint256",
							"name": "",
							"type": "uint256"
						}
					],
					"stateMutability": "view",
					"type": "function"
				},
				{
					"inputs": [
						{
							"internalType": "address payable",
							"name": "_to",
							"type": "address"
						}
					],
					"name": "destroy",
					"outputs": [],
					"stateMutability": "nonpayable",
					"type": "function"
				},
				{
					"inputs": [],
					"name": "name",
					"outputs": [
						{
							"internalType": "string",
							"name": "",
							"type": "string"
						}
					],
					"stateMutability": "view",
					"type": "function"
				},
				{
					"inputs": [
						{
							"internalType": "address",
							"name": "_to",
							"type": "address"
						},
						{
							"internalType": "uint256",
							"name": "_amount",
							"type": "uint256"
						}
					],
					"name": "transfer",
					"outputs": [],
					"stateMutability": "nonpayable",
					"type": "function"
				},
				{
					"stateMutability": "payable",
					"type": "receive"
				}
			],
			"devdoc": {
				"kind": "dev",
				"methods": {},
				"version": 1
			},
			"evm": {
				"assembly": "    /* \"src/level17.sol\":609:1373  contract SimpleToken {... */\n  mstore(0x40, 0x80)\n    /* \"src/level17.sol\":729:878  constructor(string memory _name, address _creator, uint256 _initialSupply) {... */\n  callvalue\n  dup1\n  iszero\n  tag_1\n  jumpi\n  0x00\n  dup1\n  revert\ntag_1:\n  pop\n  mload(0x40)\n  sub(codesize, bytecodeSize)\n  dup1\n  bytecodeSize\n  dup4\n  codecopy\n  dup2\n  dup2\n  add\n  0x40\n  mstore\n  dup2\n  add\n  swap1\n  tag_2\n  swap2\n  swap1\n  tag_3\n  jump\t// in\ntag_2:\n    /* \"src/level17.sol\":821:826  _name */\n  dup3\n    /* \"src/level17.sol\":814:818  name */\n  0x00\n    /* \"src/level17.sol\":814:826  name = _name */\n  swap1\n  dup2\n  tag_6\n  swap2\n  swap1\n  tag_7\n  jump\t// in\ntag_6:\n  pop\n    /* \"src/level17.sol\":857:871  _initialSupply */\n  dup1\n    /* \"src/level17.sol\":836:844  balances */\n  0x01\n    /* \"src/level17.sol\":836:854  balances[_creator] */\n  0x00\n    /* \"src/level17.sol\":845:853  _creator */\n  dup5\n    /* \"src/level17.sol\":836:854  balances[_creator] */\n  0xffffffffffffffffffffffffffffffffffffffff\n  and\n  0xffffffffffffffffffffffffffffffffffffffff\n  and\n  dup2\n  mstore\n  0x20\n  add\n  swap1\n  dup2\n  mstore\n  0x20\n  add\n  0x00\n  keccak256\n    /* \"src/level17.sol\":836:871  balances[_creator] = _initialSupply */\n  dup2\n  swap1\n  sstore\n  pop\n    /* \"src/level17.sol\":729:878  constructor(string memory _name, address _creator, uint256 _initialSupply) {... */\n  pop\n  pop\n  pop\n    /* \"src/level17.sol\":609:1373  contract SimpleToken {... */\n  jump(tag_8)\n    /* \"#utility.yul\":7:82   */\ntag_9:\n    /* \"#utility.yul\":40:46   */\n  0x00\n    /* \"#utility.yul\":73:75   */\n  0x40\n    /* \"#utility.yul\":67:76   */\n  mload\n    /* \"#utility.yul\":57:76   */\n  swap1\n  pop\n    /* \"#utility.yul\":7:82   */\n  swap1\n  jump\t// out\n    /* \"#utility.yul\":88:205   */\ntag_10:\n    /* \"#utility.yul\":197:198   */\n  0x00\n    /* \"#utility.yul\":194:195   */\n  dup1\n    /* \"#utility.yul\":187:199   */\n  revert\n    /* \"#utility.yul\":211:328   */\ntag_11:\n    /* \"#utility.yul\":320:321   */\n  0x00\n    /* \"#utility.yul\":317:318   */\n  dup1\n    /* \"#utility.yul\":310:322   */\n  revert\n    /* \"#utility.yul\":334:451   */\ntag_12:\n    /* \"#utility.yul\":443:444   */\n  0x00\n    /* \"#utility.yul\":440:441   */\n  dup1\n    /* \"#utility.yul\":433:445   */\n  revert\n    /* \"#utility.yul\":457:574   */\ntag_13:\n    /* \"#utility.yul\":566:567   */\n  0x00\n    /* \"#utility.yul\":563:564   */\n  dup1\n    /* \"#utility.yul\":556:568   */\n  revert\n    /* \"#utility.yul\":580:682   */\ntag_14:\n    /* \"#utility.yul\":621:627   */\n  0x00\n    /* \"#utility.yul\":672:674   */\n  0x1f\n    /* \"#utility.yul\":668:675   */\n  not\n    /* \"#utility.yul\":663:665   */\n  0x1f\n    /* \"#utility.yul\":656:661   */\n  dup4\n    /* \"#utility.yul\":652:666   */\n  add\n    /* \"#utility.yul\":648:676   */\n  and\n    /* \"#utility.yul\":638:676   */\n  swap1\n  pop\n    /* \"#utility.yul\":580:682   */\n  swap2\n  swap1\n  pop\n  jump\t// out\n    /* \"#utility.yul\":688:868   */\ntag_15:\n    /* \"#utility.yul\":736:813   */\n  0x4e487b7100000000000000000000000000000000000000000000000000000000\n    /* \"#utility.yul\":733:734   */\n  0x00\n    /* \"#utility.yul\":726:814   */\n  mstore\n    /* \"#utility.yul\":833:837   */\n  0x41\n    /* \"#utility.yul\":830:831   */\n  0x04\n    /* \"#utility.yul\":823:838   */\n  mstore\n    /* \"#utility.yul\":857:861   */\n  0x24\n    /* \"#utility.yul\":854:855   */\n  0x00\n    /* \"#utility.yul\":847:862   */\n  revert\n    /* \"#utility.yul\":874:1155   */\ntag_16:\n    /* \"#utility.yul\":957:984   */\n  tag_56\n    /* \"#utility.yul\":979:983   */\n  dup3\n    /* \"#utility.yul\":957:984   */\n  tag_14\n  jump\t// in\ntag_56:\n    /* \"#utility.yul\":949:955   */\n  dup2\n    /* \"#utility.yul\":945:985   */\n  add\n    /* \"#utility.yul\":1087:1093   */\n  dup2\n    /* \"#utility.yul\":1075:1085   */\n  dup2\n    /* \"#utility.yul\":1072:1094   */\n  lt\n    /* \"#utility.yul\":1051:1069   */\n  0xffffffffffffffff\n    /* \"#utility.yul\":1039:1049   */\n  dup3\n    /* \"#utility.yul\":1036:1070   */\n  gt\n    /* \"#utility.yul\":1033:1095   */\n  or\n    /* \"#utility.yul\":1030:1118   */\n  iszero\n  tag_57\n  jumpi\n    /* \"#utility.yul\":1098:1116   */\n  tag_58\n  tag_15\n  jump\t// in\ntag_58:\n    /* \"#utility.yul\":1030:1118   */\ntag_57:\n    /* \"#utility.yul\":1138:1148   */\n  dup1\n    /* \"#utility.yul\":1134:1136   */\n  0x40\n    /* \"#utility.yul\":1127:1149   */\n  mstore\n    /* \"#utility.yul\":917:1155   */\n  pop\n    /* \"#utility.yul\":874:1155   */\n  pop\n  pop\n  jump\t// out\n    /* \"#utility.yul\":1161:1290   */\ntag_17:\n    /* \"#utility.yul\":1195:1201   */\n  0x00\n    /* \"#utility.yul\":1222:1242   */\n  tag_60\n  tag_9\n  jump\t// in\ntag_60:\n    /* \"#utility.yul\":1212:1242   */\n  swap1\n  pop\n    /* \"#utility.yul\":1251:1284   */\n  tag_61\n    /* \"#utility.yul\":1279:1283   */\n  dup3\n    /* \"#utility.yul\":1271:1277   */\n  dup3\n    /* \"#utility.yul\":1251:1284   */\n  tag_16\n  jump\t// in\ntag_61:\n    /* \"#utility.yul\":1161:1290   */\n  swap2\n  swap1\n  pop\n  jump\t// out\n    /* \"#utility.yul\":1296:1604   */\ntag_18:\n    /* \"#utility.yul\":1358:1362   */\n  0x00\n    /* \"#utility.yul\":1448:1466   */\n  0xffffffffffffffff\n    /* \"#utility.yul\":1440:1446   */\n  dup3\n    /* \"#utility.yul\":1437:1467   */\n  gt\n    /* \"#utility.yul\":1434:1490   */\n  iszero\n  tag_63\n  jumpi\n    /* \"#utility.yul\":1470:1488   */\n  tag_64\n  tag_15\n  jump\t// in\ntag_64:\n    /* \"#utility.yul\":1434:1490   */\ntag_63:\n    /* \"#utility.yul\":1508:1537   */\n  tag_65\n    /* \"#utility.yul\":1530:1536   */\n  dup3\n    /* \"#utility.yul\":1508:1537   */\n  tag_14\n  jump\t// in\ntag_65:\n    /* \"#utility.yul\":1500:1537   */\n  swap1\n  pop\n    /* \"#utility.yul\":1592:1596   */\n  0x20\n    /* \"#utility.yul\":1586:1590   */\n  dup2\n    /* \"#utility.yul\":1582:1597   */\n  add\n    /* \"#utility.yul\":1574:1597   */\n  swap1\n  pop\n    /* \"#utility.yul\":1296:1604   */\n  swap2\n  swap1\n  pop\n  jump\t// out\n    /* \"#utility.yul\":1610:1749   */\ntag_19:\n    /* \"#utility.yul\":1699:1705   */\n  dup3\n    /* \"#utility.yul\":1694:1697   */\n  dup2\n    /* \"#utility.yul\":1689:1692   */\n  dup4\n    /* \"#utility.yul\":1683:1706   */\n  mcopy\n    /* \"#utility.yul\":1740:1741   */\n  0x00\n    /* \"#utility.yul\":1731:1737   */\n  dup4\n    /* \"#utility.yul\":1726:1729   */\n  dup4\n    /* \"#utility.yul\":1722:1738   */\n  add\n    /* \"#utility.yul\":1715:1742   */\n  mstore\n    /* \"#utility.yul\":1610:1749   */\n  pop\n  pop\n  pop\n  jump\t// out\n    /* \"#utility.yul\":1755:2189   */\ntag_20:\n    /* \"#utility.yul\":1844:1849   */\n  0x00\n    /* \"#utility.yul\":1869:1935   */\n  tag_68\n    /* \"#utility.yul\":1885:1934   */\n  tag_69\n    /* \"#utility.yul\":1927:1933   */\n  dup5\n    /* \"#utility.yul\":1885:1934   */\n  tag_18\n  jump\t// in\ntag_69:\n    /* \"#utility.yul\":1869:1935   */\n  tag_17\n  jump\t// in\ntag_68:\n    /* \"#utility.yul\":1860:1935   */\n  swap1\n  pop\n    /* \"#utility.yul\":1958:1964   */\n  dup3\n    /* \"#utility.yul\":1951:1956   */\n  dup2\n    /* \"#utility.yul\":1944:1965   */\n  mstore\n    /* \"#utility.yul\":1996:2000   */\n  0x20\n    /* \"#utility.yul\":1989:1994   */\n  dup2\n    /* \"#utility.yul\":1985:2001   */\n  add\n    /* \"#utility.yul\":2034:2037   */\n  dup5\n    /* \"#utility.yul\":2025:2031   */\n  dup5\n    /* \"#utility.yul\":2020:2023   */\n  dup5\n    /* \"#utility.yul\":2016:2032   */\n  add\n    /* \"#utility.yul\":2013:2038   */\n  gt\n    /* \"#utility.yul\":2010:2122   */\n  iszero\n  tag_70\n  jumpi\n    /* \"#utility.yul\":2041:2120   */\n  tag_71\n  tag_13\n  jump\t// in\ntag_71:\n    /* \"#utility.yul\":2010:2122   */\ntag_70:\n    /* \"#utility.yul\":2131:2183   */\n  tag_72\n    /* \"#utility.yul\":2176:2182   */\n  dup5\n    /* \"#utility.yul\":2171:2174   */\n  dup3\n    /* \"#utility.yul\":2166:2169   */\n  dup6\n    /* \"#utility.yul\":2131:2183   */\n  tag_19\n  jump\t// in\ntag_72:\n    /* \"#utility.yul\":1850:2189   */\n  pop\n    /* \"#utility.yul\":1755:2189   */\n  swap4\n  swap3\n  pop\n  pop\n  pop\n  jump\t// out\n    /* \"#utility.yul\":2209:2564   */\ntag_21:\n    /* \"#utility.yul\":2276:2281   */\n  0x00\n    /* \"#utility.yul\":2325:2328   */\n  dup3\n    /* \"#utility.yul\":2318:2322   */\n  0x1f\n    /* \"#utility.yul\":2310:2316   */\n  dup4\n    /* \"#utility.yul\":2306:2323   */\n  add\n    /* \"#utility.yul\":2302:2329   */\n  slt\n    /* \"#utility.yul\":2292:2414   */\n  tag_74\n  jumpi\n    /* \"#utility.yul\":2333:2412   */\n  tag_75\n  tag_12\n  jump\t// in\ntag_75:\n    /* \"#utility.yul\":2292:2414   */\ntag_74:\n    /* \"#utility.yul\":2443:2449   */\n  dup2\n    /* \"#utility.yul\":2437:2450   */\n  mload\n    /* \"#utility.yul\":2468:2558   */\n  tag_76\n    /* \"#utility.yul\":2554:2557   */\n  dup5\n    /* \"#utility.yul\":2546:2552   */\n  dup3\n    /* \"#utility.yul\":2539:2543   */\n  0x20\n    /* \"#utility.yul\":2531:2537   */\n  dup7\n    /* \"#utility.yul\":2527:2544   */\n  add\n    /* \"#utility.yul\":2468:2558   */\n  tag_20\n  jump\t// in\ntag_76:\n    /* \"#utility.yul\":2459:2558   */\n  swap2\n  pop\n    /* \"#utility.yul\":2282:2564   */\n  pop\n    /* \"#utility.yul\":2209:2564   */\n  swap3\n  swap2\n  pop\n  pop\n  jump\t// out\n    /* \"#utility.yul\":2570:2696   */\ntag_22:\n    /* \"#utility.yul\":2607:2614   */\n  0x00\n    /* \"#utility.yul\":2647:2689   */\n  0xffffffffffffffffffffffffffffffffffffffff\n    /* \"#utility.yul\":2640:2645   */\n  dup3\n    /* \"#utility.yul\":2636:2690   */\n  and\n    /* \"#utility.yul\":2625:2690   */\n  swap1\n  pop\n    /* \"#utility.yul\":2570:2696   */\n  swap2\n  swap1\n  pop\n  jump\t// out\n    /* \"#utility.yul\":2702:2798   */\ntag_23:\n    /* \"#utility.yul\":2739:2746   */\n  0x00\n    /* \"#utility.yul\":2768:2792   */\n  tag_79\n    /* \"#utility.yul\":2786:2791   */\n  dup3\n    /* \"#utility.yul\":2768:2792   */\n  tag_22\n  jump\t// in\ntag_79:\n    /* \"#utility.yul\":2757:2792   */\n  swap1\n  pop\n    /* \"#utility.yul\":2702:2798   */\n  swap2\n  swap1\n  pop\n  jump\t// out\n    /* \"#utility.yul\":2804:2926   */\ntag_24:\n    /* \"#utility.yul\":2877:2901   */\n  tag_81\n    /* \"#utility.yul\":2895:2900   */\n  dup2\n    /* \"#utility.yul\":2877:2901   */\n  tag_23\n  jump\t// in\ntag_81:\n    /* \"#utility.yul\":2870:2875   */\n  dup2\n    /* \"#utility.yul\":2867:2902   */\n  eq\n    /* \"#utility.yul\":2857:2920   */\n  tag_82\n  jumpi\n    /* \"#utility.yul\":2916:2917   */\n  0x00\n    /* \"#utility.yul\":2913:2914   */\n  dup1\n    /* \"#utility.yul\":2906:2918   */\n  revert\n    /* \"#utility.yul\":2857:2920   */\ntag_82:\n    /* \"#utility.yul\":2804:2926   */\n  pop\n  jump\t// out\n    /* \"#utility.yul\":2932:3075   */\ntag_25:\n    /* \"#utility.yul\":2989:2994   */\n  0x00\n    /* \"#utility.yul\":3020:3026   */\n  dup2\n    /* \"#utility.yul\":3014:3027   */\n  mload\n    /* \"#utility.yul\":3005:3027   */\n  swap1\n  pop\n    /* \"#utility.yul\":3036:3069   */\n  tag_84\n    /* \"#utility.yul\":3063:3068   */\n  dup2\n    /* \"#utility.yul\":3036:3069   */\n  tag_24\n  jump\t// in\ntag_84:\n    /* \"#utility.yul\":2932:3075   */\n  swap3\n  swap2\n  pop\n  pop\n  jump\t// out\n    /* \"#utility.yul\":3081:3158   */\ntag_26:\n    /* \"#utility.yul\":3118:3125   */\n  0x00\n    /* \"#utility.yul\":3147:3152   */\n  dup2\n    /* \"#utility.yul\":3136:3152   */\n  swap1\n  pop\n    /* \"#utility.yul\":3081:3158   */\n  swap2\n  swap1\n  pop\n  jump\t// out\n    /* \"#utility.yul\":3164:3286   */\ntag_27:\n    /* \"#utility.yul\":3237:3261   */\n  tag_87\n    /* \"#utility.yul\":3255:3260   */\n  dup2\n    /* \"#utility.yul\":3237:3261   */\n  tag_26\n  jump\t// in\ntag_87:\n    /* \"#utility.yul\":3230:3235   */\n  dup2\n    /* \"#utility.yul\":3227:3262   */\n  eq\n    /* \"#utility.yul\":3217:3280   */\n  tag_88\n  jumpi\n    /* \"#utility.yul\":3276:3277   */\n  0x00\n    /* \"#utility.yul\":3273:3274   */\n  dup1\n    /* \"#utility.yul\":3266:3278   */\n  revert\n    /* \"#utility.yul\":3217:3280   */\ntag_88:\n    /* \"#utility.yul\":3164:3286   */\n  pop\n  jump\t// out\n    /* \"#utility.yul\":3292:3435   */\ntag_28:\n    /* \"#utility.yul\":3349:3354   */\n  0x00\n    /* \"#utility.yul\":3380:3386   */\n  dup2\n    /* \"#utility.yul\":3374:3387   */\n  mload\n    /* \"#utility.yul\":3365:3387   */\n  swap1\n  pop\n    /* \"#utility.yul\":3396:3429   */\n  tag_90\n    /* \"#utility.yul\":3423:3428   */\n  dup2\n    /* \"#utility.yul\":3396:3429   */\n  tag_27\n  jump\t// in\ntag_90:\n    /* \"#utility.yul\":3292:3435   */\n  swap3\n  swap2\n  pop\n  pop\n  jump\t// out\n    /* \"#utility.yul\":3441:4277   */\ntag_3:\n    /* \"#utility.yul\":3539:3545   */\n  0x00\n    /* \"#utility.yul\":3547:3553   */\n  dup1\n    /* \"#utility.yul\":3555:3561   */\n  0x00\n    /* \"#utility.yul\":3604:3606   */\n  0x60\n    /* \"#utility.yul\":3592:3601   */\n  dup5\n    /* \"#utility.yul\":3583:3590   */\n  dup7\n    /* \"#utility.yul\":3579:3602   */\n  sub\n    /* \"#utility.yul\":3575:3607   */\n  slt\n    /* \"#utility.yul\":3572:3691   */\n  iszero\n  tag_92\n  jumpi\n    /* \"#utility.yul\":3610:3689   */\n  tag_93\n  tag_10\n  jump\t// in\ntag_93:\n    /* \"#utility.yul\":3572:3691   */\ntag_92:\n    /* \"#utility.yul\":3751:3752   */\n  0x00\n    /* \"#utility.yul\":3740:3749   */\n  dup5\n    /* \"#utility.yul\":3736:3753   */\n  add\n    /* \"#utility.yul\":3730:3754   */\n  mload\n    /* \"#utility.yul\":3781:3799   */\n  0xffffffffffffffff\n    /* \"#utility.yul\":3773:3779   */\n  dup2\n    /* \"#utility.yul\":3770:3800   */\n  gt\n    /* \"#utility.yul\":3767:3884   */\n  iszero\n  tag_94\n  jumpi\n    /* \"#utility.yul\":3803:3882   */\n  tag_95\n  tag_11\n  jump\t// in\ntag_95:\n    /* \"#utility.yul\":3767:3884   */\ntag_94:\n    /* \"#utility.yul\":3908:3982   */\n  tag_96\n    /* \"#utility.yul\":3974:3981   */\n  dup7\n    /* \"#utility.yul\":3965:3971   */\n  dup3\n    /* \"#utility.yul\":3954:3963   */\n  dup8\n    /* \"#utility.yul\":3950:3972   */\n  add\n    /* \"#utility.yul\":3908:3982   */\n  tag_21\n  jump\t// in\ntag_96:\n    /* \"#utility.yul\":3898:3982   */\n  swap4\n  pop\n    /* \"#utility.yul\":3701:3992   */\n  pop\n    /* \"#utility.yul\":4031:4033   */\n  0x20\n    /* \"#utility.yul\":4057:4121   */\n  tag_97\n    /* \"#utility.yul\":4113:4120   */\n  dup7\n    /* \"#utility.yul\":4104:4110   */\n  dup3\n    /* \"#utility.yul\":4093:4102   */\n  dup8\n    /* \"#utility.yul\":4089:4111   */\n  add\n    /* \"#utility.yul\":4057:4121   */\n  tag_25\n  jump\t// in\ntag_97:\n    /* \"#utility.yul\":4047:4121   */\n  swap3\n  pop\n    /* \"#utility.yul\":4002:4131   */\n  pop\n    /* \"#utility.yul\":4170:4172   */\n  0x40\n    /* \"#utility.yul\":4196:4260   */\n  tag_98\n    /* \"#utility.yul\":4252:4259   */\n  dup7\n    /* \"#utility.yul\":4243:4249   */\n  dup3\n    /* \"#utility.yul\":4232:4241   */\n  dup8\n    /* \"#utility.yul\":4228:4250   */\n  add\n    /* \"#utility.yul\":4196:4260   */\n  tag_28\n  jump\t// in\ntag_98:\n    /* \"#utility.yul\":4186:4260   */\n  swap2\n  pop\n    /* \"#utility.yul\":4141:4270   */\n  pop\n    /* \"#utility.yul\":3441:4277   */\n  swap3\n  pop\n  swap3\n  pop\n  swap3\n  jump\t// out\n    /* \"#utility.yul\":4283:4382   */\ntag_29:\n    /* \"#utility.yul\":4335:4341   */\n  0x00\n    /* \"#utility.yul\":4369:4374   */\n  dup2\n    /* \"#utility.yul\":4363:4375   */\n  mload\n    /* \"#utility.yul\":4353:4375   */\n  swap1\n  pop\n    /* \"#utility.yul\":4283:4382   */\n  swap2\n  swap1\n  pop\n  jump\t// out\n    /* \"#utility.yul\":4388:4568   */\ntag_30:\n    /* \"#utility.yul\":4436:4513   */\n  0x4e487b7100000000000000000000000000000000000000000000000000000000\n    /* \"#utility.yul\":4433:4434   */\n  0x00\n    /* \"#utility.yul\":4426:4514   */\n  mstore\n    /* \"#utility.yul\":4533:4537   */\n  0x22\n    /* \"#utility.yul\":4530:4531   */\n  0x04\n    /* \"#utility.yul\":4523:4538   */\n  mstore\n    /* \"#utility.yul\":4557:4561   */\n  0x24\n    /* \"#utility.yul\":4554:4555   */\n  0x00\n    /* \"#utility.yul\":4547:4562   */\n  revert\n    /* \"#utility.yul\":4574:4894   */\ntag_31:\n    /* \"#utility.yul\":4618:4624   */\n  0x00\n    /* \"#utility.yul\":4655:4656   */\n  0x02\n    /* \"#utility.yul\":4649:4653   */\n  dup3\n    /* \"#utility.yul\":4645:4657   */\n  div\n    /* \"#utility.yul\":4635:4657   */\n  swap1\n  pop\n    /* \"#utility.yul\":4702:4703   */\n  0x01\n    /* \"#utility.yul\":4696:4700   */\n  dup3\n    /* \"#utility.yul\":4692:4704   */\n  and\n    /* \"#utility.yul\":4723:4741   */\n  dup1\n    /* \"#utility.yul\":4713:4794   */\n  tag_102\n  jumpi\n    /* \"#utility.yul\":4779:4783   */\n  0x7f\n    /* \"#utility.yul\":4771:4777   */\n  dup3\n    /* \"#utility.yul\":4767:4784   */\n  and\n    /* \"#utility.yul\":4757:4784   */\n  swap2\n  pop\n    /* \"#utility.yul\":4713:4794   */\ntag_102:\n    /* \"#utility.yul\":4841:4843   */\n  0x20\n    /* \"#utility.yul\":4833:4839   */\n  dup3\n    /* \"#utility.yul\":4830:4844   */\n  lt\n    /* \"#utility.yul\":4810:4828   */\n  dup2\n    /* \"#utility.yul\":4807:4845   */\n  sub\n    /* \"#utility.yul\":4804:4888   */\n  tag_103\n  jumpi\n    /* \"#utility.yul\":4860:4878   */\n  tag_104\n  tag_30\n  jump\t// in\ntag_104:\n    /* \"#utility.yul\":4804:4888   */\ntag_103:\n    /* \"#utility.yul\":4625:4894   */\n  pop\n    /* \"#utility.yul\":4574:4894   */\n  swap2\n  swap1\n  pop\n  jump\t// out\n    /* \"#utility.yul\":4900:5041   */\ntag_32:\n    /* \"#utility.yul\":4949:4953   */\n  0x00\n    /* \"#utility.yul\":4972:4975   */\n  dup2\n    /* \"#utility.yul\":4964:4975   */\n  swap1\n  pop\n    /* \"#utility.yul\":4995:4998   */\n  dup2\n    /* \"#utility.yul\":4992:4993   */\n  0x00\n    /* \"#utility.yul\":4985:4999   */\n  mstore\n    /* \"#utility.yul\":5029:5033   */\n  0x20\n    /* \"#utility.yul\":5026:5027   */\n  0x00\n    /* \"#utility.yul\":5016:5034   */\n  keccak256\n    /* \"#utility.yul\":5008:5034   */\n  swap1\n  pop\n    /* \"#utility.yul\":4900:5041   */\n  swap2\n  swap1\n  pop\n  jump\t// out\n    /* \"#utility.yul\":5047:5140   */\ntag_33:\n    /* \"#utility.yul\":5084:5090   */\n  0x00\n    /* \"#utility.yul\":5131:5133   */\n  0x20\n    /* \"#utility.yul\":5126:5128   */\n  0x1f\n    /* \"#utility.yul\":5119:5124   */\n  dup4\n    /* \"#utility.yul\":5115:5129   */\n  add\n    /* \"#utility.yul\":5111:5134   */\n  div\n    /* \"#utility.yul\":5101:5134   */\n  swap1\n  pop\n    /* \"#utility.yul\":5047:5140   */\n  swap2\n  swap1\n  pop\n  jump\t// out\n    /* \"#utility.yul\":5146:5253   */\ntag_34:\n    /* \"#utility.yul\":5190:5198   */\n  0x00\n    /* \"#utility.yul\":5240:5245   */\n  dup3\n    /* \"#utility.yul\":5234:5238   */\n  dup3\n    /* \"#utility.yul\":5230:5246   */\n  shl\n    /* \"#utility.yul\":5209:5246   */\n  swap1\n  pop\n    /* \"#utility.yul\":5146:5253   */\n  swap3\n  swap2\n  pop\n  pop\n  jump\t// out\n    /* \"#utility.yul\":5259:5652   */\ntag_35:\n    /* \"#utility.yul\":5328:5334   */\n  0x00\n    /* \"#utility.yul\":5378:5379   */\n  0x08\n    /* \"#utility.yul\":5366:5376   */\n  dup4\n    /* \"#utility.yul\":5362:5380   */\n  mul\n    /* \"#utility.yul\":5401:5498   */\n  tag_109\n    /* \"#utility.yul\":5431:5497   */\n  0xffffffffffffffffffffffffffffffffffffffffffffffffffffffffffffffff\n    /* \"#utility.yul\":5420:5429   */\n  dup3\n    /* \"#utility.yul\":5401:5498   */\n  tag_34\n  jump\t// in\ntag_109:\n    /* \"#utility.yul\":5519:5558   */\n  tag_110\n    /* \"#utility.yul\":5549:5557   */\n  dup7\n    /* \"#utility.yul\":5538:5547   */\n  dup4\n    /* \"#utility.yul\":5519:5558   */\n  tag_34\n  jump\t// in\ntag_110:\n    /* \"#utility.yul\":5507:5558   */\n  swap6\n  pop\n    /* \"#utility.yul\":5591:5595   */\n  dup1\n    /* \"#utility.yul\":5587:5596   */\n  not\n    /* \"#utility.yul\":5580:5585   */\n  dup5\n    /* \"#utility.yul\":5576:5597   */\n  and\n    /* \"#utility.yul\":5567:5597   */\n  swap4\n  pop\n    /* \"#utility.yul\":5640:5644   */\n  dup1\n    /* \"#utility.yul\":5630:5638   */\n  dup7\n    /* \"#utility.yul\":5626:5645   */\n  and\n    /* \"#utility.yul\":5619:5624   */\n  dup5\n    /* \"#utility.yul\":5616:5646   */\n  or\n    /* \"#utility.yul\":5606:5646   */\n  swap3\n  pop\n    /* \"#utility.yul\":5335:5652   */\n  pop\n  pop\n    /* \"#utility.yul\":5259:5652   */\n  swap4\n  swap3\n  pop\n  pop\n  pop\n  jump\t// out\n    /* \"#utility.yul\":5658:5718   */\ntag_36:\n    /* \"#utility.yul\":5686:5689   */\n  0x00\n    /* \"#utility.yul\":5707:5712   */\n  dup2\n    /* \"#utility.yul\":5700:5712   */\n  swap1\n  pop\n    /* \"#utility.yul\":5658:5718   */\n  swap2\n  swap1\n  pop\n  jump\t// out\n    /* \"#utility.yul\":5724:5866   */\ntag_37:\n    /* \"#utility.yul\":5774:5783   */\n  0x00\n    /* \"#utility.yul\":5807:5860   */\n  tag_113\n    /* \"#utility.yul\":5825:5859   */\n  tag_114\n    /* \"#utility.yul\":5834:5858   */\n  tag_115\n    /* \"#utility.yul\":5852:5857   */\n  dup5\n    /* \"#utility.yul\":5834:5858   */\n  tag_26\n  jump\t// in\ntag_115:\n    /* \"#utility.yul\":5825:5859   */\n  tag_36\n  jump\t// in\ntag_114:\n    /* \"#utility.yul\":5807:5860   */\n  tag_26\n  jump\t// in\ntag_113:\n    /* \"#utility.yul\":5794:5860   */\n  swap1\n  pop\n    /* \"#utility.yul\":5724:5866   */\n  swap2\n  swap1\n  pop\n  jump\t// out\n    /* \"#utility.yul\":5872:5947   */\ntag_38:\n    /* \"#utility.yul\":5915:5918   */\n  0x00\n    /* \"#utility.yul\":5936:5941   */\n  dup2\n    /* \"#utility.yul\":5929:5941   */\n  swap1\n  pop\n    /* \"#utility.yul\":5872:5947   */\n  swap2\n  swap1\n  pop\n  jump\t// out\n    /* \"#utility.yul\":5953:6222   */\ntag_39:\n    /* \"#utility.yul\":6063:6102   */\n  tag_118\n    /* \"#utility.yul\":6094:6101   */\n  dup4\n    /* \"#utility.yul\":6063:6102   */\n  tag_37\n  jump\t// in\ntag_118:\n    /* \"#utility.yul\":6124:6215   */\n  tag_119\n    /* \"#utility.yul\":6173:6214   */\n  tag_120\n    /* \"#utility.yul\":6197:6213   */\n  dup3\n    /* \"#utility.yul\":6173:6214   */\n  tag_38\n  jump\t// in\ntag_120:\n    /* \"#utility.yul\":6165:6171   */\n  dup5\n    /* \"#utility.yul\":6158:6162   */\n  dup5\n    /* \"#utility.yul\":6152:6163   */\n  sload\n    /* \"#utility.yul\":6124:6215   */\n  tag_35\n  jump\t// in\ntag_119:\n    /* \"#utility.yul\":6118:6122   */\n  dup3\n    /* \"#utility.yul\":6111:6216   */\n  sstore\n    /* \"#utility.yul\":6029:6222   */\n  pop\n    /* \"#utility.yul\":5953:6222   */\n  pop\n  pop\n  pop\n  jump\t// out\n    /* \"#utility.yul\":6228:6301   */\ntag_40:\n    /* \"#utility.yul\":6273:6276   */\n  0x00\n    /* \"#utility.yul\":6228:6301   */\n  swap1\n  jump\t// out\n    /* \"#utility.yul\":6307:6496   */\ntag_41:\n    /* \"#utility.yul\":6384:6416   */\n  tag_123\n  tag_40\n  jump\t// in\ntag_123:\n    /* \"#utility.yul\":6425:6490   */\n  tag_124\n    /* \"#utility.yul\":6483:6489   */\n  dup2\n    /* \"#utility.yul\":6475:6481   */\n  dup5\n    /* \"#utility.yul\":6469:6473   */\n  dup5\n    /* \"#utility.yul\":6425:6490   */\n  tag_39\n  jump\t// in\ntag_124:\n    /* \"#utility.yul\":6360:6496   */\n  pop\n    /* \"#utility.yul\":6307:6496   */\n  pop\n  pop\n  jump\t// out\n    /* \"#utility.yul\":6502:6688   */\ntag_42:\n    /* \"#utility.yul\":6562:6682   */\ntag_126:\n    /* \"#utility.yul\":6579:6582   */\n  dup2\n    /* \"#utility.yul\":6572:6577   */\n  dup2\n    /* \"#utility.yul\":6569:6583   */\n  lt\n    /* \"#utility.yul\":6562:6682   */\n  iszero\n  tag_128\n  jumpi\n    /* \"#utility.yul\":6633:6672   */\n  tag_129\n    /* \"#utility.yul\":6670:6671   */\n  0x00\n    /* \"#utility.yul\":6663:6668   */\n  dup3\n    /* \"#utility.yul\":6633:6672   */\n  tag_41\n  jump\t// in\ntag_129:\n    /* \"#utility.yul\":6606:6607   */\n  0x01\n    /* \"#utility.yul\":6599:6604   */\n  dup2\n    /* \"#utility.yul\":6595:6608   */\n  add\n    /* \"#utility.yul\":6586:6608   */\n  swap1\n  pop\n    /* \"#utility.yul\":6562:6682   */\n  jump(tag_126)\ntag_128:\n    /* \"#utility.yul\":6502:6688   */\n  pop\n  pop\n  jump\t// out\n    /* \"#utility.yul\":6694:7237   */\ntag_43:\n    /* \"#utility.yul\":6795:6797   */\n  0x1f\n    /* \"#utility.yul\":6790:6793   */\n  dup3\n    /* \"#utility.yul\":6787:6798   */\n  gt\n    /* \"#utility.yul\":6784:7230   */\n  iszero\n  tag_131\n  jumpi\n    /* \"#utility.yul\":6829:6867   */\n  tag_132\n    /* \"#utility.yul\":6861:6866   */\n  dup2\n    /* \"#utility.yul\":6829:6867   */\n  tag_32\n  jump\t// in\ntag_132:\n    /* \"#utility.yul\":6913:6942   */\n  tag_133\n    /* \"#utility.yul\":6931:6941   */\n  dup5\n    /* \"#utility.yul\":6913:6942   */\n  tag_33\n  jump\t// in\ntag_133:\n    /* \"#utility.yul\":6903:6911   */\n  dup2\n    /* \"#utility.yul\":6899:6943   */\n  add\n    /* \"#utility.yul\":7096:7098   */\n  0x20\n    /* \"#utility.yul\":7084:7094   */\n  dup6\n    /* \"#utility.yul\":7081:7099   */\n  lt\n    /* \"#utility.yul\":7078:7127   */\n  iszero\n  tag_134\n  jumpi\n    /* \"#utility.yul\":7117:7125   */\n  dup2\n    /* \"#utility.yul\":7102:7125   */\n  swap1\n  pop\n    /* \"#utility.yul\":7078:7127   */\ntag_134:\n    /* \"#utility.yul\":7140:7220   */\n  tag_135\n    /* \"#utility.yul\":7196:7218   */\n  tag_136\n    /* \"#utility.yul\":7214:7217   */\n  dup6\n    /* \"#utility.yul\":7196:7218   */\n  tag_33\n  jump\t// in\ntag_136:\n    /* \"#utility.yul\":7186:7194   */\n  dup4\n    /* \"#utility.yul\":7182:7219   */\n  add\n    /* \"#utility.yul\":7169:7180   */\n  dup3\n    /* \"#utility.yul\":7140:7220   */\n  tag_42\n  jump\t// in\ntag_135:\n    /* \"#utility.yul\":6799:7230   */\n  pop\n  pop\n    /* \"#utility.yul\":6784:7230   */\ntag_131:\n    /* \"#utility.yul\":6694:7237   */\n  pop\n  pop\n  pop\n  jump\t// out\n    /* \"#utility.yul\":7243:7360   */\ntag_44:\n    /* \"#utility.yul\":7297:7305   */\n  0x00\n    /* \"#utility.yul\":7347:7352   */\n  dup3\n    /* \"#utility.yul\":7341:7345   */\n  dup3\n    /* \"#utility.yul\":7337:7353   */\n  shr\n    /* \"#utility.yul\":7316:7353   */\n  swap1\n  pop\n    /* \"#utility.yul\":7243:7360   */\n  swap3\n  swap2\n  pop\n  pop\n  jump\t// out\n    /* \"#utility.yul\":7366:7535   */\ntag_45:\n    /* \"#utility.yul\":7410:7416   */\n  0x00\n    /* \"#utility.yul\":7443:7494   */\n  tag_139\n    /* \"#utility.yul\":7491:7492   */\n  0x00\n    /* \"#utility.yul\":7487:7493   */\n  not\n    /* \"#utility.yul\":7479:7484   */\n  dup5\n    /* \"#utility.yul\":7476:7477   */\n  0x08\n    /* \"#utility.yul\":7472:7485   */\n  mul\n    /* \"#utility.yul\":7443:7494   */\n  tag_44\n  jump\t// in\ntag_139:\n    /* \"#utility.yul\":7439:7495   */\n  not\n    /* \"#utility.yul\":7524:7528   */\n  dup1\n    /* \"#utility.yul\":7518:7522   */\n  dup4\n    /* \"#utility.yul\":7514:7529   */\n  and\n    /* \"#utility.yul\":7504:7529   */\n  swap2\n  pop\n    /* \"#utility.yul\":7417:7535   */\n  pop\n    /* \"#utility.yul\":7366:7535   */\n  swap3\n  swap2\n  pop\n  pop\n  jump\t// out\n    /* \"#utility.yul\":7540:7835   */\ntag_46:\n    /* \"#utility.yul\":7616:7620   */\n  0x00\n    /* \"#utility.yul\":7762:7791   */\n  tag_141\n    /* \"#utility.yul\":7787:7790   */\n  dup4\n    /* \"#utility.yul\":7781:7785   */\n  dup4\n    /* \"#utility.yul\":7762:7791   */\n  tag_45\n  jump\t// in\ntag_141:\n    /* \"#utility.yul\":7754:7791   */\n  swap2\n  pop\n    /* \"#utility.yul\":7824:7827   */\n  dup3\n    /* \"#utility.yul\":7821:7822   */\n  0x02\n    /* \"#utility.yul\":7817:7828   */\n  mul\n    /* \"#utility.yul\":7811:7815   */\n  dup3\n    /* \"#utility.yul\":7808:7829   */\n  or\n    /* \"#utility.yul\":7800:7829   */\n  swap1\n  pop\n    /* \"#utility.yul\":7540:7835   */\n  swap3\n  swap2\n  pop\n  pop\n  jump\t// out\n    /* \"#utility.yul\":7840:9235   */\ntag_7:\n    /* \"#utility.yul\":7957:7994   */\n  tag_143\n    /* \"#utility.yul\":7990:7993   */\n  dup3\n    /* \"#utility.yul\":7957:7994   */\n  tag_29\n  jump\t// in\ntag_143:\n    /* \"#utility.yul\":8059:8077   */\n  0xffffffffffffffff\n    /* \"#utility.yul\":8051:8057   */\n  dup2\n    /* \"#utility.yul\":8048:8078   */\n  gt\n    /* \"#utility.yul\":8045:8101   */\n  iszero\n  tag_144\n  jumpi\n    /* \"#utility.yul\":8081:8099   */\n  tag_145\n  tag_15\n  jump\t// in\ntag_145:\n    /* \"#utility.yul\":8045:8101   */\ntag_144:\n    /* \"#utility.yul\":8125:8163   */\n  tag_146\n    /* \"#utility.yul\":8157:8161   */\n  dup3\n    /* \"#utility.yul\":8151:8162   */\n  sload\n    /* \"#utility.yul\":8125:8163   */\n  tag_31\n  jump\t// in\ntag_146:\n    /* \"#utility.yul\":8210:8277   */\n  tag_147\n    /* \"#utility.yul\":8270:8276   */\n  dup3\n    /* \"#utility.yul\":8262:8268   */\n  dup3\n    /* \"#utility.yul\":8256:8260   */\n  dup6\n    /* \"#utility.yul\":8210:8277   */\n  tag_43\n  jump\t// in\ntag_147:\n    /* \"#utility.yul\":8304:8305   */\n  0x00\n    /* \"#utility.yul\":8328:8332   */\n  0x20\n    /* \"#utility.yul\":8315:8332   */\n  swap1\n  pop\n    /* \"#utility.yul\":8360:8362   */\n  0x1f\n    /* \"#utility.yul\":8352:8358   */\n  dup4\n    /* \"#utility.yul\":8349:8363   */\n  gt\n    /* \"#utility.yul\":8377:8378   */\n  0x01\n    /* \"#utility.yul\":8372:8990   */\n  dup2\n  eq\n  tag_149\n  jumpi\n    /* \"#utility.yul\":9034:9035   */\n  0x00\n    /* \"#utility.yul\":9051:9057   */\n  dup5\n    /* \"#utility.yul\":9048:9125   */\n  iszero\n  tag_150\n  jumpi\n    /* \"#utility.yul\":9100:9109   */\n  dup3\n    /* \"#utility.yul\":9095:9098   */\n  dup8\n    /* \"#utility.yul\":9091:9110   */\n  add\n    /* \"#utility.yul\":9085:9111   */\n  mload\n    /* \"#utility.yul\":9076:9111   */\n  swap1\n  pop\n    /* \"#utility.yul\":9048:9125   */\ntag_150:\n    /* \"#utility.yul\":9151:9218   */\n  tag_151\n    /* \"#utility.yul\":9211:9217   */\n  dup6\n    /* \"#utility.yul\":9204:9209   */\n  dup3\n    /* \"#utility.yul\":9151:9218   */\n  tag_46\n  jump\t// in\ntag_151:\n    /* \"#utility.yul\":9145:9149   */\n  dup7\n    /* \"#utility.yul\":9138:9219   */\n  sstore\n    /* \"#utility.yul\":9007:9229   */\n  pop\n    /* \"#utility.yul\":8342:9229   */\n  jump(tag_148)\n    /* \"#utility.yul\":8372:8990   */\ntag_149:\n    /* \"#utility.yul\":8424:8428   */\n  0x1f\n    /* \"#utility.yul\":8420:8429   */\n  not\n    /* \"#utility.yul\":8412:8418   */\n  dup5\n    /* \"#utility.yul\":8408:8430   */\n  and\n    /* \"#utility.yul\":8458:8495   */\n  tag_152\n    /* \"#utility.yul\":8490:8494   */\n  dup7\n    /* \"#utility.yul\":8458:8495   */\n  tag_32\n  jump\t// in\ntag_152:\n    /* \"#utility.yul\":8517:8518   */\n  0x00\n    /* \"#utility.yul\":8531:8739   */\ntag_153:\n    /* \"#utility.yul\":8545:8552   */\n  dup3\n    /* \"#utility.yul\":8542:8543   */\n  dup2\n    /* \"#utility.yul\":8539:8553   */\n  lt\n    /* \"#utility.yul\":8531:8739   */\n  iszero\n  tag_155\n  jumpi\n    /* \"#utility.yul\":8624:8633   */\n  dup5\n    /* \"#utility.yul\":8619:8622   */\n  dup10\n    /* \"#utility.yul\":8615:8634   */\n  add\n    /* \"#utility.yul\":8609:8635   */\n  mload\n    /* \"#utility.yul\":8601:8607   */\n  dup3\n    /* \"#utility.yul\":8594:8636   */\n  sstore\n    /* \"#utility.yul\":8675:8676   */\n  0x01\n    /* \"#utility.yul\":8667:8673   */\n  dup3\n    /* \"#utility.yul\":8663:8677   */\n  add\n    /* \"#utility.yul\":8653:8677   */\n  swap2\n  pop\n    /* \"#utility.yul\":8722:8724   */\n  0x20\n    /* \"#utility.yul\":8711:8720   */\n  dup6\n    /* \"#utility.yul\":8707:8725   */\n  add\n    /* \"#utility.yul\":8694:8725   */\n  swap5\n  pop\n    /* \"#utility.yul\":8568:8572   */\n  0x20\n    /* \"#utility.yul\":8565:8566   */\n  dup2\n    /* \"#utility.yul\":8561:8573   */\n  add\n    /* \"#utility.yul\":8556:8573   */\n  swap1\n  pop\n    /* \"#utility.yul\":8531:8739   */\n  jump(tag_153)\ntag_155:\n    /* \"#utility.yul\":8767:8773   */\n  dup7\n    /* \"#utility.yul\":8758:8765   */\n  dup4\n    /* \"#utility.yul\":8755:8774   */\n  lt\n    /* \"#utility.yul\":8752:8931   */\n  iszero\n  tag_156\n  jumpi\n    /* \"#utility.yul\":8825:8834   */\n  dup5\n    /* \"#utility.yul\":8820:8823   */\n  dup10\n    /* \"#utility.yul\":8816:8835   */\n  add\n    /* \"#utility.yul\":8810:8836   */\n  mload\n    /* \"#utility.yul\":8868:8916   */\n  tag_157\n    /* \"#utility.yul\":8910:8914   */\n  0x1f\n    /* \"#utility.yul\":8902:8908   */\n  dup10\n    /* \"#utility.yul\":8898:8915   */\n  and\n    /* \"#utility.yul\":8887:8896   */\n  dup3\n    /* \"#utility.yul\":8868:8916   */\n  tag_45\n  jump\t// in\ntag_157:\n    /* \"#utility.yul\":8860:8866   */\n  dup4\n    /* \"#utility.yul\":8853:8917   */\n  sstore\n    /* \"#utility.yul\":8775:8931   */\n  pop\n    /* \"#utility.yul\":8752:8931   */\ntag_156:\n    /* \"#utility.yul\":8977:8978   */\n  0x01\n    /* \"#utility.yul\":8973:8974   */\n  0x02\n    /* \"#utility.yul\":8965:8971   */\n  dup9\n    /* \"#utility.yul\":8961:8975   */\n  mul\n    /* \"#utility.yul\":8957:8979   */\n  add\n    /* \"#utility.yul\":8951:8955   */\n  dup9\n    /* \"#utility.yul\":8944:8980   */\n  sstore\n    /* \"#utility.yul\":8379:8990   */\n  pop\n  pop\n  pop\n    /* \"#utility.yul\":8342:9229   */\ntag_148:\n  pop\n    /* \"#utility.yul\":7932:9235   */\n  pop\n  pop\n  pop\n    /* \"#utility.yul\":7840:9235   */\n  pop\n  pop\n  jump\t// out\n    /* \"src/level17.sol\":609:1373  contract SimpleToken {... */\ntag_8:\n  dataSize(sub_0)\n  dup1\n  dataOffset(sub_0)\n  0x00\n  codecopy\n  0x00\n  return\nstop\n\nsub_0: assembly {\n        /* \"src/level17.sol\":609:1373  contract SimpleToken {... */\n      mstore(0x40, 0x80)\n      jumpi(tag_1, lt(calldatasize, 0x04))\n      shr(0xe0, calldataload(0x00))\n      dup1\n      0xf55d9d\n      eq\n      tag_3\n      jumpi\n      dup1\n      0x06fdde03\n      eq\n      tag_4\n      jumpi\n      dup1\n      0x27e235e3\n      eq\n      tag_5\n      jumpi\n      dup1\n      0xa9059cbb\n      eq\n      tag_6\n      jumpi\n      jump(tag_2)\n    tag_1:\n      jumpi(tag_2, calldatasize)\n        /* \"src/level17.sol\":998:1000  10 */\n      0x0a\n        /* \"src/level17.sol\":986:995  msg.value */\n      callvalue\n        /* \"src/level17.sol\":986:1000  msg.value * 10 */\n      tag_9\n      swap2\n      swap1\n      tag_10\n      jump\t// in\n    tag_9:\n        /* \"src/level17.sol\":963:971  balances */\n      0x01\n        /* \"src/level17.sol\":963:983  balances[msg.sender] */\n      0x00\n        /* \"src/level17.sol\":972:982  msg.sender */\n      caller\n        /* \"src/level17.sol\":963:983  balances[msg.sender] */\n      0xffffffffffffffffffffffffffffffffffffffff\n      and\n      0xffffffffffffffffffffffffffffffffffffffff\n      and\n      dup2\n      mstore\n      0x20\n      add\n      swap1\n      dup2\n      mstore\n      0x20\n      add\n      0x00\n      keccak256\n        /* \"src/level17.sol\":963:1000  balances[msg.sender] = msg.value * 10 */\n      dup2\n      swap1\n      sstore\n      stop\n        /* \"src/level17.sol\":609:1373  contract SimpleToken {... */\n    tag_2:\n      0x00\n      dup1\n      revert\n        /* \"src/level17.sol\":1292:1371  function destroy(address payable _to) public {... */\n    tag_3:\n      callvalue\n      dup1\n      iszero\n      tag_11\n      jumpi\n      0x00\n      dup1\n      revert\n    tag_11:\n      pop\n      tag_12\n      0x04\n      dup1\n      calldatasize\n      sub\n      dup2\n      add\n      swap1\n      tag_13\n      swap2\n      swap1\n      tag_14\n      jump\t// in\n    tag_13:\n      tag_15\n      jump\t// in\n    tag_12:\n      stop\n        /* \"src/level17.sol\":636:654  string public name */\n    tag_4:\n      callvalue\n      dup1\n      iszero\n      tag_16\n      jumpi\n      0x00\n      dup1\n      revert\n    tag_16:\n      pop\n      tag_17\n      tag_18\n      jump\t// in\n    tag_17:\n      mload(0x40)\n      tag_19\n      swap2\n      swap1\n      tag_20\n      jump\t// in\n    tag_19:\n      mload(0x40)\n      dup1\n      swap2\n      sub\n      swap1\n      return\n        /* \"src/level17.sol\":660:703  mapping(address => uint256) public balances */\n    tag_5:\n      callvalue\n      dup1\n      iszero\n      tag_21\n      jumpi\n      0x00\n      dup1\n      revert\n    tag_21:\n      pop\n      tag_22\n      0x04\n      dup1\n      calldatasize\n      sub\n      dup2\n      add\n      swap1\n      tag_23\n      swap2\n      swap1\n      tag_24\n      jump\t// in\n    tag_23:\n      tag_25\n      jump\t// in\n    tag_22:\n      mload(0x40)\n      tag_26\n      swap2\n      swap1\n      tag_27\n      jump\t// in\n    tag_26:\n      mload(0x40)\n      dup1\n      swap2\n      sub\n      swap1\n      return\n        /* \"src/level17.sol\":1046:1254  function transfer(address _to, uint256 _amount) public {... */\n    tag_6:\n      callvalue\n      dup1\n      iszero\n      tag_28\n      jumpi\n      0x00\n      dup1\n      revert\n    tag_28:\n      pop\n      tag_29\n      0x04\n      dup1\n      calldatasize\n      sub\n      dup2\n      add\n      swap1\n      tag_30\n      swap2\n      swap1\n      tag_31\n      jump\t// in\n    tag_30:\n      tag_32\n      jump\t// in\n    tag_29:\n      stop\n        /* \"src/level17.sol\":1292:1371  function destroy(address payable _to) public {... */\n    tag_15:\n        /* \"src/level17.sol\":1360:1363  _to */\n      dup1\n        /* \"src/level17.sol\":1347:1364  selfdestruct(_to) */\n      0xffffffffffffffffffffffffffffffffffffffff\n      and\n      selfdestruct\n        /* \"src/level17.sol\":636:654  string public name */\n    tag_18:\n      0x00\n      dup1\n      sload\n      tag_34\n      swap1\n      tag_35\n      jump\t// in\n    tag_34:\n      dup1\n      0x1f\n      add\n      0x20\n      dup1\n      swap2\n      div\n      mul\n      0x20\n      add\n      mload(0x40)\n      swap1\n      dup2\n      add\n      0x40\n      mstore\n      dup1\n      swap3\n      swap2\n      swap1\n      dup2\n      dup2\n      mstore\n      0x20\n      add\n      dup3\n      dup1\n      sload\n      tag_36\n      swap1\n      tag_35\n      jump\t// in\n    tag_36:\n      dup1\n      iszero\n      tag_37\n      jumpi\n      dup1\n      0x1f\n      lt\n      tag_38\n      jumpi\n      0x0100\n      dup1\n      dup4\n      sload\n      div\n      mul\n      dup4\n      mstore\n      swap2\n      0x20\n      add\n      swap2\n      jump(tag_37)\n    tag_38:\n      dup3\n      add\n      swap2\n      swap1\n      0x00\n      mstore\n      keccak256(0x00, 0x20)\n      swap1\n    tag_39:\n      dup2\n      sload\n      dup2\n      mstore\n      swap1\n      0x01\n      add\n      swap1\n      0x20\n      add\n      dup1\n      dup4\n      gt\n      tag_39\n      jumpi\n      dup3\n      swap1\n      sub\n      0x1f\n      and\n      dup3\n      add\n      swap2\n    tag_37:\n      pop\n      pop\n      pop\n      pop\n      pop\n      dup2\n      jump\t// out\n        /* \"src/level17.sol\":660:703  mapping(address => uint256) public balances */\n    tag_25:\n      mstore(0x20, 0x01)\n      dup1\n      0x00\n      mstore\n      keccak256(0x00, 0x40)\n      0x00\n      swap2\n      pop\n      swap1\n      pop\n      sload\n      dup2\n      jump\t// out\n        /* \"src/level17.sol\":1046:1254  function transfer(address _to, uint256 _amount) public {... */\n    tag_32:\n        /* \"src/level17.sol\":1143:1150  _amount */\n      dup1\n        /* \"src/level17.sol\":1119:1127  balances */\n      0x01\n        /* \"src/level17.sol\":1119:1139  balances[msg.sender] */\n      0x00\n        /* \"src/level17.sol\":1128:1138  msg.sender */\n      caller\n        /* \"src/level17.sol\":1119:1139  balances[msg.sender] */\n      0xffffffffffffffffffffffffffffffffffffffff\n      and\n      0xffffffffffffffffffffffffffffffffffffffff\n      and\n      dup2\n      mstore\n      0x20\n      add\n      swap1\n      dup2\n      mstore\n      0x20\n      add\n      0x00\n      keccak256\n      sload\n        /* \"src/level17.sol\":1119:1150  balances[msg.sender] >= _amount */\n      lt\n      iszero\n        /* \"src/level17.sol\":1111:1151  require(balances[msg.sender] >= _amount) */\n      tag_41\n      jumpi\n      0x00\n      dup1\n      revert\n    tag_41:\n        /* \"src/level17.sol\":1207:1214  _amount */\n      dup1\n        /* \"src/level17.sol\":1184:1192  balances */\n      0x01\n        /* \"src/level17.sol\":1184:1204  balances[msg.sender] */\n      0x00\n        /* \"src/level17.sol\":1193:1203  msg.sender */\n      caller\n        /* \"src/level17.sol\":1184:1204  balances[msg.sender] */\n      0xffffffffffffffffffffffffffffffffffffffff\n      and\n      0xffffffffffffffffffffffffffffffffffffffff\n      and\n      dup2\n      mstore\n      0x20\n      add\n      swap1\n      dup2\n      mstore\n      0x20\n      add\n      0x00\n      keccak256\n      sload\n        /* \"src/level17.sol\":1184:1214  balances[msg.sender] - _amount */\n      tag_42\n      swap2\n      swap1\n      tag_43\n      jump\t// in\n    tag_42:\n        /* \"src/level17.sol\":1161:1169  balances */\n      0x01\n        /* \"src/level17.sol\":1161:1181  balances[msg.sender] */\n      0x00\n        /* \"src/level17.sol\":1170:1180  msg.sender */\n      caller\n        /* \"src/level17.sol\":1161:1181  balances[msg.sender] */\n      0xffffffffffffffffffffffffffffffffffffffff\n      and\n      0xffffffffffffffffffffffffffffffffffffffff\n      and\n      dup2\n      mstore\n      0x20\n      add\n      swap1\n      dup2\n      mstore\n      0x20\n      add\n      0x00\n      keccak256\n        /* \"src/level17.sol\":1161:1214  balances[msg.sender] = balances[msg.sender] - _amount */\n      dup2\n      swap1\n      sstore\n      pop\n        /* \"src/level17.sol\":1240:1247  _amount */\n      dup1\n        /* \"src/level17.sol\":1224:1232  balances */\n      0x01\n        /* \"src/level17.sol\":1224:1237  balances[_to] */\n      0x00\n        /* \"src/level17.sol\":1233:1236  _to */\n      dup5\n        /* \"src/level17.sol\":1224:1237  balances[_to] */\n      0xffffffffffffffffffffffffffffffffffffffff\n      and\n      0xffffffffffffffffffffffffffffffffffffffff\n      and\n      dup2\n      mstore\n      0x20\n      add\n      swap1\n      dup2\n      mstore\n      0x20\n      add\n      0x00\n      keccak256\n        /* \"src/level17.sol\":1224:1247  balances[_to] = _amount */\n      dup2\n      swap1\n      sstore\n      pop\n        /* \"src/level17.sol\":1046:1254  function transfer(address _to, uint256 _amount) public {... */\n      pop\n      pop\n      jump\t// out\n        /* \"#utility.yul\":7:84   */\n    tag_44:\n        /* \"#utility.yul\":44:51   */\n      0x00\n        /* \"#utility.yul\":73:78   */\n      dup2\n        /* \"#utility.yul\":62:78   */\n      swap1\n      pop\n        /* \"#utility.yul\":7:84   */\n      swap2\n      swap1\n      pop\n      jump\t// out\n        /* \"#utility.yul\":90:270   */\n    tag_45:\n        /* \"#utility.yul\":138:215   */\n      0x4e487b7100000000000000000000000000000000000000000000000000000000\n        /* \"#utility.yul\":135:136   */\n      0x00\n        /* \"#utility.yul\":128:216   */\n      mstore\n        /* \"#utility.yul\":235:239   */\n      0x11\n        /* \"#utility.yul\":232:233   */\n      0x04\n        /* \"#utility.yul\":225:240   */\n      mstore\n        /* \"#utility.yul\":259:263   */\n      0x24\n        /* \"#utility.yul\":256:257   */\n      0x00\n        /* \"#utility.yul\":249:264   */\n      revert\n        /* \"#utility.yul\":276:686   */\n    tag_10:\n        /* \"#utility.yul\":316:323   */\n      0x00\n        /* \"#utility.yul\":339:359   */\n      tag_69\n        /* \"#utility.yul\":357:358   */\n      dup3\n        /* \"#utility.yul\":339:359   */\n      tag_44\n      jump\t// in\n    tag_69:\n        /* \"#utility.yul\":334:359   */\n      swap2\n      pop\n        /* \"#utility.yul\":373:393   */\n      tag_70\n        /* \"#utility.yul\":391:392   */\n      dup4\n        /* \"#utility.yul\":373:393   */\n      tag_44\n      jump\t// in\n    tag_70:\n        /* \"#utility.yul\":368:393   */\n      swap3\n      pop\n        /* \"#utility.yul\":428:429   */\n      dup3\n        /* \"#utility.yul\":425:426   */\n      dup3\n        /* \"#utility.yul\":421:430   */\n      mul\n        /* \"#utility.yul\":450:480   */\n      tag_71\n        /* \"#utility.yul\":468:479   */\n      dup2\n        /* \"#utility.yul\":450:480   */\n      tag_44\n      jump\t// in\n    tag_71:\n        /* \"#utility.yul\":439:480   */\n      swap2\n      pop\n        /* \"#utility.yul\":629:630   */\n      dup3\n        /* \"#utility.yul\":620:627   */\n      dup3\n        /* \"#utility.yul\":616:631   */\n      div\n        /* \"#utility.yul\":613:614   */\n      dup5\n        /* \"#utility.yul\":610:632   */\n      eq\n        /* \"#utility.yul\":590:591   */\n      dup4\n        /* \"#utility.yul\":583:592   */\n      iszero\n        /* \"#utility.yul\":563:646   */\n      or\n        /* \"#utility.yul\":540:679   */\n      tag_72\n      jumpi\n        /* \"#utility.yul\":659:677   */\n      tag_73\n      tag_45\n      jump\t// in\n    tag_73:\n        /* \"#utility.yul\":540:679   */\n    tag_72:\n        /* \"#utility.yul\":324:686   */\n      pop\n        /* \"#utility.yul\":276:686   */\n      swap3\n      swap2\n      pop\n      pop\n      jump\t// out\n        /* \"#utility.yul\":773:890   */\n    tag_47:\n        /* \"#utility.yul\":882:883   */\n      0x00\n        /* \"#utility.yul\":879:880   */\n      dup1\n        /* \"#utility.yul\":872:884   */\n      revert\n        /* \"#utility.yul\":1019:1145   */\n    tag_49:\n        /* \"#utility.yul\":1056:1063   */\n      0x00\n        /* \"#utility.yul\":1096:1138   */\n      0xffffffffffffffffffffffffffffffffffffffff\n        /* \"#utility.yul\":1089:1094   */\n      dup3\n        /* \"#utility.yul\":1085:1139   */\n      and\n        /* \"#utility.yul\":1074:1139   */\n      swap1\n      pop\n        /* \"#utility.yul\":1019:1145   */\n      swap2\n      swap1\n      pop\n      jump\t// out\n        /* \"#utility.yul\":1151:1255   */\n    tag_50:\n        /* \"#utility.yul\":1196:1203   */\n      0x00\n        /* \"#utility.yul\":1225:1249   */\n      tag_79\n        /* \"#utility.yul\":1243:1248   */\n      dup3\n        /* \"#utility.yul\":1225:1249   */\n      tag_49\n      jump\t// in\n    tag_79:\n        /* \"#utility.yul\":1214:1249   */\n      swap1\n      pop\n        /* \"#utility.yul\":1151:1255   */\n      swap2\n      swap1\n      pop\n      jump\t// out\n        /* \"#utility.yul\":1261:1399   */\n    tag_51:\n        /* \"#utility.yul\":1342:1374   */\n      tag_81\n        /* \"#utility.yul\":1368:1373   */\n      dup2\n        /* \"#utility.yul\":1342:1374   */\n      tag_50\n      jump\t// in\n    tag_81:\n        /* \"#utility.yul\":1335:1340   */\n      dup2\n        /* \"#utility.yul\":1332:1375   */\n      eq\n        /* \"#utility.yul\":1322:1393   */\n      tag_82\n      jumpi\n        /* \"#utility.yul\":1389:1390   */\n      0x00\n        /* \"#utility.yul\":1386:1387   */\n      dup1\n        /* \"#utility.yul\":1379:1391   */\n      revert\n        /* \"#utility.yul\":1322:1393   */\n    tag_82:\n        /* \"#utility.yul\":1261:1399   */\n      pop\n      jump\t// out\n        /* \"#utility.yul\":1405:1560   */\n    tag_52:\n        /* \"#utility.yul\":1459:1464   */\n      0x00\n        /* \"#utility.yul\":1497:1503   */\n      dup2\n        /* \"#utility.yul\":1484:1504   */\n      calldataload\n        /* \"#utility.yul\":1475:1504   */\n      swap1\n      pop\n        /* \"#utility.yul\":1513:1554   */\n      tag_84\n        /* \"#utility.yul\":1548:1553   */\n      dup2\n        /* \"#utility.yul\":1513:1554   */\n      tag_51\n      jump\t// in\n    tag_84:\n        /* \"#utility.yul\":1405:1560   */\n      swap3\n      swap2\n      pop\n      pop\n      jump\t// out\n        /* \"#utility.yul\":1566:1911   */\n    tag_14:\n        /* \"#utility.yul\":1633:1639   */\n      0x00\n        /* \"#utility.yul\":1682:1684   */\n      0x20\n        /* \"#utility.yul\":1670:1679   */\n      dup3\n        /* \"#utility.yul\":1661:1668   */\n      dup5\n        /* \"#utility.yul\":1657:1680   */\n      sub\n        /* \"#utility.yul\":1653:1685   */\n      slt\n        /* \"#utility.yul\":1650:1769   */\n      iszero\n      tag_86\n      jumpi\n        /* \"#utility.yul\":1688:1767   */\n      tag_87\n      tag_47\n      jump\t// in\n    tag_87:\n        /* \"#utility.yul\":1650:1769   */\n    tag_86:\n        /* \"#utility.yul\":1808:1809   */\n      0x00\n        /* \"#utility.yul\":1833:1894   */\n      tag_88\n        /* \"#utility.yul\":1886:1893   */\n      dup5\n        /* \"#utility.yul\":1877:1883   */\n      dup3\n        /* \"#utility.yul\":1866:1875   */\n      dup6\n        /* \"#utility.yul\":1862:1884   */\n      add\n        /* \"#utility.yul\":1833:1894   */\n      tag_52\n      jump\t// in\n    tag_88:\n        /* \"#utility.yul\":1823:1894   */\n      swap2\n      pop\n        /* \"#utility.yul\":1779:1904   */\n      pop\n        /* \"#utility.yul\":1566:1911   */\n      swap3\n      swap2\n      pop\n      pop\n      jump\t// out\n        /* \"#utility.yul\":1917:2016   */\n    tag_53:\n        /* \"#utility.yul\":1969:1975   */\n      0x00\n        /* \"#utility.yul\":2003:2008   */\n      dup2\n        /* \"#utility.yul\":1997:2009   */\n      mload\n        /* \"#utility.yul\":1987:2009   */\n      swap1\n      pop\n        /* \"#utility.yul\":1917:2016   */\n      swap2\n      swap1\n      pop\n      jump\t// out\n        /* \"#utility.yul\":2022:2191   */\n    tag_54:\n        /* \"#utility.yul\":2106:2117   */\n      0x00\n        /* \"#utility.yul\":2140:2146   */\n      dup3\n        /* \"#utility.yul\":2135:2138   */\n      dup3\n        /* \"#utility.yul\":2128:2147   */\n      mstore\n        /* \"#utility.yul\":2180:2184   */\n      0x20\n        /* \"#utility.yul\":2175:2178   */\n      dup3\n        /* \"#utility.yul\":2171:2185   */\n      add\n        /* \"#utility.yul\":2156:2185   */\n      swap1\n      pop\n        /* \"#utility.yul\":2022:2191   */\n      swap3\n      swap2\n      pop\n      pop\n      jump\t// out\n        /* \"#utility.yul\":2197:2336   */\n    tag_55:\n        /* \"#utility.yul\":2286:2292   */\n      dup3\n        /* \"#utility.yul\":2281:2284   */\n      dup2\n        /* \"#utility.yul\":2276:2279   */\n      dup4\n        /* \"#utility.yul\":2270:2293   */\n      mcopy\n        /* \"#utility.yul\":2327:2328   */\n      0x00\n        /* \"#utility.yul\":2318:2324   */\n      dup4\n        /* \"#utility.yul\":2313:2316   */\n      dup4\n        /* \"#utility.yul\":2309:2325   */\n      add\n        /* \"#utility.yul\":2302:2329   */\n      mstore\n        /* \"#utility.yul\":2197:2336   */\n      pop\n      pop\n      pop\n      jump\t// out\n        /* \"#utility.yul\":2342:2444   */\n    tag_56:\n        /* \"#utility.yul\":2383:2389   */\n      0x00\n        /* \"#utility.yul\":2434:2436   */\n      0x1f\n        /* \"#utility.yul\":2430:2437   */\n      not\n        /* \"#utility.yul\":2425:2427   */\n      0x1f\n        /* \"#utility.yul\":2418:2423   */\n      dup4\n        /* \"#utility.yul\":2414:2428   */\n      add\n        /* \"#utility.yul\":2410:2438   */\n      and\n        /* \"#utility.yul\":2400:2438   */\n      swap1\n      pop\n        /* \"#utility.yul\":2342:2444   */\n      swap2\n      swap1\n      pop\n      jump\t// out\n        /* \"#utility.yul\":2450:2827   */\n    tag_57:\n        /* \"#utility.yul\":2538:2541   */\n      0x00\n        /* \"#utility.yul\":2566:2605   */\n      tag_94\n        /* \"#utility.yul\":2599:2604   */\n      dup3\n        /* \"#utility.yul\":2566:2605   */\n      tag_53\n      jump\t// in\n    tag_94:\n        /* \"#utility.yul\":2621:2692   */\n      tag_95\n        /* \"#utility.yul\":2685:2691   */\n      dup2\n        /* \"#utility.yul\":2680:2683   */\n      dup6\n        /* \"#utility.yul\":2621:2692   */\n      tag_54\n      jump\t// in\n    tag_95:\n        /* \"#utility.yul\":2614:2692   */\n      swap4\n      pop\n        /* \"#utility.yul\":2701:2766   */\n      tag_96\n        /* \"#utility.yul\":2759:2765   */\n      dup2\n        /* \"#utility.yul\":2754:2757   */\n      dup6\n        /* \"#utility.yul\":2747:2751   */\n      0x20\n        /* \"#utility.yul\":2740:2745   */\n      dup7\n        /* \"#utility.yul\":2736:2752   */\n      add\n        /* \"#utility.yul\":2701:2766   */\n      tag_55\n      jump\t// in\n    tag_96:\n        /* \"#utility.yul\":2791:2820   */\n      tag_97\n        /* \"#utility.yul\":2813:2819   */\n      dup2\n        /* \"#utility.yul\":2791:2820   */\n      tag_56\n      jump\t// in\n    tag_97:\n        /* \"#utility.yul\":2786:2789   */\n      dup5\n        /* \"#utility.yul\":2782:2821   */\n      add\n        /* \"#utility.yul\":2775:2821   */\n      swap2\n      pop\n        /* \"#utility.yul\":2542:2827   */\n      pop\n        /* \"#utility.yul\":2450:2827   */\n      swap3\n      swap2\n      pop\n      pop\n      jump\t// out\n        /* \"#utility.yul\":2833:3146   */\n    tag_20:\n        /* \"#utility.yul\":2946:2950   */\n      0x00\n        /* \"#utility.yul\":2984:2986   */\n      0x20\n        /* \"#utility.yul\":2973:2982   */\n      dup3\n        /* \"#utility.yul\":2969:2987   */\n      add\n        /* \"#utility.yul\":2961:2987   */\n      swap1\n      pop\n        /* \"#utility.yul\":3033:3042   */\n      dup2\n        /* \"#utility.yul\":3027:3031   */\n      dup2\n        /* \"#utility.yul\":3023:3043   */\n      sub\n        /* \"#utility.yul\":3019:3020   */\n      0x00\n        /* \"#utility.yul\":3008:3017   */\n      dup4\n        /* \"#utility.yul\":3004:3021   */\n      add\n        /* \"#utility.yul\":2997:3044   */\n      mstore\n        /* \"#utility.yul\":3061:3139   */\n      tag_99\n        /* \"#utility.yul\":3134:3138   */\n      dup2\n        /* \"#utility.yul\":3125:3131   */\n      dup5\n        /* \"#utility.yul\":3061:3139   */\n      tag_57\n      jump\t// in\n    tag_99:\n        /* \"#utility.yul\":3053:3139   */\n      swap1\n      pop\n        /* \"#utility.yul\":2833:3146   */\n      swap3\n      swap2\n      pop\n      pop\n      jump\t// out\n        /* \"#utility.yul\":3152:3248   */\n    tag_58:\n        /* \"#utility.yul\":3189:3196   */\n      0x00\n        /* \"#utility.yul\":3218:3242   */\n      tag_101\n        /* \"#utility.yul\":3236:3241   */\n      dup3\n        /* \"#utility.yul\":3218:3242   */\n      tag_49\n      jump\t// in\n    tag_101:\n        /* \"#utility.yul\":3207:3242   */\n      swap1\n      pop\n        /* \"#utility.yul\":3152:3248   */\n      swap2\n      swap1\n      pop\n      jump\t// out\n        /* \"#utility.yul\":3254:3376   */\n    tag_59:\n        /* \"#utility.yul\":3327:3351   */\n      tag_103\n        /* \"#utility.yul\":3345:3350   */\n      dup2\n        /* \"#utility.yul\":3327:3351   */\n      tag_58\n      jump\t// in\n    tag_103:\n        /* \"#utility.yul\":3320:3325   */\n      dup2\n        /* \"#utility.yul\":3317:3352   */\n      eq\n        /* \"#utility.yul\":3307:3370   */\n      tag_104\n      jumpi\n        /* \"#utility.yul\":3366:3367   */\n      0x00\n        /* \"#utility.yul\":3363:3364   */\n      dup1\n        /* \"#utility.yul\":3356:3368   */\n      revert\n        /* \"#utility.yul\":3307:3370   */\n    tag_104:\n        /* \"#utility.yul\":3254:3376   */\n      pop\n      jump\t// out\n        /* \"#utility.yul\":3382:3521   */\n    tag_60:\n        /* \"#utility.yul\":3428:3433   */\n      0x00\n        /* \"#utility.yul\":3466:3472   */\n      dup2\n        /* \"#utility.yul\":3453:3473   */\n      calldataload\n        /* \"#utility.yul\":3444:3473   */\n      swap1\n      pop\n        /* \"#utility.yul\":3482:3515   */\n      tag_106\n        /* \"#utility.yul\":3509:3514   */\n      dup2\n        /* \"#utility.yul\":3482:3515   */\n      tag_59\n      jump\t// in\n    tag_106:\n        /* \"#utility.yul\":3382:3521   */\n      swap3\n      swap2\n      pop\n      pop\n      jump\t// out\n        /* \"#utility.yul\":3527:3856   */\n    tag_24:\n        /* \"#utility.yul\":3586:3592   */\n      0x00\n        /* \"#utility.yul\":3635:3637   */\n      0x20\n        /* \"#utility.yul\":3623:3632   */\n      dup3\n        /* \"#utility.yul\":3614:3621   */\n      dup5\n        /* \"#utility.yul\":3610:3633   */\n      sub\n        /* \"#utility.yul\":3606:3638   */\n      slt\n        /* \"#utility.yul\":3603:3722   */\n      iszero\n      tag_108\n      jumpi\n        /* \"#utility.yul\":3641:3720   */\n      tag_109\n      tag_47\n      jump\t// in\n    tag_109:\n        /* \"#utility.yul\":3603:3722   */\n    tag_108:\n        /* \"#utility.yul\":3761:3762   */\n      0x00\n        /* \"#utility.yul\":3786:3839   */\n      tag_110\n        /* \"#utility.yul\":3831:3838   */\n      dup5\n        /* \"#utility.yul\":3822:3828   */\n      dup3\n        /* \"#utility.yul\":3811:3820   */\n      dup6\n        /* \"#utility.yul\":3807:3829   */\n      add\n        /* \"#utility.yul\":3786:3839   */\n      tag_60\n      jump\t// in\n    tag_110:\n        /* \"#utility.yul\":3776:3839   */\n      swap2\n      pop\n        /* \"#utility.yul\":3732:3849   */\n      pop\n        /* \"#utility.yul\":3527:3856   */\n      swap3\n      swap2\n      pop\n      pop\n      jump\t// out\n        /* \"#utility.yul\":3862:3980   */\n    tag_61:\n        /* \"#utility.yul\":3949:3973   */\n      tag_112\n        /* \"#utility.yul\":3967:3972   */\n      dup2\n        /* \"#utility.yul\":3949:3973   */\n      tag_44\n      jump\t// in\n    tag_112:\n        /* \"#utility.yul\":3944:3947   */\n      dup3\n        /* \"#utility.yul\":3937:3974   */\n      mstore\n        /* \"#utility.yul\":3862:3980   */\n      pop\n      pop\n      jump\t// out\n        /* \"#utility.yul\":3986:4208   */\n    tag_27:\n        /* \"#utility.yul\":4079:4083   */\n      0x00\n        /* \"#utility.yul\":4117:4119   */\n      0x20\n        /* \"#utility.yul\":4106:4115   */\n      dup3\n        /* \"#utility.yul\":4102:4120   */\n      add\n        /* \"#utility.yul\":4094:4120   */\n      swap1\n      pop\n        /* \"#utility.yul\":4130:4201   */\n      tag_114\n        /* \"#utility.yul\":4198:4199   */\n      0x00\n        /* \"#utility.yul\":4187:4196   */\n      dup4\n        /* \"#utility.yul\":4183:4200   */\n      add\n        /* \"#utility.yul\":4174:4180   */\n      dup5\n        /* \"#utility.yul\":4130:4201   */\n      tag_61\n      jump\t// in\n    tag_114:\n        /* \"#utility.yul\":3986:4208   */\n      swap3\n      swap2\n      pop\n      pop\n      jump\t// out\n        /* \"#utility.yul\":4214:4336   */\n    tag_62:\n        /* \"#utility.yul\":4287:4311   */\n      tag_116\n        /* \"#utility.yul\":4305:4310   */\n      dup2\n        /* \"#utility.yul\":4287:4311   */\n      tag_44\n      jump\t// in\n    tag_116:\n        /* \"#utility.yul\":4280:4285   */\n      dup2\n        /* \"#utility.yul\":4277:4312   */\n      eq\n        /* \"#utility.yul\":4267:4330   */\n      tag_117\n      jumpi\n        /* \"#utility.yul\":4326:4327   */\n      0x00\n        /* \"#utility.yul\":4323:4324   */\n      dup1\n        /* \"#utility.yul\":4316:4328   */\n      revert\n        /* \"#utility.yul\":4267:4330   */\n    tag_117:\n        /* \"#utility.yul\":4214:4336   */\n      pop\n      jump\t// out\n        /* \"#utility.yul\":4342:4481   */\n    tag_63:\n        /* \"#utility.yul\":4388:4393   */\n      0x00\n        /* \"#utility.yul\":4426:4432   */\n      dup2\n        /* \"#utility.yul\":4413:4433   */\n      calldataload\n        /* \"#utility.yul\":4404:4433   */\n      swap1\n      pop\n        /* \"#utility.yul\":4442:4475   */\n      tag_119\n        /* \"#utility.yul\":4469:4474   */\n      dup2\n        /* \"#utility.yul\":4442:4475   */\n      tag_62\n      jump\t// in\n    tag_119:\n        /* \"#utility.yul\":4342:4481   */\n      swap3\n      swap2\n      pop\n      pop\n      jump\t// out\n        /* \"#utility.yul\":4487:4961   */\n    tag_31:\n        /* \"#utility.yul\":4555:4561   */\n      0x00\n        /* \"#utility.yul\":4563:4569   */\n      dup1\n        /* \"#utility.yul\":4612:4614   */\n      0x40\n        /* \"#utility.yul\":4600:4609   */\n      dup4\n        /* \"#utility.yul\":4591:4598   */\n      dup6\n        /* \"#utility.yul\":4587:4610   */\n      sub\n        /* \"#utility.yul\":4583:4615   */\n      slt\n        /* \"#utility.yul\":4580:4699   */\n      iszero\n      tag_121\n      jumpi\n        /* \"#utility.yul\":4618:4697   */\n      tag_122\n      tag_47\n      jump\t// in\n    tag_122:\n        /* \"#utility.yul\":4580:4699   */\n    tag_121:\n        /* \"#utility.yul\":4738:4739   */\n      0x00\n        /* \"#utility.yul\":4763:4816   */\n      tag_123\n        /* \"#utility.yul\":4808:4815   */\n      dup6\n        /* \"#utility.yul\":4799:4805   */\n      dup3\n        /* \"#utility.yul\":4788:4797   */\n      dup7\n        /* \"#utility.yul\":4784:4806   */\n      add\n        /* \"#utility.yul\":4763:4816   */\n      tag_60\n      jump\t// in\n    tag_123:\n        /* \"#utility.yul\":4753:4816   */\n      swap3\n      pop\n        /* \"#utility.yul\":4709:4826   */\n      pop\n        /* \"#utility.yul\":4865:4867   */\n      0x20\n        /* \"#utility.yul\":4891:4944   */\n      tag_124\n        /* \"#utility.yul\":4936:4943   */\n      dup6\n        /* \"#utility.yul\":4927:4933   */\n      dup3\n        /* \"#utility.yul\":4916:4925   */\n      dup7\n        /* \"#utility.yul\":4912:4934   */\n      add\n        /* \"#utility.yul\":4891:4944   */\n      tag_63\n      jump\t// in\n    tag_124:\n        /* \"#utility.yul\":4881:4944   */\n      swap2\n      pop\n        /* \"#utility.yul\":4836:4954   */\n      pop\n        /* \"#utility.yul\":4487:4961   */\n      swap3\n      pop\n      swap3\n      swap1\n      pop\n      jump\t// out\n        /* \"#utility.yul\":4967:5147   */\n    tag_64:\n        /* \"#utility.yul\":5015:5092   */\n      0x4e487b7100000000000000000000000000000000000000000000000000000000\n        /* \"#utility.yul\":5012:5013   */\n      0x00\n        /* \"#utility.yul\":5005:5093   */\n      mstore\n        /* \"#utility.yul\":5112:5116   */\n      0x22\n        /* \"#utility.yul\":5109:5110   */\n      0x04\n        /* \"#utility.yul\":5102:5117   */\n      mstore\n        /* \"#utility.yul\":5136:5140   */\n      0x24\n        /* \"#utility.yul\":5133:5134   */\n      0x00\n        /* \"#utility.yul\":5126:5141   */\n      revert\n        /* \"#utility.yul\":5153:5473   */\n    tag_35:\n        /* \"#utility.yul\":5197:5203   */\n      0x00\n        /* \"#utility.yul\":5234:5235   */\n      0x02\n        /* \"#utility.yul\":5228:5232   */\n      dup3\n        /* \"#utility.yul\":5224:5236   */\n      div\n        /* \"#utility.yul\":5214:5236   */\n      swap1\n      pop\n        /* \"#utility.yul\":5281:5282   */\n      0x01\n        /* \"#utility.yul\":5275:5279   */\n      dup3\n        /* \"#utility.yul\":5271:5283   */\n      and\n        /* \"#utility.yul\":5302:5320   */\n      dup1\n        /* \"#utility.yul\":5292:5373   */\n      tag_127\n      jumpi\n        /* \"#utility.yul\":5358:5362   */\n      0x7f\n        /* \"#utility.yul\":5350:5356   */\n      dup3\n        /* \"#utility.yul\":5346:5363   */\n      and\n        /* \"#utility.yul\":5336:5363   */\n      swap2\n      pop\n        /* \"#utility.yul\":5292:5373   */\n    tag_127:\n        /* \"#utility.yul\":5420:5422   */\n      0x20\n        /* \"#utility.yul\":5412:5418   */\n      dup3\n        /* \"#utility.yul\":5409:5423   */\n      lt\n        /* \"#utility.yul\":5389:5407   */\n      dup2\n        /* \"#utility.yul\":5386:5424   */\n      sub\n        /* \"#utility.yul\":5383:5467   */\n      tag_128\n      jumpi\n        /* \"#utility.yul\":5439:5457   */\n      tag_129\n      tag_64\n      jump\t// in\n    tag_129:\n        /* \"#utility.yul\":5383:5467   */\n    tag_128:\n        /* \"#utility.yul\":5204:5473   */\n      pop\n        /* \"#utility.yul\":5153:5473   */\n      swap2\n      swap1\n      pop\n      jump\t// out\n        /* \"#utility.yul\":5479:5673   */\n    tag_43:\n        /* \"#utility.yul\":5519:5523   */\n      0x00\n        /* \"#utility.yul\":5539:5559   */\n      tag_131\n        /* \"#utility.yul\":5557:5558   */\n      dup3\n        /* \"#utility.yul\":5539:5559   */\n      tag_44\n      jump\t// in\n    tag_131:\n        /* \"#utility.yul\":5534:5559   */\n      swap2\n      pop\n        /* \"#utility.yul\":5573:5593   */\n      tag_132\n        /* \"#utility.yul\":5591:5592   */\n      dup4\n        /* \"#utility.yul\":5573:5593   */\n      tag_44\n      jump\t// in\n    tag_132:\n        /* \"#utility.yul\":5568:5593   */\n      swap3\n      pop\n        /* \"#utility.yul\":5617:5618   */\n      dup3\n        /* \"#utility.yul\":5614:5615   */\n      dup3\n        /* \"#utility.yul\":5610:5619   */\n      sub\n        /* \"#utility.yul\":5602:5619   */\n      swap1\n      pop\n        /* \"#utility.yul\":5641:5642   */\n      dup2\n        /* \"#utility.yul\":5635:5639   */\n      dup2\n        /* \"#utility.yul\":5632:5643   */\n      gt\n        /* \"#utility.yul\":5629:5666   */\n      iszero\n      tag_133\n      jumpi\n        /* \"#utility.yul\":5646:5664   */\n      tag_134\n      tag_45\n      jump\t// in\n    tag_134:\n        /* \"#utility.yul\":5629:5666   */\n    tag_133:\n        /* \"#utility.yul\":5479:5673   */\n      swap3\n      swap2\n      pop\n      pop\n      jump\t// out\n\n    auxdata: 0xa2646970667358221220c32e0bb6b9dd1308097b7d75f243f46b1f486a99359f3c284abec1d6f908053164736f6c634300081a0033\n}\n",
				"bytecode": {
					"linkReferences": {},
					"object": "608060405234801561000f575f80fd5b50604051610c1d380380610c1d83398181016040528101906100319190610264565b825f908161003f91906104d4565b508060015f8473ffffffffffffffffffffffffffffffffffffffff1673ffffffffffffffffffffffffffffffffffffffff1681526020019081526020015f20819055505050506105a3565b5f604051905090565b5f80fd5b5f80fd5b5f80fd5b5f80fd5b5f601f19601f8301169050919050565b7f4e487b71000000000000000000000000000000000000000000000000000000005f52604160045260245ffd5b6100e9826100a3565b810181811067ffffffffffffffff82111715610108576101076100b3565b5b80604052505050565b5f61011a61008a565b905061012682826100e0565b919050565b5f67ffffffffffffffff821115610145576101446100b3565b5b61014e826100a3565b9050602081019050919050565b8281835e5f83830152505050565b5f61017b6101768461012b565b610111565b9050828152602081018484840111156101975761019661009f565b5b6101a284828561015b565b509392505050565b5f82601f8301126101be576101bd61009b565b5b81516101ce848260208601610169565b91505092915050565b5f73ffffffffffffffffffffffffffffffffffffffff82169050919050565b5f610200826101d7565b9050919050565b610210816101f6565b811461021a575f80fd5b50565b5f8151905061022b81610207565b92915050565b5f819050919050565b61024381610231565b811461024d575f80fd5b50565b5f8151905061025e8161023a565b92915050565b5f805f6060848603121561027b5761027a610093565b5b5f84015167ffffffffffffffff81111561029857610297610097565b5b6102a4868287016101aa565b93505060206102b58682870161021d565b92505060406102c686828701610250565b9150509250925092565b5f81519050919050565b7f4e487b71000000000000000000000000000000000000000000000000000000005f52602260045260245ffd5b5f600282049050600182168061031e57607f821691505b602082108103610331576103306102da565b5b50919050565b5f819050815f5260205f209050919050565b5f6020601f8301049050919050565b5f82821b905092915050565b5f600883026103937fffffffffffffffffffffffffffffffffffffffffffffffffffffffffffffffff82610358565b61039d8683610358565b95508019841693508086168417925050509392505050565b5f819050919050565b5f6103d86103d36103ce84610231565b6103b5565b610231565b9050919050565b5f819050919050565b6103f1836103be565b6104056103fd826103df565b848454610364565b825550505050565b5f90565b61041961040d565b6104248184846103e8565b505050565b5b818110156104475761043c5f82610411565b60018101905061042a565b5050565b601f82111561048c5761045d81610337565b61046684610349565b81016020851015610475578190505b61048961048185610349565b830182610429565b50505b505050565b5f82821c905092915050565b5f6104ac5f1984600802610491565b1980831691505092915050565b5f6104c4838361049d565b9150826002028217905092915050565b6104dd826102d0565b67ffffffffffffffff8111156104f6576104f56100b3565b5b6105008254610307565b61050b82828561044b565b5f60209050601f83116001811461053c575f841561052a578287015190505b61053485826104b9565b86555061059b565b601f19841661054a86610337565b5f5b828110156105715784890151825560018201915060208501945060208101905061054c565b8683101561058e578489015161058a601f89168261049d565b8355505b6001600288020188555050505b505050505050565b61066d806105b05f395ff3fe608060405260043610610041575f3560e01c8062f55d9d1461009957806306fdde03146100c157806327e235e3146100eb578063a9059cbb1461012757610095565b3661009557600a346100539190610357565b60015f3373ffffffffffffffffffffffffffffffffffffffff1673ffffffffffffffffffffffffffffffffffffffff1681526020019081526020015f20819055005b5f80fd5b3480156100a4575f80fd5b506100bf60048036038101906100ba91906103f6565b61014f565b005b3480156100cc575f80fd5b506100d5610168565b6040516100e29190610491565b60405180910390f35b3480156100f6575f80fd5b50610111600480360381019061010c91906104ec565b6101f3565b60405161011e9190610526565b60405180910390f35b348015610132575f80fd5b5061014d60048036038101906101489190610569565b610208565b005b8073ffffffffffffffffffffffffffffffffffffffff16ff5b5f8054610174906105d4565b80601f01602080910402602001604051908101604052809291908181526020018280546101a0906105d4565b80156101eb5780601f106101c2576101008083540402835291602001916101eb565b820191905f5260205f20905b8154815290600101906020018083116101ce57829003601f168201915b505050505081565b6001602052805f5260405f205f915090505481565b8060015f3373ffffffffffffffffffffffffffffffffffffffff1673ffffffffffffffffffffffffffffffffffffffff1681526020019081526020015f20541015610251575f80fd5b8060015f3373ffffffffffffffffffffffffffffffffffffffff1673ffffffffffffffffffffffffffffffffffffffff1681526020019081526020015f205461029a9190610604565b60015f3373ffffffffffffffffffffffffffffffffffffffff1673ffffffffffffffffffffffffffffffffffffffff1681526020019081526020015f20819055508060015f8473ffffffffffffffffffffffffffffffffffffffff1673ffffffffffffffffffffffffffffffffffffffff1681526020019081526020015f20819055505050565b5f819050919050565b7f4e487b71000000000000000000000000000000000000000000000000000000005f52601160045260245ffd5b5f61036182610321565b915061036c83610321565b925082820261037a81610321565b915082820484148315176103915761039061032a565b5b5092915050565b5f80fd5b5f73ffffffffffffffffffffffffffffffffffffffff82169050919050565b5f6103c58261039c565b9050919050565b6103d5816103bb565b81146103df575f80fd5b50565b5f813590506103f0816103cc565b92915050565b5f6020828403121561040b5761040a610398565b5b5f610418848285016103e2565b91505092915050565b5f81519050919050565b5f82825260208201905092915050565b8281835e5f83830152505050565b5f601f19601f8301169050919050565b5f61046382610421565b61046d818561042b565b935061047d81856020860161043b565b61048681610449565b840191505092915050565b5f6020820190508181035f8301526104a98184610459565b905092915050565b5f6104bb8261039c565b9050919050565b6104cb816104b1565b81146104d5575f80fd5b50565b5f813590506104e6816104c2565b92915050565b5f6020828403121561050157610500610398565b5b5f61050e848285016104d8565b91505092915050565b61052081610321565b82525050565b5f6020820190506105395f830184610517565b92915050565b61054881610321565b8114610552575f80fd5b50565b5f813590506105638161053f565b92915050565b5f806040838503121561057f5761057e610398565b5b5f61058c858286016104d8565b925050602061059d85828601610555565b9150509250929050565b7f4e487b71000000000000000000000000000000000000000000000000000000005f52602260045260245ffd5b5f60028204905060018216806105eb57607f821691505b6020821081036105fe576105fd6105a7565b5b50919050565b5f61060e82610321565b915061061983610321565b92508282039050818111156106315761063061032a565b5b9291505056fea2646970667358221220c32e0bb6b9dd1308097b7d75f243f46b1f486a99359f3c284abec1d6f908053164736f6c634300081a0033",
					"opcodes": "PUSH1 0x80 PUSH1 0x40 MSTORE CALLVALUE DUP1 ISZERO PUSH2 0xF JUMPI PUSH0 DUP1 REVERT JUMPDEST POP PUSH1 0x40 MLOAD PUSH2 0xC1D CODESIZE SUB DUP1 PUSH2 0xC1D DUP4 CODECOPY DUP2 DUP2 ADD PUSH1 0x40 MSTORE DUP2 ADD SWAP1 PUSH2 0x31 SWAP2 SWAP1 PUSH2 0x264 JUMP JUMPDEST DUP3 PUSH0 SWAP1 DUP2 PUSH2 0x3F SWAP2 SWAP1 PUSH2 0x4D4 JUMP JUMPDEST POP DUP1 PUSH1 0x1 PUSH0 DUP5 PUSH20 0xFFFFFFFFFFFFFFFFFFFFFFFFFFFFFFFFFFFFFFFF AND PUSH20 0xFFFFFFFFFFFFFFFFFFFFFFFFFFFFFFFFFFFFFFFF AND DUP2 MSTORE PUSH1 0x20 ADD SWAP1 DUP2 MSTORE PUSH1 0x20 ADD PUSH0 KECCAK256 DUP2 SWAP1 SSTORE POP POP POP POP PUSH2 0x5A3 JUMP JUMPDEST PUSH0 PUSH1 0x40 MLOAD SWAP1 POP SWAP1 JUMP JUMPDEST PUSH0 DUP1 REVERT JUMPDEST PUSH0 DUP1 REVERT JUMPDEST PUSH0 DUP1 REVERT JUMPDEST PUSH0 DUP1 REVERT JUMPDEST PUSH0 PUSH1 0x1F NOT PUSH1 0x1F DUP4 ADD AND SWAP1 POP SWAP2 SWAP1 POP JUMP JUMPDEST PUSH32 0x4E487B7100000000000000000000000000000000000000000000000000000000 PUSH0 MSTORE PUSH1 0x41 PUSH1 0x4 MSTORE PUSH1 0x24 PUSH0 REVERT JUMPDEST PUSH2 0xE9 DUP3 PUSH2 0xA3 JUMP JUMPDEST DUP2 ADD DUP2 DUP2 LT PUSH8 0xFFFFFFFFFFFFFFFF DUP3 GT OR ISZERO PUSH2 0x108 JUMPI PUSH2 0x107 PUSH2 0xB3 JUMP JUMPDEST JUMPDEST DUP1 PUSH1 0x40 MSTORE POP POP POP JUMP JUMPDEST PUSH0 PUSH2 0x11A PUSH2 0x8A JUMP JUMPDEST SWAP1 POP PUSH2 0x126 DUP3 DUP3 PUSH2 0xE0 JUMP JUMPDEST SWAP2 SWAP1 POP JUMP JUMPDEST PUSH0 PUSH8 0xFFFFFFFFFFFFFFFF DUP3 GT ISZERO PUSH2 0x145 JUMPI PUSH2 0x144 PUSH2 0xB3 JUMP JUMPDEST JUMPDEST PUSH2 0x14E DUP3 PUSH2 0xA3 JUMP JUMPDEST SWAP1 POP PUSH1 0x20 DUP2 ADD SWAP1 POP SWAP2 SWAP1 POP JUMP JUMPDEST DUP3 DUP2 DUP4 MCOPY PUSH0 DUP4 DUP4 ADD MSTORE POP POP POP JUMP JUMPDEST PUSH0 PUSH2 0x17B PUSH2 0x176 DUP5 PUSH2 0x12B JUMP JUMPDEST PUSH2 0x111 JUMP JUMPDEST SWAP1 POP DUP3 DUP2 MSTORE PUSH1 0x20 DUP2 ADD DUP5 DUP5 DUP5 ADD GT ISZERO PUSH2 0x197 JUMPI PUSH2 0x196 PUSH2 0x9F JUMP JUMPDEST JUMPDEST PUSH2 0x1A2 DUP5 DUP3 DUP6 PUSH2 0x15B JUMP JUMPDEST POP SWAP4 SWAP3 POP POP POP JUMP JUMPDEST PUSH0 DUP3 PUSH1 0x1F DUP4 ADD SLT PUSH2 0x1BE JUMPI PUSH2 0x1BD PUSH2 0x9B JUMP JUMPDEST JUMPDEST DUP2 MLOAD PUSH2 0x1CE DUP5 DUP3 PUSH1 0x20 DUP7 ADD PUSH2 0x169 JUMP JUMPDEST SWAP2 POP POP SWAP3 SWAP2 POP POP JUMP JUMPDEST PUSH0 PUSH20 0xFFFFFFFFFFFFFFFFFFFFFFFFFFFFFFFFFFFFFFFF DUP3 AND SWAP1 POP SWAP2 SWAP1 POP JUMP JUMPDEST PUSH0 PUSH2 0x200 DUP3 PUSH2 0x1D7 JUMP JUMPDEST SWAP1 POP SWAP2 SWAP1 POP JUMP JUMPDEST PUSH2 0x210 DUP2 PUSH2 0x1F6 JUMP JUMPDEST DUP2 EQ PUSH2 0x21A JUMPI PUSH0 DUP1 REVERT JUMPDEST POP JUMP JUMPDEST PUSH0 DUP2 MLOAD SWAP1 POP PUSH2 0x22B DUP2 PUSH2 0x207 JUMP JUMPDEST SWAP3 SWAP2 POP POP JUMP JUMPDEST PUSH0 DUP2 SWAP1 POP SWAP2 SWAP1 POP JUMP JUMPDEST PUSH2 0x243 DUP2 PUSH2 0x231 JUMP JUMPDEST DUP2 EQ PUSH2 0x24D JUMPI PUSH0 DUP1 REVERT JUMPDEST POP JUMP JUMPDEST PUSH0 DUP2 MLOAD SWAP1 POP PUSH2 0x25E DUP2 PUSH2 0x23A JUMP JUMPDEST SWAP3 SWAP2 POP POP JUMP JUMPDEST PUSH0 DUP1 PUSH0 PUSH1 0x60 DUP5 DUP7 SUB SLT ISZERO PUSH2 0x27B JUMPI PUSH2 0x27A PUSH2 0x93 JUMP JUMPDEST JUMPDEST PUSH0 DUP5 ADD MLOAD PUSH8 0xFFFFFFFFFFFFFFFF DUP2 GT ISZERO PUSH2 0x298 JUMPI PUSH2 0x297 PUSH2 0x97 JUMP JUMPDEST JUMPDEST PUSH2 0x2A4 DUP7 DUP3 DUP8 ADD PUSH2 0x1AA JUMP JUMPDEST SWAP4 POP POP PUSH1 0x20 PUSH2 0x2B5 DUP7 DUP3 DUP8 ADD PUSH2 0x21D JUMP JUMPDEST SWAP3 POP POP PUSH1 0x40 PUSH2 0x2C6 DUP7 DUP3 DUP8 ADD PUSH2 0x250 JUMP JUMPDEST SWAP2 POP POP SWAP3 POP SWAP3 POP SWAP3 JUMP JUMPDEST PUSH0 DUP2 MLOAD SWAP1 POP SWAP2 SWAP1 POP JUMP JUMPDEST PUSH32 0x4E487B7100000000000000000000000000000000000000000000000000000000 PUSH0 MSTORE PUSH1 0x22 PUSH1 0x4 MSTORE PUSH1 0x24 PUSH0 REVERT JUMPDEST PUSH0 PUSH1 0x2 DUP3 DIV SWAP1 POP PUSH1 0x1 DUP3 AND DUP1 PUSH2 0x31E JUMPI PUSH1 0x7F DUP3 AND SWAP2 POP JUMPDEST PUSH1 0x20 DUP3 LT DUP2 SUB PUSH2 0x331 JUMPI PUSH2 0x330 PUSH2 0x2DA JUMP JUMPDEST JUMPDEST POP SWAP2 SWAP1 POP JUMP JUMPDEST PUSH0 DUP2 SWAP1 POP DUP2 PUSH0 MSTORE PUSH1 0x20 PUSH0 KECCAK256 SWAP1 POP SWAP2 SWAP1 POP JUMP JUMPDEST PUSH0 PUSH1 0x20 PUSH1 0x1F DUP4 ADD DIV SWAP1 POP SWAP2 SWAP1 POP JUMP JUMPDEST PUSH0 DUP3 DUP3 SHL SWAP1 POP SWAP3 SWAP2 POP POP JUMP JUMPDEST PUSH0 PUSH1 0x8 DUP4 MUL PUSH2 0x393 PUSH32 0xFFFFFFFFFFFFFFFFFFFFFFFFFFFFFFFFFFFFFFFFFFFFFFFFFFFFFFFFFFFFFFFF DUP3 PUSH2 0x358 JUMP JUMPDEST PUSH2 0x39D DUP7 DUP4 PUSH2 0x358 JUMP JUMPDEST SWAP6 POP DUP1 NOT DUP5 AND SWAP4 POP DUP1 DUP7 AND DUP5 OR SWAP3 POP POP POP SWAP4 SWAP3 POP POP POP JUMP JUMPDEST PUSH0 DUP2 SWAP1 POP SWAP2 SWAP1 POP JUMP JUMPDEST PUSH0 PUSH2 0x3D8 PUSH2 0x3D3 PUSH2 0x3CE DUP5 PUSH2 0x231 JUMP JUMPDEST PUSH2 0x3B5 JUMP JUMPDEST PUSH2 0x231 JUMP JUMPDEST SWAP1 POP SWAP2 SWAP1 POP JUMP JUMPDEST PUSH0 DUP2 SWAP1 POP SWAP2 SWAP1 POP JUMP JUMPDEST PUSH2 0x3F1 DUP4 PUSH2 0x3BE JUMP JUMPDEST PUSH2 0x405 PUSH2 0x3FD DUP3 PUSH2 0x3DF JUMP JUMPDEST DUP5 DUP5 SLOAD PUSH2 0x364 JUMP JUMPDEST DUP3 SSTORE POP POP POP POP JUMP JUMPDEST PUSH0 SWAP1 JUMP JUMPDEST PUSH2 0x419 PUSH2 0x40D JUMP JUMPDEST PUSH2 0x424 DUP2 DUP5 DUP5 PUSH2 0x3E8 JUMP JUMPDEST POP POP POP JUMP JUMPDEST JUMPDEST DUP2 DUP2 LT ISZERO PUSH2 0x447 JUMPI PUSH2 0x43C PUSH0 DUP3 PUSH2 0x411 JUMP JUMPDEST PUSH1 0x1 DUP2 ADD SWAP1 POP PUSH2 0x42A JUMP JUMPDEST POP POP JUMP JUMPDEST PUSH1 0x1F DUP3 GT ISZERO PUSH2 0x48C JUMPI PUSH2 0x45D DUP2 PUSH2 0x337 JUMP JUMPDEST PUSH2 0x466 DUP5 PUSH2 0x349 JUMP JUMPDEST DUP2 ADD PUSH1 0x20 DUP6 LT ISZERO PUSH2 0x475 JUMPI DUP2 SWAP1 POP JUMPDEST PUSH2 0x489 PUSH2 0x481 DUP6 PUSH2 0x349 JUMP JUMPDEST DUP4 ADD DUP3 PUSH2 0x429 JUMP JUMPDEST POP POP JUMPDEST POP POP POP JUMP JUMPDEST PUSH0 DUP3 DUP3 SHR SWAP1 POP SWAP3 SWAP2 POP POP JUMP JUMPDEST PUSH0 PUSH2 0x4AC PUSH0 NOT DUP5 PUSH1 0x8 MUL PUSH2 0x491 JUMP JUMPDEST NOT DUP1 DUP4 AND SWAP2 POP POP SWAP3 SWAP2 POP POP JUMP JUMPDEST PUSH0 PUSH2 0x4C4 DUP4 DUP4 PUSH2 0x49D JUMP JUMPDEST SWAP2 POP DUP3 PUSH1 0x2 MUL DUP3 OR SWAP1 POP SWAP3 SWAP2 POP POP JUMP JUMPDEST PUSH2 0x4DD DUP3 PUSH2 0x2D0 JUMP JUMPDEST PUSH8 0xFFFFFFFFFFFFFFFF DUP2 GT ISZERO PUSH2 0x4F6 JUMPI PUSH2 0x4F5 PUSH2 0xB3 JUMP JUMPDEST JUMPDEST PUSH2 0x500 DUP3 SLOAD PUSH2 0x307 JUMP JUMPDEST PUSH2 0x50B DUP3 DUP3 DUP6 PUSH2 0x44B JUMP JUMPDEST PUSH0 PUSH1 0x20 SWAP1 POP PUSH1 0x1F DUP4 GT PUSH1 0x1 DUP2 EQ PUSH2 0x53C JUMPI PUSH0 DUP5 ISZERO PUSH2 0x52A JUMPI DUP3 DUP8 ADD MLOAD SWAP1 POP JUMPDEST PUSH2 0x534 DUP6 DUP3 PUSH2 0x4B9 JUMP JUMPDEST DUP7 SSTORE POP PUSH2 0x59B JUMP JUMPDEST PUSH1 0x1F NOT DUP5 AND PUSH2 0x54A DUP7 PUSH2 0x337 JUMP JUMPDEST PUSH0 JUMPDEST DUP3 DUP2 LT ISZERO PUSH2 0x571 JUMPI DUP5 DUP10 ADD MLOAD DUP3 SSTORE PUSH1 0x1 DUP3 ADD SWAP2 POP PUSH1 0x20 DUP6 ADD SWAP5 POP PUSH1 0x20 DUP2 ADD SWAP1 POP PUSH2 0x54C JUMP JUMPDEST DUP7 DUP4 LT ISZERO PUSH2 0x58E JUMPI DUP5 DUP10 ADD MLOAD PUSH2 0x58A PUSH1 0x1F DUP10 AND DUP3 PUSH2 0x49D JUMP JUMPDEST DUP4 SSTORE POP JUMPDEST PUSH1 0x1 PUSH1 0x2 DUP9 MUL ADD DUP9 SSTORE POP POP POP JUMPDEST POP POP POP POP POP POP JUMP JUMPDEST PUSH2 0x66D DUP1 PUSH2 0x5B0 PUSH0 CODECOPY PUSH0 RETURN INVALID PUSH1 0x80 PUSH1 0x40 MSTORE PUSH1 0x4 CALLDATASIZE LT PUSH2 0x41 JUMPI PUSH0 CALLDATALOAD PUSH1 0xE0 SHR DUP1 PUSH3 0xF55D9D EQ PUSH2 0x99 JUMPI DUP1 PUSH4 0x6FDDE03 EQ PUSH2 0xC1 JUMPI DUP1 PUSH4 0x27E235E3 EQ PUSH2 0xEB JUMPI DUP1 PUSH4 0xA9059CBB EQ PUSH2 0x127 JUMPI PUSH2 0x95 JUMP JUMPDEST CALLDATASIZE PUSH2 0x95 JUMPI PUSH1 0xA CALLVALUE PUSH2 0x53 SWAP2 SWAP1 PUSH2 0x357 JUMP JUMPDEST PUSH1 0x1 PUSH0 CALLER PUSH20 0xFFFFFFFFFFFFFFFFFFFFFFFFFFFFFFFFFFFFFFFF AND PUSH20 0xFFFFFFFFFFFFFFFFFFFFFFFFFFFFFFFFFFFFFFFF AND DUP2 MSTORE PUSH1 0x20 ADD SWAP1 DUP2 MSTORE PUSH1 0x20 ADD PUSH0 KECCAK256 DUP2 SWAP1 SSTORE STOP JUMPDEST PUSH0 DUP1 REVERT JUMPDEST CALLVALUE DUP1 ISZERO PUSH2 0xA4 JUMPI PUSH0 DUP1 REVERT JUMPDEST POP PUSH2 0xBF PUSH1 0x4 DUP1 CALLDATASIZE SUB DUP2 ADD SWAP1 PUSH2 0xBA SWAP2 SWAP1 PUSH2 0x3F6 JUMP JUMPDEST PUSH2 0x14F JUMP JUMPDEST STOP JUMPDEST CALLVALUE DUP1 ISZERO PUSH2 0xCC JUMPI PUSH0 DUP1 REVERT JUMPDEST POP PUSH2 0xD5 PUSH2 0x168 JUMP JUMPDEST PUSH1 0x40 MLOAD PUSH2 0xE2 SWAP2 SWAP1 PUSH2 0x491 JUMP JUMPDEST PUSH1 0x40 MLOAD DUP1 SWAP2 SUB SWAP1 RETURN JUMPDEST CALLVALUE DUP1 ISZERO PUSH2 0xF6 JUMPI PUSH0 DUP1 REVERT JUMPDEST POP PUSH2 0x111 PUSH1 0x4 DUP1 CALLDATASIZE SUB DUP2 ADD SWAP1 PUSH2 0x10C SWAP2 SWAP1 PUSH2 0x4EC JUMP JUMPDEST PUSH2 0x1F3 JUMP JUMPDEST PUSH1 0x40 MLOAD PUSH2 0x11E SWAP2 SWAP1 PUSH2 0x526 JUMP JUMPDEST PUSH1 0x40 MLOAD DUP1 SWAP2 SUB SWAP1 RETURN JUMPDEST CALLVALUE DUP1 ISZERO PUSH2 0x132 JUMPI PUSH0 DUP1 REVERT JUMPDEST POP PUSH2 0x14D PUSH1 0x4 DUP1 CALLDATASIZE SUB DUP2 ADD SWAP1 PUSH2 0x148 SWAP2 SWAP1 PUSH2 0x569 JUMP JUMPDEST PUSH2 0x208 JUMP JUMPDEST STOP JUMPDEST DUP1 PUSH20 0xFFFFFFFFFFFFFFFFFFFFFFFFFFFFFFFFFFFFFFFF AND SELFDESTRUCT JUMPDEST PUSH0 DUP1 SLOAD PUSH2 0x174 SWAP1 PUSH2 0x5D4 JUMP JUMPDEST DUP1 PUSH1 0x1F ADD PUSH1 0x20 DUP1 SWAP2 DIV MUL PUSH1 0x20 ADD PUSH1 0x40 MLOAD SWAP1 DUP2 ADD PUSH1 0x40 MSTORE DUP1 SWAP3 SWAP2 SWAP1 DUP2 DUP2 MSTORE PUSH1 0x20 ADD DUP3 DUP1 SLOAD PUSH2 0x1A0 SWAP1 PUSH2 0x5D4 JUMP JUMPDEST DUP1 ISZERO PUSH2 0x1EB JUMPI DUP1 PUSH1 0x1F LT PUSH2 0x1C2 JUMPI PUSH2 0x100 DUP1 DUP4 SLOAD DIV MUL DUP4 MSTORE SWAP2 PUSH1 0x20 ADD SWAP2 PUSH2 0x1EB JUMP JUMPDEST DUP3 ADD SWAP2 SWAP1 PUSH0 MSTORE PUSH1 0x20 PUSH0 KECCAK256 SWAP1 JUMPDEST DUP2 SLOAD DUP2 MSTORE SWAP1 PUSH1 0x1 ADD SWAP1 PUSH1 0x20 ADD DUP1 DUP4 GT PUSH2 0x1CE JUMPI DUP3 SWAP1 SUB PUSH1 0x1F AND DUP3 ADD SWAP2 JUMPDEST POP POP POP POP POP DUP2 JUMP JUMPDEST PUSH1 0x1 PUSH1 0x20 MSTORE DUP1 PUSH0 MSTORE PUSH1 0x40 PUSH0 KECCAK256 PUSH0 SWAP2 POP SWAP1 POP SLOAD DUP2 JUMP JUMPDEST DUP1 PUSH1 0x1 PUSH0 CALLER PUSH20 0xFFFFFFFFFFFFFFFFFFFFFFFFFFFFFFFFFFFFFFFF AND PUSH20 0xFFFFFFFFFFFFFFFFFFFFFFFFFFFFFFFFFFFFFFFF AND DUP2 MSTORE PUSH1 0x20 ADD SWAP1 DUP2 MSTORE PUSH1 0x20 ADD PUSH0 KECCAK256 SLOAD LT ISZERO PUSH2 0x251 JUMPI PUSH0 DUP1 REVERT JUMPDEST DUP1 PUSH1 0x1 PUSH0 CALLER PUSH20 0xFFFFFFFFFFFFFFFFFFFFFFFFFFFFFFFFFFFFFFFF AND PUSH20 0xFFFFFFFFFFFFFFFFFFFFFFFFFFFFFFFFFFFFFFFF AND DUP2 MSTORE PUSH1 0x20 ADD SWAP1 DUP2 MSTORE PUSH1 0x20 ADD PUSH0 KECCAK256 SLOAD PUSH2 0x29A SWAP2 SWAP1 PUSH2 0x604 JUMP JUMPDEST PUSH1 0x1 PUSH0 CALLER PUSH20 0xFFFFFFFFFFFFFFFFFFFFFFFFFFFFFFFFFFFFFFFF AND PUSH20 0xFFFFFFFFFFFFFFFFFFFFFFFFFFFFFFFFFFFFFFFF AND DUP2 MSTORE PUSH1 0x20 ADD SWAP1 DUP2 MSTORE PUSH1 0x20 ADD PUSH0 KECCAK256 DUP2 SWAP1 SSTORE POP DUP1 PUSH1 0x1 PUSH0 DUP5 PUSH20 0xFFFFFFFFFFFFFFFFFFFFFFFFFFFFFFFFFFFFFFFF AND PUSH20 0xFFFFFFFFFFFFFFFFFFFFFFFFFFFFFFFFFFFFFFFF AND DUP2 MSTORE PUSH1 0x20 ADD SWAP1 DUP2 MSTORE PUSH1 0x20 ADD PUSH0 KECCAK256 DUP2 SWAP1 SSTORE POP POP POP JUMP JUMPDEST PUSH0 DUP2 SWAP1 POP SWAP2 SWAP1 POP JUMP JUMPDEST PUSH32 0x4E487B7100000000000000000000000000000000000000000000000000000000 PUSH0 MSTORE PUSH1 0x11 PUSH1 0x4 MSTORE PUSH1 0x24 PUSH0 REVERT JUMPDEST PUSH0 PUSH2 0x361 DUP3 PUSH2 0x321 JUMP JUMPDEST SWAP2 POP PUSH2 0x36C DUP4 PUSH2 0x321 JUMP JUMPDEST SWAP3 POP DUP3 DUP3 MUL PUSH2 0x37A DUP2 PUSH2 0x321 JUMP JUMPDEST SWAP2 POP DUP3 DUP3 DIV DUP5 EQ DUP4 ISZERO OR PUSH2 0x391 JUMPI PUSH2 0x390 PUSH2 0x32A JUMP JUMPDEST JUMPDEST POP SWAP3 SWAP2 POP POP JUMP JUMPDEST PUSH0 DUP1 REVERT JUMPDEST PUSH0 PUSH20 0xFFFFFFFFFFFFFFFFFFFFFFFFFFFFFFFFFFFFFFFF DUP3 AND SWAP1 POP SWAP2 SWAP1 POP JUMP JUMPDEST PUSH0 PUSH2 0x3C5 DUP3 PUSH2 0x39C JUMP JUMPDEST SWAP1 POP SWAP2 SWAP1 POP JUMP JUMPDEST PUSH2 0x3D5 DUP2 PUSH2 0x3BB JUMP JUMPDEST DUP2 EQ PUSH2 0x3DF JUMPI PUSH0 DUP1 REVERT JUMPDEST POP JUMP JUMPDEST PUSH0 DUP2 CALLDATALOAD SWAP1 POP PUSH2 0x3F0 DUP2 PUSH2 0x3CC JUMP JUMPDEST SWAP3 SWAP2 POP POP JUMP JUMPDEST PUSH0 PUSH1 0x20 DUP3 DUP5 SUB SLT ISZERO PUSH2 0x40B JUMPI PUSH2 0x40A PUSH2 0x398 JUMP JUMPDEST JUMPDEST PUSH0 PUSH2 0x418 DUP5 DUP3 DUP6 ADD PUSH2 0x3E2 JUMP JUMPDEST SWAP2 POP POP SWAP3 SWAP2 POP POP JUMP JUMPDEST PUSH0 DUP2 MLOAD SWAP1 POP SWAP2 SWAP1 POP JUMP JUMPDEST PUSH0 DUP3 DUP3 MSTORE PUSH1 0x20 DUP3 ADD SWAP1 POP SWAP3 SWAP2 POP POP JUMP JUMPDEST DUP3 DUP2 DUP4 MCOPY PUSH0 DUP4 DUP4 ADD MSTORE POP POP POP JUMP JUMPDEST PUSH0 PUSH1 0x1F NOT PUSH1 0x1F DUP4 ADD AND SWAP1 POP SWAP2 SWAP1 POP JUMP JUMPDEST PUSH0 PUSH2 0x463 DUP3 PUSH2 0x421 JUMP JUMPDEST PUSH2 0x46D DUP2 DUP6 PUSH2 0x42B JUMP JUMPDEST SWAP4 POP PUSH2 0x47D DUP2 DUP6 PUSH1 0x20 DUP7 ADD PUSH2 0x43B JUMP JUMPDEST PUSH2 0x486 DUP2 PUSH2 0x449 JUMP JUMPDEST DUP5 ADD SWAP2 POP POP SWAP3 SWAP2 POP POP JUMP JUMPDEST PUSH0 PUSH1 0x20 DUP3 ADD SWAP1 POP DUP2 DUP2 SUB PUSH0 DUP4 ADD MSTORE PUSH2 0x4A9 DUP2 DUP5 PUSH2 0x459 JUMP JUMPDEST SWAP1 POP SWAP3 SWAP2 POP POP JUMP JUMPDEST PUSH0 PUSH2 0x4BB DUP3 PUSH2 0x39C JUMP JUMPDEST SWAP1 POP SWAP2 SWAP1 POP JUMP JUMPDEST PUSH2 0x4CB DUP2 PUSH2 0x4B1 JUMP JUMPDEST DUP2 EQ PUSH2 0x4D5 JUMPI PUSH0 DUP1 REVERT JUMPDEST POP JUMP JUMPDEST PUSH0 DUP2 CALLDATALOAD SWAP1 POP PUSH2 0x4E6 DUP2 PUSH2 0x4C2 JUMP JUMPDEST SWAP3 SWAP2 POP POP JUMP JUMPDEST PUSH0 PUSH1 0x20 DUP3 DUP5 SUB SLT ISZERO PUSH2 0x501 JUMPI PUSH2 0x500 PUSH2 0x398 JUMP JUMPDEST JUMPDEST PUSH0 PUSH2 0x50E DUP5 DUP3 DUP6 ADD PUSH2 0x4D8 JUMP JUMPDEST SWAP2 POP POP SWAP3 SWAP2 POP POP JUMP JUMPDEST PUSH2 0x520 DUP2 PUSH2 0x321 JUMP JUMPDEST DUP3 MSTORE POP POP JUMP JUMPDEST PUSH0 PUSH1 0x20 DUP3 ADD SWAP1 POP PUSH2 0x539 PUSH0 DUP4 ADD DUP5 PUSH2 0x517 JUMP JUMPDEST SWAP3 SWAP2 POP POP JUMP JUMPDEST PUSH2 0x548 DUP2 PUSH2 0x321 JUMP JUMPDEST DUP2 EQ PUSH2 0x552 JUMPI PUSH0 DUP1 REVERT JUMPDEST POP JUMP JUMPDEST PUSH0 DUP2 CALLDATALOAD SWAP1 POP PUSH2 0x563 DUP2 PUSH2 0x53F JUMP JUMPDEST SWAP3 SWAP2 POP POP JUMP JUMPDEST PUSH0 DUP1 PUSH1 0x40 DUP4 DUP6 SUB SLT ISZERO PUSH2 0x57F JUMPI PUSH2 0x57E PUSH2 0x398 JUMP JUMPDEST JUMPDEST PUSH0 PUSH2 0x58C DUP6 DUP3 DUP7 ADD PUSH2 0x4D8 JUMP JUMPDEST SWAP3 POP POP PUSH1 0x20 PUSH2 0x59D DUP6 DUP3 DUP7 ADD PUSH2 0x555 JUMP JUMPDEST SWAP2 POP POP SWAP3 POP SWAP3 SWAP1 POP JUMP JUMPDEST PUSH32 0x4E487B7100000000000000000000000000000000000000000000000000000000 PUSH0 MSTORE PUSH1 0x22 PUSH1 0x4 MSTORE PUSH1 0x24 PUSH0 REVERT JUMPDEST PUSH0 PUSH1 0x2 DUP3 DIV SWAP1 POP PUSH1 0x1 DUP3 AND DUP1 PUSH2 0x5EB JUMPI PUSH1 0x7F DUP3 AND SWAP2 POP JUMPDEST PUSH1 0x20 DUP3 LT DUP2 SUB PUSH2 0x5FE JUMPI PUSH2 0x5FD PUSH2 0x5A7 JUMP JUMPDEST JUMPDEST POP SWAP2 SWAP1 POP JUMP JUMPDEST PUSH0 PUSH2 0x60E DUP3 PUSH2 0x321 JUMP JUMPDEST SWAP2 POP PUSH2 0x619 DUP4 PUSH2 0x321 JUMP JUMPDEST SWAP3 POP DUP3 DUP3 SUB SWAP1 POP DUP2 DUP2 GT ISZERO PUSH2 0x631 JUMPI PUSH2 0x630 PUSH2 0x32A JUMP JUMPDEST JUMPDEST SWAP3 SWAP2 POP POP JUMP INVALID LOG2 PUSH5 0x6970667358 0x22 SLT KECCAK256 0xC3 0x2E SIGNEXTEND 0xB6 0xB9 0xDD SGT ADDMOD MULMOD PUSH28 0x7D75F243F46B1F486A99359F3C284ABEC1D6F908053164736F6C6343 STOP ADDMOD BYTE STOP CALLER "
				},
				"gasEstimates": {
					"creation": {
						"codeDepositCost": "329000",
						"executionCost": "infinite",
						"totalCost": "infinite"
					},
					"external": {
						"balances(address)": "2824",
						"destroy(address)": "28025",
						"name()": "infinite",
						"transfer(address,uint256)": "infinite"
					}
				},
				"methodIdentifiers": {
					"balances(address)": "27e235e3",
					"destroy(address)": "00f55d9d",
					"name()": "06fdde03",
					"transfer(address,uint256)": "a9059cbb"
				}
			},
			"storageLayout": {
				"storage": [
					{
						"astId": 21,
						"contract": "src/level17.sol:SimpleToken",
						"label": "name",
						"offset": 0,
						"slot": "0",
						"type": "t_string_storage"
					},
					{
						"astId": 25,
						"contract": "src/level17.sol:SimpleToken",
						"label": "balances",
						"offset": 0,
						"slot": "1",
						"type": "t_mapping(t_address,t_uint256)"
					}
				],
				"types": {
					"t_address": {
						"encoding": "inplace",
						"label": "address",
						"numberOfBytes": "20"
					},
					"t_mapping(t_address,t_uint256)": {
						"encoding": "mapping",
						"key": "t_address",
						"label": "mapping(address => uint256)",
						"numberOfBytes": "32",
						"value": "t_uint256"
					},
					"t_string_storage": {
						"encoding": "bytes",
						"label": "string",
						"numberOfBytes": "32"
					},
					"t_uint256": {
						"encoding": "inplace",
						"label": "uint256",
						"numberOfBytes": "32"
					}
				}
			},
			"userdoc": {
				"kind": "user",
				"methods": {},
				"version": 1
			}
		}
	}
}