{
	"src/level09.sol": {
		"King": {
			"abi": [
				{
					"inputs": [],
					"stateMutability": "payable",
					"type": "constructor"
				},
				{
					"inputs": [],
					"name": "_king",
					"outputs": [
						{
							"internalType": "address",
							"name": "",
							"type": "address"
						}
					],
					"stateMutability": "view",
					"type": "function"
				},
				{
					"inputs": [],
					"name": "owner",
					"outputs": [
						{
							"internalType": "address",
							"name": "",
							"type": "address"
						}
					],
					"stateMutability": "view",
					"type": "function"
				},
				{
					"inputs": [],
					"name": "prize",
					"outputs": [
						{
							"internalType": "uint256",
							"name": "",
							"type": "uint256"
						}
					],
					"stateMutability": "view",
					"type": "function"
				},
				{
					"stateMutability": "payable",
					"type": "receive"
				}
			],
			"devdoc": {
				"kind": "dev",
				"methods": {},
				"version": 1
			},
			"evm": {
				"assembly": "    /* \"src/level09.sol\":57:489  contract King {... */\n  mstore(0x40, 0x80)\n    /* \"src/level09.sol\":174:184  msg.sender */\n  caller\n    /* \"src/level09.sol\":166:171  owner */\n  0x02\n  0x00\n    /* \"src/level09.sol\":166:184  owner = msg.sender */\n  0x0100\n  exp\n  dup2\n  sload\n  dup2\n  0xffffffffffffffffffffffffffffffffffffffff\n  mul\n  not\n  and\n  swap1\n  dup4\n  0xffffffffffffffffffffffffffffffffffffffff\n  and\n  mul\n  or\n  swap1\n  sstore\n  pop\n    /* \"src/level09.sol\":199:209  msg.sender */\n  caller\n    /* \"src/level09.sol\":192:196  king */\n  0x00\n  dup1\n    /* \"src/level09.sol\":192:209  king = msg.sender */\n  0x0100\n  exp\n  dup2\n  sload\n  dup2\n  0xffffffffffffffffffffffffffffffffffffffff\n  mul\n  not\n  and\n  swap1\n  dup4\n  0xffffffffffffffffffffffffffffffffffffffff\n  and\n  mul\n  or\n  swap1\n  sstore\n  pop\n    /* \"src/level09.sol\":223:232  msg.value */\n  callvalue\n    /* \"src/level09.sol\":215:220  prize */\n  0x01\n    /* \"src/level09.sol\":215:232  prize = msg.value */\n  dup2\n  swap1\n  sstore\n  pop\n    /* \"src/level09.sol\":57:489  contract King {... */\n  dataSize(sub_0)\n  dup1\n  dataOffset(sub_0)\n  0x00\n  codecopy\n  0x00\n  return\nstop\n\nsub_0: assembly {\n        /* \"src/level09.sol\":57:489  contract King {... */\n      mstore(0x40, 0x80)\n      jumpi(tag_1, lt(calldatasize, 0x04))\n      shr(0xe0, calldataload(0x00))\n      dup1\n      0x29cc6d6f\n      eq\n      tag_3\n      jumpi\n      dup1\n      0x8da5cb5b\n      eq\n      tag_4\n      jumpi\n      dup1\n      0xe3ac5d26\n      eq\n      tag_5\n      jumpi\n      jump(tag_2)\n    tag_1:\n      jumpi(tag_2, calldatasize)\n        /* \"src/level09.sol\":295:300  prize */\n      sload(0x01)\n        /* \"src/level09.sol\":282:291  msg.value */\n      callvalue\n        /* \"src/level09.sol\":282:300  msg.value >= prize */\n      lt\n      iszero\n        /* \"src/level09.sol\":282:323  msg.value >= prize || msg.sender == owner */\n      dup1\n      tag_8\n      jumpi\n      pop\n        /* \"src/level09.sol\":318:323  owner */\n      0x02\n      0x00\n      swap1\n      sload\n      swap1\n      0x0100\n      exp\n      swap1\n      div\n      0xffffffffffffffffffffffffffffffffffffffff\n      and\n        /* \"src/level09.sol\":304:323  msg.sender == owner */\n      0xffffffffffffffffffffffffffffffffffffffff\n      and\n        /* \"src/level09.sol\":304:314  msg.sender */\n      caller\n        /* \"src/level09.sol\":304:323  msg.sender == owner */\n      0xffffffffffffffffffffffffffffffffffffffff\n      and\n      eq\n        /* \"src/level09.sol\":282:323  msg.value >= prize || msg.sender == owner */\n    tag_8:\n        /* \"src/level09.sol\":274:324  require(msg.value >= prize || msg.sender == owner) */\n      tag_9\n      jumpi\n      0x00\n      dup1\n      revert\n    tag_9:\n        /* \"src/level09.sol\":338:342  king */\n      0x00\n      dup1\n      sload\n      swap1\n      0x0100\n      exp\n      swap1\n      div\n      0xffffffffffffffffffffffffffffffffffffffff\n      and\n        /* \"src/level09.sol\":330:352  payable(king).transfer */\n      0xffffffffffffffffffffffffffffffffffffffff\n      and\n        /* \"src/level09.sol\":330:363  payable(king).transfer(msg.value) */\n      0x08fc\n        /* \"src/level09.sol\":353:362  msg.value */\n      callvalue\n        /* \"src/level09.sol\":330:363  payable(king).transfer(msg.value) */\n      swap1\n      dup2\n      iszero\n      mul\n      swap1\n      mload(0x40)\n      0x00\n      mload(0x40)\n      dup1\n      dup4\n      sub\n      dup2\n      dup6\n      dup9\n      dup9\n      call\n      swap4\n      pop\n      pop\n      pop\n      pop\n      iszero\n      dup1\n      iszero\n      tag_11\n      jumpi\n      returndatasize\n      0x00\n      dup1\n      returndatacopy\n      revert(0x00, returndatasize)\n    tag_11:\n      pop\n        /* \"src/level09.sol\":376:386  msg.sender */\n      caller\n        /* \"src/level09.sol\":369:373  king */\n      0x00\n      dup1\n        /* \"src/level09.sol\":369:386  king = msg.sender */\n      0x0100\n      exp\n      dup2\n      sload\n      dup2\n      0xffffffffffffffffffffffffffffffffffffffff\n      mul\n      not\n      and\n      swap1\n      dup4\n      0xffffffffffffffffffffffffffffffffffffffff\n      and\n      mul\n      or\n      swap1\n      sstore\n      pop\n        /* \"src/level09.sol\":400:409  msg.value */\n      callvalue\n        /* \"src/level09.sol\":392:397  prize */\n      0x01\n        /* \"src/level09.sol\":392:409  prize = msg.value */\n      dup2\n      swap1\n      sstore\n      stop\n        /* \"src/level09.sol\":57:489  contract King {... */\n    tag_2:\n      0x00\n      dup1\n      revert\n        /* \"src/level09.sol\":418:487  function _king() public view returns (address) {... */\n    tag_3:\n      callvalue\n      dup1\n      iszero\n      tag_12\n      jumpi\n      0x00\n      dup1\n      revert\n    tag_12:\n      pop\n      tag_13\n      tag_14\n      jump\t// in\n    tag_13:\n      mload(0x40)\n      tag_15\n      swap2\n      swap1\n      tag_16\n      jump\t// in\n    tag_15:\n      mload(0x40)\n      dup1\n      swap2\n      sub\n      swap1\n      return\n        /* \"src/level09.sol\":113:133  address public owner */\n    tag_4:\n      callvalue\n      dup1\n      iszero\n      tag_17\n      jumpi\n      0x00\n      dup1\n      revert\n    tag_17:\n      pop\n      tag_18\n      tag_19\n      jump\t// in\n    tag_18:\n      mload(0x40)\n      tag_20\n      swap2\n      swap1\n      tag_16\n      jump\t// in\n    tag_20:\n      mload(0x40)\n      dup1\n      swap2\n      sub\n      swap1\n      return\n        /* \"src/level09.sol\":92:109  uint public prize */\n    tag_5:\n      callvalue\n      dup1\n      iszero\n      tag_21\n      jumpi\n      0x00\n      dup1\n      revert\n    tag_21:\n      pop\n      tag_22\n      tag_23\n      jump\t// in\n    tag_22:\n      mload(0x40)\n      tag_24\n      swap2\n      swap1\n      tag_25\n      jump\t// in\n    tag_24:\n      mload(0x40)\n      dup1\n      swap2\n      sub\n      swap1\n      return\n        /* \"src/level09.sol\":418:487  function _king() public view returns (address) {... */\n    tag_14:\n        /* \"src/level09.sol\":456:463  address */\n      0x00\n        /* \"src/level09.sol\":478:482  king */\n      dup1\n      0x00\n      swap1\n      sload\n      swap1\n      0x0100\n      exp\n      swap1\n      div\n      0xffffffffffffffffffffffffffffffffffffffff\n      and\n        /* \"src/level09.sol\":471:482  return king */\n      swap1\n      pop\n        /* \"src/level09.sol\":418:487  function _king() public view returns (address) {... */\n      swap1\n      jump\t// out\n        /* \"src/level09.sol\":113:133  address public owner */\n    tag_19:\n      0x02\n      0x00\n      swap1\n      sload\n      swap1\n      0x0100\n      exp\n      swap1\n      div\n      0xffffffffffffffffffffffffffffffffffffffff\n      and\n      dup2\n      jump\t// out\n        /* \"src/level09.sol\":92:109  uint public prize */\n    tag_23:\n      sload(0x01)\n      dup2\n      jump\t// out\n        /* \"#utility.yul\":7:133   */\n    tag_27:\n        /* \"#utility.yul\":44:51   */\n      0x00\n        /* \"#utility.yul\":84:126   */\n      0xffffffffffffffffffffffffffffffffffffffff\n        /* \"#utility.yul\":77:82   */\n      dup3\n        /* \"#utility.yul\":73:127   */\n      and\n        /* \"#utility.yul\":62:127   */\n      swap1\n      pop\n        /* \"#utility.yul\":7:133   */\n      swap2\n      swap1\n      pop\n      jump\t// out\n        /* \"#utility.yul\":139:235   */\n    tag_28:\n        /* \"#utility.yul\":176:183   */\n      0x00\n        /* \"#utility.yul\":205:229   */\n      tag_35\n        /* \"#utility.yul\":223:228   */\n      dup3\n        /* \"#utility.yul\":205:229   */\n      tag_27\n      jump\t// in\n    tag_35:\n        /* \"#utility.yul\":194:229   */\n      swap1\n      pop\n        /* \"#utility.yul\":139:235   */\n      swap2\n      swap1\n      pop\n      jump\t// out\n        /* \"#utility.yul\":241:359   */\n    tag_29:\n        /* \"#utility.yul\":328:352   */\n      tag_37\n        /* \"#utility.yul\":346:351   */\n      dup2\n        /* \"#utility.yul\":328:352   */\n      tag_28\n      jump\t// in\n    tag_37:\n        /* \"#utility.yul\":323:326   */\n      dup3\n        /* \"#utility.yul\":316:353   */\n      mstore\n        /* \"#utility.yul\":241:359   */\n      pop\n      pop\n      jump\t// out\n        /* \"#utility.yul\":365:587   */\n    tag_16:\n        /* \"#utility.yul\":458:462   */\n      0x00\n        /* \"#utility.yul\":496:498   */\n      0x20\n        /* \"#utility.yul\":485:494   */\n      dup3\n        /* \"#utility.yul\":481:499   */\n      add\n        /* \"#utility.yul\":473:499   */\n      swap1\n      pop\n        /* \"#utility.yul\":509:580   */\n      tag_39\n        /* \"#utility.yul\":577:578   */\n      0x00\n        /* \"#utility.yul\":566:575   */\n      dup4\n        /* \"#utility.yul\":562:579   */\n      add\n        /* \"#utility.yul\":553:559   */\n      dup5\n        /* \"#utility.yul\":509:580   */\n      tag_29\n      jump\t// in\n    tag_39:\n        /* \"#utility.yul\":365:587   */\n      swap3\n      swap2\n      pop\n      pop\n      jump\t// out\n        /* \"#utility.yul\":593:670   */\n    tag_30:\n        /* \"#utility.yul\":630:637   */\n      0x00\n        /* \"#utility.yul\":659:664   */\n      dup2\n        /* \"#utility.yul\":648:664   */\n      swap1\n      pop\n        /* \"#utility.yul\":593:670   */\n      swap2\n      swap1\n      pop\n      jump\t// out\n        /* \"#utility.yul\":676:794   */\n    tag_31:\n        /* \"#utility.yul\":763:787   */\n      tag_42\n        /* \"#utility.yul\":781:786   */\n      dup2\n        /* \"#utility.yul\":763:787   */\n      tag_30\n      jump\t// in\n    tag_42:\n        /* \"#utility.yul\":758:761   */\n      dup3\n        /* \"#utility.yul\":751:788   */\n      mstore\n        /* \"#utility.yul\":676:794   */\n      pop\n      pop\n      jump\t// out\n        /* \"#utility.yul\":800:1022   */\n    tag_25:\n        /* \"#utility.yul\":893:897   */\n      0x00\n        /* \"#utility.yul\":931:933   */\n      0x20\n        /* \"#utility.yul\":920:929   */\n      dup3\n        /* \"#utility.yul\":916:934   */\n      add\n        /* \"#utility.yul\":908:934   */\n      swap1\n      pop\n        /* \"#utility.yul\":944:1015   */\n      tag_44\n        /* \"#utility.yul\":1012:1013   */\n      0x00\n        /* \"#utility.yul\":1001:1010   */\n      dup4\n        /* \"#utility.yul\":997:1014   */\n      add\n        /* \"#utility.yul\":988:994   */\n      dup5\n        /* \"#utility.yul\":944:1015   */\n      tag_31\n      jump\t// in\n    tag_44:\n        /* \"#utility.yul\":800:1022   */\n      swap3\n      swap2\n      pop\n      pop\n      jump\t// out\n\n    auxdata: 0xa2646970667358221220af351185effebbd6aeae68e22c36199213d48670e53fdf43d690e96c51a366ec64736f6c63430008180033\n}\n",
				"bytecode": {
					"linkReferences": {},
					"object": "60806040523360025f6101000a81548173ffffffffffffffffffffffffffffffffffffffff021916908373ffffffffffffffffffffffffffffffffffffffff160217905550335f806101000a81548173ffffffffffffffffffffffffffffffffffffffff021916908373ffffffffffffffffffffffffffffffffffffffff160217905550346001819055506102de806100975f395ff3fe608060405260043610610037575f3560e01c806329cc6d6f1461014f5780638da5cb5b14610179578063e3ac5d26146101a35761014b565b3661014b5760015434101580610099575060025f9054906101000a900473ffffffffffffffffffffffffffffffffffffffff1673ffffffffffffffffffffffffffffffffffffffff163373ffffffffffffffffffffffffffffffffffffffff16145b6100a1575f80fd5b5f8054906101000a900473ffffffffffffffffffffffffffffffffffffffff1673ffffffffffffffffffffffffffffffffffffffff166108fc3490811502906040515f60405180830381858888f19350505050158015610103573d5f803e3d5ffd5b50335f806101000a81548173ffffffffffffffffffffffffffffffffffffffff021916908373ffffffffffffffffffffffffffffffffffffffff160217905550346001819055005b5f80fd5b34801561015a575f80fd5b506101636101cd565b604051610170919061025e565b60405180910390f35b348015610184575f80fd5b5061018d6101f4565b60405161019a919061025e565b60405180910390f35b3480156101ae575f80fd5b506101b7610219565b6040516101c4919061028f565b60405180910390f35b5f805f9054906101000a900473ffffffffffffffffffffffffffffffffffffffff16905090565b60025f9054906101000a900473ffffffffffffffffffffffffffffffffffffffff1681565b60015481565b5f73ffffffffffffffffffffffffffffffffffffffff82169050919050565b5f6102488261021f565b9050919050565b6102588161023e565b82525050565b5f6020820190506102715f83018461024f565b92915050565b5f819050919050565b61028981610277565b82525050565b5f6020820190506102a25f830184610280565b9291505056fea2646970667358221220af351185effebbd6aeae68e22c36199213d48670e53fdf43d690e96c51a366ec64736f6c63430008180033",
					"opcodes": "PUSH1 0x80 PUSH1 0x40 MSTORE CALLER PUSH1 0x2 PUSH0 PUSH2 0x100 EXP DUP2 SLOAD DUP2 PUSH20 0xFFFFFFFFFFFFFFFFFFFFFFFFFFFFFFFFFFFFFFFF MUL NOT AND SWAP1 DUP4 PUSH20 0xFFFFFFFFFFFFFFFFFFFFFFFFFFFFFFFFFFFFFFFF AND MUL OR SWAP1 SSTORE POP CALLER PUSH0 DUP1 PUSH2 0x100 EXP DUP2 SLOAD DUP2 PUSH20 0xFFFFFFFFFFFFFFFFFFFFFFFFFFFFFFFFFFFFFFFF MUL NOT AND SWAP1 DUP4 PUSH20 0xFFFFFFFFFFFFFFFFFFFFFFFFFFFFFFFFFFFFFFFF AND MUL OR SWAP1 SSTORE POP CALLVALUE PUSH1 0x1 DUP2 SWAP1 SSTORE POP PUSH2 0x2DE DUP1 PUSH2 0x97 PUSH0 CODECOPY PUSH0 RETURN INVALID PUSH1 0x80 PUSH1 0x40 MSTORE PUSH1 0x4 CALLDATASIZE LT PUSH2 0x37 JUMPI PUSH0 CALLDATALOAD PUSH1 0xE0 SHR DUP1 PUSH4 0x29CC6D6F EQ PUSH2 0x14F JUMPI DUP1 PUSH4 0x8DA5CB5B EQ PUSH2 0x179 JUMPI DUP1 PUSH4 0xE3AC5D26 EQ PUSH2 0x1A3 JUMPI PUSH2 0x14B JUMP JUMPDEST CALLDATASIZE PUSH2 0x14B JUMPI PUSH1 0x1 SLOAD CALLVALUE LT ISZERO DUP1 PUSH2 0x99 JUMPI POP PUSH1 0x2 PUSH0 SWAP1 SLOAD SWAP1 PUSH2 0x100 EXP SWAP1 DIV PUSH20 0xFFFFFFFFFFFFFFFFFFFFFFFFFFFFFFFFFFFFFFFF AND PUSH20 0xFFFFFFFFFFFFFFFFFFFFFFFFFFFFFFFFFFFFFFFF AND CALLER PUSH20 0xFFFFFFFFFFFFFFFFFFFFFFFFFFFFFFFFFFFFFFFF AND EQ JUMPDEST PUSH2 0xA1 JUMPI PUSH0 DUP1 REVERT JUMPDEST PUSH0 DUP1 SLOAD SWAP1 PUSH2 0x100 EXP SWAP1 DIV PUSH20 0xFFFFFFFFFFFFFFFFFFFFFFFFFFFFFFFFFFFFFFFF AND PUSH20 0xFFFFFFFFFFFFFFFFFFFFFFFFFFFFFFFFFFFFFFFF AND PUSH2 0x8FC CALLVALUE SWAP1 DUP2 ISZERO MUL SWAP1 PUSH1 0x40 MLOAD PUSH0 PUSH1 0x40 MLOAD DUP1 DUP4 SUB DUP2 DUP6 DUP9 DUP9 CALL SWAP4 POP POP POP POP ISZERO DUP1 ISZERO PUSH2 0x103 JUMPI RETURNDATASIZE PUSH0 DUP1 RETURNDATACOPY RETURNDATASIZE PUSH0 REVERT JUMPDEST POP CALLER PUSH0 DUP1 PUSH2 0x100 EXP DUP2 SLOAD DUP2 PUSH20 0xFFFFFFFFFFFFFFFFFFFFFFFFFFFFFFFFFFFFFFFF MUL NOT AND SWAP1 DUP4 PUSH20 0xFFFFFFFFFFFFFFFFFFFFFFFFFFFFFFFFFFFFFFFF AND MUL OR SWAP1 SSTORE POP CALLVALUE PUSH1 0x1 DUP2 SWAP1 SSTORE STOP JUMPDEST PUSH0 DUP1 REVERT JUMPDEST CALLVALUE DUP1 ISZERO PUSH2 0x15A JUMPI PUSH0 DUP1 REVERT JUMPDEST POP PUSH2 0x163 PUSH2 0x1CD JUMP JUMPDEST PUSH1 0x40 MLOAD PUSH2 0x170 SWAP2 SWAP1 PUSH2 0x25E JUMP JUMPDEST PUSH1 0x40 MLOAD DUP1 SWAP2 SUB SWAP1 RETURN JUMPDEST CALLVALUE DUP1 ISZERO PUSH2 0x184 JUMPI PUSH0 DUP1 REVERT JUMPDEST POP PUSH2 0x18D PUSH2 0x1F4 JUMP JUMPDEST PUSH1 0x40 MLOAD PUSH2 0x19A SWAP2 SWAP1 PUSH2 0x25E JUMP JUMPDEST PUSH1 0x40 MLOAD DUP1 SWAP2 SUB SWAP1 RETURN JUMPDEST CALLVALUE DUP1 ISZERO PUSH2 0x1AE JUMPI PUSH0 DUP1 REVERT JUMPDEST POP PUSH2 0x1B7 PUSH2 0x219 JUMP JUMPDEST PUSH1 0x40 MLOAD PUSH2 0x1C4 SWAP2 SWAP1 PUSH2 0x28F JUMP JUMPDEST PUSH1 0x40 MLOAD DUP1 SWAP2 SUB SWAP1 RETURN JUMPDEST PUSH0 DUP1 PUSH0 SWAP1 SLOAD SWAP1 PUSH2 0x100 EXP SWAP1 DIV PUSH20 0xFFFFFFFFFFFFFFFFFFFFFFFFFFFFFFFFFFFFFFFF AND SWAP1 POP SWAP1 JUMP JUMPDEST PUSH1 0x2 PUSH0 SWAP1 SLOAD SWAP1 PUSH2 0x100 EXP SWAP1 DIV PUSH20 0xFFFFFFFFFFFFFFFFFFFFFFFFFFFFFFFFFFFFFFFF AND DUP2 JUMP JUMPDEST PUSH1 0x1 SLOAD DUP2 JUMP JUMPDEST PUSH0 PUSH20 0xFFFFFFFFFFFFFFFFFFFFFFFFFFFFFFFFFFFFFFFF DUP3 AND SWAP1 POP SWAP2 SWAP1 POP JUMP JUMPDEST PUSH0 PUSH2 0x248 DUP3 PUSH2 0x21F JUMP JUMPDEST SWAP1 POP SWAP2 SWAP1 POP JUMP JUMPDEST PUSH2 0x258 DUP2 PUSH2 0x23E JUMP JUMPDEST DUP3 MSTORE POP POP JUMP JUMPDEST PUSH0 PUSH1 0x20 DUP3 ADD SWAP1 POP PUSH2 0x271 PUSH0 DUP4 ADD DUP5 PUSH2 0x24F JUMP JUMPDEST SWAP3 SWAP2 POP POP JUMP JUMPDEST PUSH0 DUP2 SWAP1 POP SWAP2 SWAP1 POP JUMP JUMPDEST PUSH2 0x289 DUP2 PUSH2 0x277 JUMP JUMPDEST DUP3 MSTORE POP POP JUMP JUMPDEST PUSH0 PUSH1 0x20 DUP3 ADD SWAP1 POP PUSH2 0x2A2 PUSH0 DUP4 ADD DUP5 PUSH2 0x280 JUMP JUMPDEST SWAP3 SWAP2 POP POP JUMP INVALID LOG2 PUSH5 0x6970667358 0x22 SLT KECCAK256 0xAF CALLDATALOAD GT DUP6 0xEF INVALID 0xBB 0xD6 0xAE 0xAE PUSH9 0xE22C36199213D48670 0xE5 EXTCODEHASH 0xDF NUMBER 0xD6 SWAP1 0xE9 PUSH13 0x51A366EC64736F6C6343000818 STOP CALLER "
				},
				"gasEstimates": {
					"creation": {
						"codeDepositCost": "146800",
						"executionCost": "70807",
						"totalCost": "217607"
					},
					"external": {
						"_king()": "2493",
						"owner()": "2508",
						"prize()": "2447"
					}
				},
				"methodIdentifiers": {
					"_king()": "29cc6d6f",
					"owner()": "8da5cb5b",
					"prize()": "e3ac5d26"
				}
			},
			"storageLayout": {
				"storage": [
					{
						"astId": 3,
						"contract": "src/level09.sol:King",
						"label": "king",
						"offset": 0,
						"slot": "0",
						"type": "t_address"
					},
					{
						"astId": 5,
						"contract": "src/level09.sol:King",
						"label": "prize",
						"offset": 0,
						"slot": "1",
						"type": "t_uint256"
					},
					{
						"astId": 7,
						"contract": "src/level09.sol:King",
						"label": "owner",
						"offset": 0,
						"slot": "2",
						"type": "t_address"
					}
				],
				"types": {
					"t_address": {
						"encoding": "inplace",
						"label": "address",
						"numberOfBytes": "20"
					},
					"t_uint256": {
						"encoding": "inplace",
						"label": "uint256",
						"numberOfBytes": "32"
					}
				}
			},
			"userdoc": {
				"kind": "user",
				"methods": {},
				"version": 1
			}
		}
	}
}